:1000000054C4000079C4000077C4000075C4000027
:1000100073C4000071C400006FC400006DC4000010
:100020006BC4000069C400000C940D0B0C94B00963
:1000300063C4000061C400005FC400005DC4000030
:100040005BC400000C94DE1257C4000055C40000CD
:1000500053C4000051C400004FC4000076C6000025
:100060004BC4000049C4000047C4000045C4000060
:1000700043C4000041C400003FC400003DC4000070
:100080000C94511339C4000037C4000035C400007B
:1000900033C4000031C400002FC400002DC4000090
:1000A0002BC4000029C4000027C40000E014E5149C
:1000B000EA14F414FE1448154815481508151215CD
:1000C0001C152615331548153B1568156B155A1563
:1000D0005E1564158C158C158C156F1573157715B9
:1000E0007D1581158C158715072810BA6A3F6ABAE5
:1000F000102838303C2E272E3C303870386A3C7837
:100100003C6A387012010002EF0201404123368040
:10011000000101020301120100020000004041231E
:10012000368000010102030141726475696E6F201F
:100130004C4C430041726475696E6F204C656F6E64
:100140006172646F0004030904080B0002020201DB
:10015000000904000001020200000524001001054E
:10016000240101010424020605240600010705817B
:100170000310004009040100020A00000007050204
:100180000240000007058302400000F0F89C8E87C3
:1001900083878E9CF8F00000FEFF03030303030730
:1001A0000EFCF80000FEFF0303030303070EFCF838
:1001B0000000FFFF00000000000000FFFF0000FE45
:1001C000FF8383838383C7EE7C380000F8FC0E072F
:1001D000030303070EFCF800003F7FE0C08080C0EF
:1001E000E07F3FFFFF01010101010101FFFF00006E
:1001F000FFFF0C0C0C0C1C3E77E3C100007FFFC01E
:10020000C0C0C0C0E0703F1F00001F3F70E0C0C012
:10021000C0E0703F1F00007FFFC1C1C1C1C1E377D3
:100220003E1C00001F3F70E0C0C0C0E0703F1F00D8
:100230000000000001FFFF010000000000000000BE
:100240003E5B4F5B3E3E6B4F6B3E1C3E7C3E1C1844
:100250003C7E3C181C577D571C1C5E7F5E1C0018A2
:100260003C1800FFE7C3E7FF0018241800FFE7DB96
:10027000E7FF30483A060E2629792926407F0505F2
:1002800007407F05253F5A3CE73C5A7F3E1C1C082F
:10029000081C1C3E7F14227F22145F5F005F5F06F4
:1002A000097F017F006689956A606060606094A242
:1002B000FFA29408047E040810207E201008082A5B
:1002C0001C08081C2A08081E101010100C1E0C1EFA
:1002D0000C30383E3830060E3E0E0600000000009E
:1002E00000005F00000007000700147F147F142443
:1002F0002A7F2A12231308646236495620500008C8
:10030000070300001C2241000041221C002A1C7F20
:100310001C2A08083E0808008070300008080808F9
:1003200008000060600020100804023E5149453E6C
:1003300000427F400072494949462141494D3318E6
:1003400014127F1027454545393C4A49493141211E
:100350001109073649494936464949291E00001402
:10036000000000403400000008142241141414144A
:1003700014004122140802015909063E415D594EFC
:100380007C1211127C7F494949363E414141227F0E
:100390004141413E7F494949417F090909013E41A7
:1003A0004151737F0808087F00417F410020404190
:1003B0003F017F081422417F404040407F021C02E1
:1003C0007F7F0408107F3E4141413E7F09090906B5
:1003D0003E4151215E7F0919294626494949320388
:1003E000017F01033F4040403F1F2040201F3F400E
:1003F00038403F63140814630304780403615949C7
:100400004D43007F41414102040810200041414119
:100410007F040201020440404040400003070800FE
:1004200020545478407F2844443838444444283881
:100430004444287F385454541800087E090218A4F4
:10044000A49C787F0804047800447D40002040404C
:100450003D007F1028440000417F40007C04780468
:10046000787C080404783844444438FC1824241860
:1004700018242418FC7C0804040848545454240408
:10048000043F44243C4040207C1C2040201C3C4035
:1004900030403C44281028444C9090907C44645454
:1004A0004C44000836410000007700000041360847
:1004B0000002010204023C2623263C1EA1A1611277
:1004C0003A4040207A3854545559215555794121A4
:1004D00054547841215554784020545579400C1E8D
:1004E0005272123955555559395454545939555435
:1004F00054580000457C410002457D420001457C86
:1005000040F0292429F0F0282528F07C5455450096
:100510002054547C547C0A097F493249494932327B
:1005200048484832324A4848303A4141217A3A42B2
:10053000402078009DA0A07D39444444393D40408E
:10054000403D3C24FF2424487E4943662B2FFC2F4A
:100550002BFF0929F620C0887E09032054547941D5
:100560000000447D413048484A32384040227A00F9
:100570007A0A0A727D0D19317D2629292F2826290C
:1005800029292630484D402038080808080808085E
:1005900008382F10C8ACBA2F102834FA00007B009E
:1005A0000008142A142222142A1408950022009507
:1005B000AA005500AAAA55AA55AA000000FF0010DB
:1005C0001010FF00141414FF001010FF00FF101093
:1005D000F010F0141414FC001414F700FF0000FFD6
:1005E00000FF1414F404FC141417101F10101F1033
:1005F0001F1414141F00101010F0000000001F1032
:100600001010101F10101010F010000000FF10103C
:1006100010101010101010FF10000000FF14000048
:10062000FF00FF00001F10170000FC04F414141753
:1006300010171414F404F40000FF00F71414141439
:10064000141414F700F7141414171410101F101FAB
:10065000141414F4141010F010F000001F101F00F8
:1006600000001F14000000FC140000F010F0101037
:10067000FF10FF141414FF141010101F00000000CE
:10068000F010FFFFFFFFFFF0F0F0F0F0FFFFFF00C2
:1006900000000000FFFF0F0F0F0F0F3844443844D5
:1006A0007C2A2A3E147E02020606027E027E026335
:1006B000554941633844443C04407E201E200602D4
:1006C0007E020299A5E7A5991C2A492A1C4C7201B1
:1006D000724C304A4D4D303048784830BC625A46F2
:1006E0003D3E494949007E0101017E2A2A2A2A2AE3
:1006F00044445F444440514A444040444A514000CD
:1007000000FF0103E080FF000008086B6B08361251
:10071000362436060F090F060000181800000010D6
:1007200010003040FF0101001F01011E00191D17BC
:1007300012003C3C3C3C0000000000060115012674
:100740000137014A015D01720188019F01B801D2A0
:1007500001EE010B022A024B026E029302BA02E47E
:100760000210033F037003A403DC0317045504972E
:1007700004DD0427057505C80520067D06E0064949
:1007800007B8072D08A9082D09B9094D0AEA0A90EA
:100790000B400CFA0CC00D910E6F0F5A1053115BE9
:1007A0001272139A14D41520178018F519801B2380
:1007B0001DDE1EB420A622B524E4263429A72B4032
:1007C0002E0031EA330037453ABC3D68414C456B59
:1007D00049C84D68524F57805C00621011121315C2
:1007E0001617181A1C1D1F21232527292C2E3134DA
:1007F000373A3E4145494E52575C62686E757B837D
:100800008B939CA5AFB9C4D0DCE9F70301D5F08D7B
:1008100014A1C881CFD9F1AF200014021302120233
:1008200015020702080204010C0106010000000085
:100830000200090F0000030401000C00000000008A
:100840000000000000000000000000000408020199
:100850001040804010204080408008020401804009
:1008600020100201108010204040200404040404E1
:100870000304050202020204030202020206060643
:10088000060606040402020204040000000025001B
:1008900028002B002E00310000000000240027005B
:1008A0002A002D00300093067A0C11241FBECFEFD2
:1008B000DAE0DEBFCDBF11E0A0E0B1E0E4E4FDE2AC
:1008C00002C005900D92AE33B107D9F725E0AEE333
:1008D000B1E001C01D92A43FB207E1F718E0CAEAF7
:1008E000D8E004C02297FE010E948116C63AD107C3
:1008F000C9F71DD20C94A01683CB8F929F92AF9212
:10090000BF92CF92DF920F931F93CF93DF93CDB718
:10091000DEB7C616D70634F49601280D391D261BFE
:10092000370B04C0260F371F2C193D09A416B50636
:100930003CF40D851E850A0D1B1D041B150B04C000
:10094000040F151F0A191B09121613061CF41016A2
:10095000110614F080E003C081E09F858927DF91B4
:10096000CF911F910F91DF90CF90BF90AF909F904C
:100970008F9008952F923F924F925F926F927F9245
:100980008F929F92AF92BF92CF92DF92EF92FF929F
:100990000F931F93CF93DF9300D000D0CDB7DEB776
:1009A00088E491E00E94300E6AE088E491E00E94C1
:1009B0005B0D8823E9F080913E0190913F012091E9
:1009C000040130910501820F931F90933F018093A2
:1009D0003E01863091051CF08FEF9FEF05C0181681
:1009E000190634F081E090E09093050180930401B2
:1009F00086E091E09C838B83612C712C412C512CDF
:100A0000212C312CEB81FC81E650F140E170FF2775
:100A1000FA83E983EB81FC81808190E0022C02C0A3
:100A2000959587950A94E2F780FF81C060913E0119
:100A300070913F0189819A81892BC1F1655F7F4F58
:100A4000640D751DCC24C394E8E0EE2E09E02BEF75
:100A500030E0A30188E491E00E94320EA0904201B0
:100A6000B090430193E0A916B1040CF460C0C090AB
:100A70004401D090450160913E0170913F01655F56
:100A80007F4F640D751D1F921F92E3E0EF93882442
:100A90008394912C58EEE52E50E0F52E08E010E0FE
:100AA00029E030E0A3018BEF90E03BC081E190E0D2
:100AB000861B970BBC01640D751DCC24C39438E0D4
:100AC000E32E09E029EE30E0A30188E491E00E94E2
:100AD000320EA0904201B090430193E0A916B104F8
:100AE00034F1C0904401D090450180913E01909135
:100AF0003F0161E170E0681B790B640D751D1F9269
:100B00001F92E3E0EF9388248394912C28EEE22E49
:100B100020E0F22E08E010E029E030E0A30189EEA9
:100B200090E0EBDE0F900F900F9081113FC0FFEF30
:100B30002F1A3F0A8DE0480E511C98E02916310407
:100B400009F068CFEB81FC813196FC83EB83F9E0FF
:100B50006F0E711C84E26816710409F04FCF60912A
:100B600040017091410165507109CC24C39486E025
:100B7000E82E09E022EF30E048E350E088E491E01D
:100B80000E94320E40914201509143014330510581
:100B9000FCF06091440170914501EE24E39402E081
:100BA00021E088E491E00E94FA0D12C081E090E01B
:100BB000022C01C0880F0A94EAF78095EB81FC8132
:100BC0009081982390831092430110924201AFCFFD
:100BD0000F900F900F900F90DF91CF911F910F9179
:100BE000FF90EF90DF90CF90BF90AF909F908F904D
:100BF0007F906F905F904F903F902F90089588E482
:100C000091E00E94CB0F80E490E0909341018093AB
:100C1000400110924501109244011092430110923C
:100C20004201089588E491E052D7882309F47AC0FC
:100C30008091460190914701019680362AEE9207F5
:100C400029F0909347018093460104C01092470118
:100C50001092460188E491E00E94300E60E288E440
:100C600091E00E940211882349F080914001909107
:100C700041010397909341018093400160E488E42F
:100C800091E00E940211882349F0809140019091E7
:100C9000410103969093410180934001809140016E
:100CA0009091410197FF04C01092410110924001C0
:100CB00080914001909141018D37910534F08CE78E
:100CC00090E0909341018093400180914201909186
:100CD00043010397B4F468E088E491E00E940211B4
:100CE000882379F08DE390E0909343018093420153
:100CF000809140019091410101979093450180932B
:100D000044018091420190914301833091052CF080
:100D1000039790934301809342012CDE88E491E095
:100D20000C940011089588E491E09CC60895ABD01E
:100D3000FDDF8BE695E0F3D462DFC0E0D0E072DF48
:100D40002097E9F30E940000FACF1F920F920FB68E
:100D50000F9211242F933F938F939F93AF93BF9341
:100D60008091630590916405A0916505B091660539
:100D70003091620523E0230F2D3720F40196A11D49
:100D8000B11D05C026E8230F0296A11DB11D2093B9
:100D900062058093630590936405A0936505B09305
:100DA00066058091670590916805A0916905B091ED
:100DB0006A050196A11DB11D809367059093680592
:100DC000A0936905B0936A05BF91AF919F918F91F0
:100DD0003F912F910F900FBE0F901F9018952FB736
:100DE000F894609163057091640580916505909118
:100DF00066052FBF08953FB7F894809167059091DD
:100E00006805A0916905B0916A0526B5A89B05C043
:100E10002F3F19F00196A11DB11D3FBF6627782F06
:100E2000892F9A2F620F711D811D911D42E0660F5F
:100E3000771F881F991F4A95D1F70895CF92DF92A7
:100E4000EF92FF92CF93DF936B017C01D4DFEB0134
:100E5000C114D104E104F10479F073D4CCDF6C1B2C
:100E60007D0B683E7340A0F381E0C81AD108E10809
:100E7000F108C851DC4FECCFDF91CF91FF90EF909C
:100E8000DF90CF900895789484B5826084BD84B556
:100E9000816084BD85B5826085BD85B5816085BD75
:100EA000EEE6F0E0808181608083E1E8F0E010828E
:100EB000808182608083808181608083E0E8F0E0CF
:100EC000808181608083E1E9F0E0808182608083BD
:100ED000808181608083E0E9F0E0808181608083AF
:100EE000E1ECF0E080818460808380818260808397
:100EF000808181608083E3ECF0E080818160808389
:100F0000E0ECF0E0808182608083E2ECF0E08081C0
:100F100081608083EAE7F0E0808184608083808163
:100F2000826080838081816080838081806880830B
:100F30000895615030F02091F100FC01208301966A
:100F4000F8CF289884E680937405089540916F0542
:100F50005091700520916D0530916E054217530731
:100F6000B4F49091E8009570E1F39091E80092FD5F
:100F700019C08093F10080916F05909170050196E2
:100F80008F739927892B19F48EEF8093E800809155
:100F90006F059091700501969093700580936F0591
:100FA00081E0089580E00895CF92DF92EF92FF9262
:100FB0000F931F93CF93DF931F92CDB7DEB7082F08
:100FC000162FF42E862F880F8E5F9983BFDF83E064
:100FD000BDDFE02EC02E9981D92E8C2D8E19811760
:100FE00088F4F601F7FE02C0849101C08081AEDF73
:100FF000082F80E0ABDF8023FFEFCF1ADF0A8111DB
:10100000ECCF01C081E00F90DF91CF911F910F9144
:10101000FF90EF90DF90CF9008958091D70081608E
:101020008093D70080EA8093D80089B5806189BD1C
:1010300089B5826089BD09B400FEFDCF61E070E032
:1010400080E090E0FBDE8091D8008F7C806180930F
:10105000D8008091E000807F8093E0000895CF93D6
:10106000DF931F92CDB7DEB71982CE010196C1D3AF
:10107000E5D4BE016F5F7F4F5AD489810F90DF9115
:10108000CF9108952FB7FC012083F8946770609387
:10109000E9000895CF93DF931F92CDB7DEB7682F95
:1010A000CE010196EFDF8091F20099819FBF0F90F2
:1010B000DF91CF910895FF920F931F93CF93DF930A
:1010C00000D0CDB7DEB7F62E8A0190917305992333
:1010D00011F057FF03C08FEF9FEF2AC0682FCE019A
:1010E00001967A83CFDF8091F20090E0A8017A81A7
:1010F000801791070CF4AC01EF2DF72FF40E84E666
:10110000FE1639F02898809374059091F100919320
:10111000F7CF4115510521F08091F200882321F08D
:1011200089818FBFCA0104C08BE68093E800F8CFA5
:101130000F900F90DF91CF911F910F91FF90089525
:10114000CF93DF931F92CDB7DEB741E050E0BE01F1
:101150006F5F7F4FB0DF019719F4898190E002C083
:101160008FEF9FEF0F90DF91CF910895CF93DF9393
:101170001F92CDB7DEB7682FCE01019683DF909125
:10118000E800892F807295FF04C09091F20080E4FE
:10119000891B99819FBF0F90DF91CF9108956F9226
:1011A0007F928F929F92AF92BF92CF92DF92EF92F7
:1011B000FF920F931F93CF93DF931F92CDB7DEB7AC
:1011C000782E7B01C42EB52E80917305882369F09B
:1011D000042F152F8AEFD82E872D8072982E9AE330
:1011E000A92E872D8074882E0FC08FEF9FEF54C0DB
:1011F000872DBCDF682E81110BC0DA94B1F361E05A
:1012000070E080E090E01ADE0115110589F73AC020
:10121000282F30E0021713070CF4602E672DCE0143
:10122000019630DF8091E80085FF29C0262D30E04F
:10123000021B130B992039F06A948FEF6816B1F0F6
:101240001092F100F9CFF701862D77FE07C081508B
:1012500058F094919093F1003196F9CF815020F09D
:1012600091919093F100FACFE20EF31E8091E80085
:1012700085FF0FC00115110511F481100AC0898185
:101280008FBFC2CF5D9884E6809375058C2D9B2D12
:1012900003C0A092E800F3CF0F90DF91CF911F9190
:1012A0000F91FF90EF90DF90CF90BF90AF909F9005
:1012B0008F907F906F9008951092E90010927005C2
:1012C00010926F0590936E0580936D050895CF92EF
:1012D000DF92FF920F931F93CF93DF9300D0CDB790
:1012E000DEB7F82E8A016B0101151105A9F0F60190
:1012F000F7FE02C0849101C0808149835A8326DEB3
:1013000001501109FFEFCF1ADF0A49815A8181117B
:10131000EBCF8FEF9FEF01C0CA010F900F90DF91CD
:10132000CF911F910F91FF90DF90CF9008951F9361
:10133000CF93DF931F92CDB7DEB7162F2091E80031
:1013400022FFFCCF612F7983F4DD8BEF8093E800DF
:10135000812F7981972F0F90DF91CF911F91089561
:101360001F920F920FB60F921124DF92EF92FF920D
:101370000F931F932F933F934F935F936F937F939D
:101380008F939F93AF93BF93EF93FF93CF93DF938D
:10139000CDB7DEB76C97DEBFCDBF1092E90080916C
:1013A000E80083FF12C168E0CE014596C2DD82EFFE
:1013B0008093E8003D8937FF05C08091E80080FFF9
:1013C000FCCF03C08EEF8093E800832F807609F076
:1013D000E4C02E894F89D88C21110CC0303829F4F3
:1013E000809172058093F10002C01092F10010927A
:1013F000F100E4C0842F90E09D29213049F431119F
:10140000DDC0019709F0DAC0809172058D7F0AC0B6
:10141000233059F43111D2C0019709F0CFC0809127
:101420007205826080937205C9C0253041F48091B5
:10143000E80080FFFCCF40684093E300BFC0263047
:1014400009F081C0EB8CFC8C22E0D21227C080E036
:1014500090E032DF04DE99E08E010F5F1F4FF8014C
:10146000292F11922A95E9F79983DA8291E09E83D8
:1014700090EA98879AEF998720916F0530917005CF
:10148000275F3F4F3C832B838D83C70115DF49E0E6
:1014900050E0B80180E01BDFE2DD90C0C7010CDF47
:1014A000CDD2BE016B5E7F4F6BD2009719F00CF06E
:1014B00085C088C081E0D8120EC08B8D9C8D0897A6
:1014C00019F481E080936C0580916C0581112CC02A
:1014D00066E171E02EC0E3E0DE1274C08F898823DC
:1014E00031F1823029F440E860E184E391E01AC0F0
:1014F000813029F440E86BE088E291E013C083304A
:1015000009F060C09BD28E010F5F1F4FB80157D208
:10151000F80101900020E9F73197E01BF10B40E062
:101520006E2FC80141DD48C064E071E002C065E48F
:1015300071E06115710509F445C0FB01449150E06B
:1015400080E8C5DE3BC0273009F43CC0283021F4D8
:1015500081E08093F10032C0293081F5337091F53C
:10156000EBE0F1E081E021E036E39081992361F046
:101570008093E9002093EB0091919093EC003093DD
:10158000ED008F5F873089F78EE78093EA00109235
:10159000EA008F898093730511C08B8D9C8D8CDE42
:1015A000898D811104C0CE0145962DD105C046D24A
:1015B000BE016B5E7F4F22D2882321F08EEF809395
:1015C000E80003C081E28093EB006C960FB6F894BC
:1015D000DEBF0FBECDBFDF91CF91FF91EF91BF91E5
:1015E000AF919F918F917F916F915F914F913F91BB
:1015F0002F911F910F91FF90EF90DF900F900FBEF2
:101600000F901F9018958093E9008091F200882335
:1016100019F08AE38093E80008951F920F920FB6A5
:101620000F9211242F933F934F935F936F937F9368
:101630008F939F93AF93BF93CF93EF93FF93C091FB
:10164000E1008091E100837F8093E1008093E100DD
:10165000C3FF0FC01092E90081E08093EB0010926D
:10166000EC0082E38093ED001092730588E0809394
:10167000F000C2FF18C083E0C6DF809175058823A3
:1016800039F080917505815080937505882389F123
:1016900080917405882339F080917405815080937E
:1016A0007405882341F1C4FF10C08091E2008E7E52
:1016B00081608093E2008091E1008F7E8093E10061
:1016C000809171058E7E806111C0C0FF16C080912F
:1016D000E2008E7E80618093E2008091E1008E7E48
:1016E0008093E100809171058E7E81608093710509
:1016F00004C05D9ACDCF289AD6CFFF91EF91CF91BC
:10170000BF91AF919F918F917F916F915F914F9119
:101710003F912F910F900FBE0F901F901895109230
:101720007305109272051092710577DCE1EEF0E01E
:1017300080818E7E80838DE08093E200559A209A8E
:1017400008950895CF93DF931F92CDB7DEB76983D5
:10175000DC01ED91FC910280F381E02D41E050E04D
:10176000BE016F5F7F4F09950F90DF91CF91089574
:10177000CF93DF93EC018C859D8597FF04C082E0B9
:10178000DFDC9D878C878C859D85DF91CF910895C7
:1017900083E039CFFC018485958597FD05C082E003
:1017A00079DC90E00196089582E074DC90E0089581
:1017B000FC018485958597FD05C02FEF3FEF3587A8
:1017C0002487089582E0BCCCCF93DF93EC01809115
:1017D0001C01882329F083E0E2DC1816190634F096
:1017E00081E090E09B838A8380E090E0DF91CF915D
:1017F0000895FC0120812E5F208342E450E069E4DB
:1018000071E080E864CDFC0121818081813A51F44E
:10181000213209F05AC047E050E065E171E080E014
:1018200056DD66C0813209F050C0233289F48381CD
:1018300090E0982F88273281832BA0E0B0E080933E
:10184000110190931201A0931301B09314010EC0E3
:10185000203231F467E070E085E191E068DD0AC094
:10186000223221F4828180931C0104C02D7F20321A
:1018700009F03EC08091150190911601A0911701C9
:10188000B0911801803B9440A105B10501F580910C
:101890001C0180FD1CC0809100089091010890936C
:1018A000FF0A8093FE0A87E797E7909301088093E9
:1018B00000082BE088E190E00FB6F894A89580939B
:1018C00060000FBE2093600013C080E0089588E19F
:1018D0000FB6F89480936000109260000FBEA89538
:1018E0008091FE0A9091FF0A90930108809300086E
:1018F00081E00895109279051092780588EE93E0C2
:10190000A0E0B0E080937A0590937B05A0937C05DE
:10191000B0937D0581E291E0909377058093760501
:101920008FEF9FEF90938305809382050895EF9248
:10193000FF920F931F93CF93DF937B01FC01C28132
:10194000D38100E010E0209781F0E881F9810280E6
:10195000F381E02DB701CE01099597FD08C0080F6E
:10196000191F0884D985C02DEECFC80102C08FEFA2
:101970009FEFDF91CF911F910F91FF90EF9008950E
:101980000F931F93CF93DF938B01FC01C281D3810F
:10199000209771F0E881F9810480F581E02DB8018C
:1019A000CE010995009731F40884D985C02DF0CF78
:1019B00080E090E0DF91CF911F910F9108950F93F8
:1019C0001F93CF93DF938B01FC01C281D3812097BA
:1019D00071F0E881F9810680F781E02DB801CE0130
:1019E0000995080F111D0884D985C02DF0CFF80185
:1019F0001082DF91CF911F910F9108950F931F9344
:101A0000CF93DF938B01FC01C281D381209771F0CA
:101A1000E881F9810190F081E02DB801CE010995AE
:101A2000811106C00884D985C02DF0CF80E001C0A7
:101A300081E0DF91CF911F910F9108958091CA05A8
:101A400081110DC082E08093C60584E08093C705B4
:101A50001092C9051092C80581E08093CA0586ECF2
:101A600095E00895CF93DF93EC0189E391E09983AA
:101A700088831B821A82CE013ED681E391E099834E
:101A800088838CE38E8380E1898718861F821E8677
:101A90001F86188A198A1A8AFE01EC5EFB4F118292
:101AA0001082329611821082C85EDB4F81E08883FB
:101AB000DF91CF91089570E0FC01878190850E94AD
:101AC0002D1621E0892B09F020E0822F08950F9335
:101AD0001F93CF93DF93EC0182D9E62F462F572F28
:101AE000BC018A89882351F08A859E2F981B9B8B85
:101AF0008F819885019698878F831A8A0E851F8516
:101B00002889398940175107620773072CF40E1B87
:101B10000230A0F09ED612C089858A019B01080F71
:101B2000111D211D311D0E871F87288B398B4A8778
:101B30005B876C877D8781E08A8B01C080E0DF91C5
:101B4000CF911F910F9108956038710518F54034B9
:101B5000510500F5E42FE695E695E695F0E047702F
:101B60005527F695FE2FEE27F795E795E60FF71F19
:101B7000E80FF91F81E090E0042E01C0880F0A945D
:101B8000EAF7222319F09489982B03C08095948951
:101B90009823948B0895AF92BF92CF92DF92EF92E9
:101BA000FF920F93CF93DF936C015B017A01E20EFA
:101BB000F11CEA0157FF0CC0C0E0D0E009C0C41717
:101BC000D50774F4202FAE01B501C601BDDF219603
:101BD000A70181E4E816F10494F340E450E0EFCF6C
:101BE000DF91CF910F91FF90EF90DF90CF90BF905A
:101BF000AF9008958F929F92AF92BF92CF92DF9253
:101C0000EF920F931F93CF93DF936C015A01102F24
:101C1000EB014B01820E911CC815D90544F40E2D21
:101C2000212FA501BE01C601B6DF2196F5CFDF91B8
:101C3000CF911F910F91EF90DF90CF90BF90AF9019
:101C40009F908F9008954496B62FB111BFEFFC017D
:101C50000024B193B193B193B1930394D1F7089554
:101C600060E0F1CF2F923F924F925F926F927F92FE
:101C70008F929F92AF92BF92CF92DF92EF92FF929C
:101C80000F931F93CF93DF9300D000D01F92CDB757
:101C9000DEB7C982202E312CFB01E20DF31DF7FDCA
:101CA00013C1603871050CF00FC1FA01EE0DF11D82
:101CB000F7FD0AC1403451050CF006C1DA0157FFA7
:101CC00004C0AA27BB27A41BB50BFD01E770FF27A3
:101CD000FB83EA83FA0157FD3796DF0113E0B595E0
:101CE000A7951A95E1F7BD83AC8357FF0CC01197F8
:101CF000BD83AC8348E050E0DA01EA81FB81AE1B92
:101D0000BF0BBB83AA834E2D469546954695C42EA0
:101D1000D12C4E2D477019F0FFEFCF1ADF0A490181
:101D20004C815D815695542F442757954795480F10
:101D3000591F2C813D81F8E06F2E712C8A819B8187
:101D4000681A790AC901AC81BD818A1B9B0B8C156D
:101D50009D050CF0B9C02830310509F4B5C02F3FFE
:101D60009FEF39070CF4A3C0CB0100E010E0DA01CB
:101D7000A058BF4F2D01021513050CF098C08038F4
:101D8000910509F494C097FD8EC02F3FBFEF3B072C
:101D900009F494C0D801A80DB91D7A01E80EF91E06
:101DA000E981E13071F4FD01A491B0E00A8002C044
:101DB000AA0FBB1F0A94E2F7F701B488AB29A48BE2
:101DC00028C0F981F11114C0FD01A491EA2FF0E0BF
:101DD0000A8002C0EE0FFF1F0A94E2F7E095F0952B
:101DE000D7015496AC905497B12CEA21FB210FC037
:101DF000FD01A491EA2FF0E00A8002C0EE0FFF1F60
:101E00000A94E2F7D7015496BC905497EB25549668
:101E1000EC93AA81BB81AB2B09F445C02730310577
:101E200009F441C0F801E80DF91DB981B13089F418
:101E3000E491F0E0062C02C0F595E7950A94E2F7EC
:101E40007201E80EF91ED7015496BC905497EB2905
:101E500028C0B981B11115C0E491F0E0062C02C090
:101E6000F595E7950A94E2F7E095F0957201E80E92
:101E7000F91ED7015496AC905497B12CEA21FB215E
:101E800010C0E491F0E0062C02C0F595E7950A94A5
:101E9000E2F77201E80EF91ED7015496BC905497F0
:101EA000EB255496EC930F5F1F4F019664CF2F5F85
:101EB0003F4F820C931C40585F4F44CFAA81BB8197
:101EC000AB2B09F0AFCFEFCF0F900F900F900F908B
:101ED0000F90DF91CF911F910F91FF90EF90DF90C6
:101EE000CF90BF90AF909F908F907F906F905F90BA
:101EF0004F903F902F9008958F929F92AF92BF92F4
:101F0000CF92EF920F931F93CF93DF935C01CEEEAE
:101F1000DFEF18E14C0184E1880E911C20E040E0E5
:101F2000612F6C1BC501C2D4C5019ADECC24C394B9
:101F300000E1E02E08E52BE831E0AE0164E170E05D
:101F4000C50190DEC40190D46BE170E080E090E0C8
:101F50000E941E07C03F31F46AEF70E080E090E01D
:101F60000E941E072196C931D105C1F66EEE72E0BE
:101F700080E090E00E941E0720E040E060E0C501A4
:101F8000DF91CF911F910F91EF90CF90BF90AF90C5
:101F90009F908F908BC4CF93DF93EC01DFD3A9D4B4
:101FA0008078803839F477D42FEF4FEF6FEFCE0180
:101FB0007DD4FFCFCE01A0DF249665E0CE01E7D12E
:101FC0006DE0CE01E4D1DF91CF913BC12F923F92E2
:101FD0004F925F926F927F928F929F92AF92BF9239
:101FE000CF92DF92EF92FF920F931F93CF93DF93E5
:101FF000CDB7DEB728970FB6F894DEBF0FBECDBFC2
:102000009E838D832A01603871050CF06CC04034CA
:1020100051050CF068C0CB01A5E0CA9E800D911D52
:102020001124181619060CF05EC0EC2DF0E0FC83AC
:10203000EB83CA01F8E0CF9E800D911D1124181684
:1020400019060CF050C0A5E02A9FC00111245B01C5
:1020500018861F82855C9D4F9A838983BF81B53026
:1020600041F0E981FA818F819885E80FF91F149179
:1020700001C010E0320128E0D22E10FF02C0F02E85
:1020800001C0FE2CF1100BC0E01209C01695DA94C5
:10209000AB81BC816A0E7B1ED110EFCF18C0150139
:1020A000822D8A198C1590F74301882D86198C157D
:1020B00050F42F2DA401B1018D819E8145DDBFEF2C
:1020C0008B1A9B0AF2CFEFEF2E1A3E0AE9CF8F81CF
:1020D0009885019698878F83AB81BC81AA0EBB1E21
:1020E000069709F0BBCF28960FB6F894DEBF0FBE57
:1020F000CDBFDF91CF911F910F91FF90EF90DF90B7
:10210000CF90BF90AF909F908F907F906F905F9097
:102110004F903F902F9008958F929F92AF92BF92D1
:10212000CF92EF920F93CF93DF93EC01262F6A307B
:1021300099F4FC01E85EFB4F208132978081918108
:1021400038E0239F800D911D112491838083CC5E04
:10215000DB4F198218824AC06D3009F447C0FC0178
:10216000EA5EFB4F408151815C018CEEA81A8BEF37
:10217000B80AF501608171814E01F8EE8F1AFBEF0C
:102180009F0AF401C080E12C01E0CE011FDFF401C1
:102190002081422F50E0F50180819181F6E02F9F50
:1021A000800D911D1124F501918380833596208146
:1021B0002223E1F06AEF64039001659F300D112442
:1021C00020583F4F281739078CF4E881F981019096
:1021D000F081E02D6AE0CE01DF91CF910F91EF9079
:1021E000CF90BF90AF909F908F900994DF91CF9147
:1021F0000F91EF90CF90BF90AF909F908F900895E8
:10220000449632C3CF93DF931F92CDB7DEB7698375
:1022100070D36981982F962381E0961380E00F9008
:10222000DF91CF910895E4E6F0E08081877F80839D
:10223000E5E6F0E08081877F808381E08093D205AE
:1022400008951092DF0582E090E072D58111EBCF06
:102250000895CF92DF92EF92FF921F93CF93DF9377
:102260009091E005891708F063C067FD61C0E82F11
:10227000F0E0E55FF74F1491E62FF0E0603330F4C3
:10228000E552F84FE491CE2FD0E006C0EE0FFF1FCD
:10229000E552F94FC591D4916E01E12CF12C60E02B
:1022A00074E284EF90E0A70196010DD52150310929
:1022B000410951092115310581E04807510568F0B0
:1022C00060E970ED83E090E0A7019601FCD4215015
:1022D00031094109510993E001C091E01130C9F081
:1022E000133031F580919100887F892B8093910084
:1022F0003093990020939800D093DE05C093DD05BC
:1023000081E08093DC058091710082608093710090
:102310000FC080918100887F892B8093810030934A
:1023200089002093880080916F00826080936F0005
:10233000DF91CF911F91FF90EF90DF90CF900895A4
:10234000E82FF0E0E55FF74FE491E13019F0E3307A
:1023500069F0089580916F008D7F80936F002091C8
:10236000EA05E091EB05F091EC0508C01092DC0560
:102370002091E305E091E405F091E505808190E08E
:1023800030E0209530958223932380830895CF9366
:10239000DF93C62F8091E005823009F468C0E82FF2
:1023A000F0E0E55FF74FD491A82FB0E0AF51BA4FFE
:1023B0006C938F5F8093E00561E08C2FAED3D130BA
:1023C00081F1D33009F053C0109290001092910027
:1023D000809191008860809391008091910081604C
:1023E000809391006C2F70E0FB01E559F74F249129
:1023F00030E0220F331F2657374FF9018591949112
:102400009093E5058093E405FB01E45BF74F64914D
:102410006093E3056CE380E01CDF80E0DF91CF9107
:102420008FCF10928000109281008091810088608F
:1024300080938100809181008160809381006C2F66
:1024400070E0FB01E559F74F249130E0220F331F74
:102450002657374FF901859194919093EC0580931D
:10246000EB05FB01E45BF74F64916093EA05DF91B4
:10247000CF910895E091D305F091D405BF016F5F2E
:102480007F4F7093D4056093D305A4919A2F907FCA
:102490008A2F8F70903811F453DFECCF903959F4B4
:1024A000AF014E5F5F4F5093D4054093D305FB01BE
:1024B0006491CFDEDFCF903E49F48091D5059091B5
:1024C000D6059093D4058093D305D4CF903F19F4CB
:1024D0001092DF05089597FDCDCFAF014E5F5F4F9E
:1024E0005093D4054093D305FB016491262F30E02F
:1024F0003A2BA091DD05B091DE0507D46C507E4FDC
:102500008F4F9F4F28EE33E040E050E0BAD3209346
:10251000D7053093D8054093D9055093DA058091BB
:10252000D7059091D805A091D905B091DA05892BEE
:102530008A2B8B2B61F481E090E0A0E0B0E08093E7
:10254000D7059093D805A093D905B093DA050895DF
:102550008091DC05882349F09091E305E091E40542
:10256000F091E5058081892780838091DF058823AC
:1025700021F18091D7059091D805A091D905B0910E
:10258000DA05892B8A2B8B2BC1F08091D70590918E
:10259000D805A091D905B091DA050197A109B10933
:1025A0008093D7059093D805A093D905B093DA0509
:1025B000892B8A2B8B2B09F45DCF08951F920F92E4
:1025C0000FB60F9211242F933F938F939F93AF9346
:1025D000BF93EF93FF938091DB05882309F44BC0F1
:1025E0008091E6059091E705A091E805B091E90595
:1025F000892B8A2B8B2B51F19091EA05E091EB0509
:10260000F091EC058081892780838091E605909187
:10261000E705A091E805B091E905181619061A0614
:102620001B0694F58091E6059091E705A091E805D9
:10263000B091E9050197A109B1098093E60590934E
:10264000E705A093E805B093E9051EC01092DB05ED
:1026500080916F008D7F80936F002091EA05E0915B
:10266000EB05F091EC05808190E030E0209530950D
:102670008223932308C09091EA05E091EB05F09145
:10268000EC05808189278083FF91EF91BF91AF9105
:102690009F918F913F912F910F900FBE0F901F90A0
:1026A00018951F920F920FB60F9211242F933F93FC
:1026B0004F935F936F937F938F939F93AF93BF934A
:1026C000EF93FF9345DFFF91EF91BF91AF919F9102
:1026D0008F917F916F915F914F913F912F910F90CB
:1026E0000FBE0F901F9018958EBD00000DB407FE11
:1026F000FDCF8EB508950895E091EF05F091F005B6
:1027000080819091ED05892B8083E091F105F09116
:10271000F20590818091EE0580958923808308954C
:10272000E091F105F091F20580819091EE05892B01
:102730008083E091EF05F091F00590818091ED05A7
:10274000809589238083E091F105F091F2059081D5
:102750008091EE058095892380830895CF93DF9340
:102760004AD2CAE1D8E0BE01FE01849122966F5F91
:102770007F4FFB016491882311F0CFD1F4CF61E04A
:1027800086E004D261E070E080E090E00E941E07E5
:1027900060E086E0FBD16AE070E080E090E00E94BB
:1027A0001E0761E086E0F2D1E7E7F8E0E491F0E0AF
:1027B000EE0FFF1FE657F74F859194919093F20526
:1027C0008093F105E8E5F8E0E491E093EE05EFE6AB
:1027D000F8E0E491F0E0EE0FFF1FE657F74F859128
:1027E00094919093F0058093EF05E0E5F8E0E49193
:1027F000E093ED058CB58C7F8CBD8DB581608DBD72
:102800008FDFCDE0D8E0F8E0CA31DF0729F0FE0124
:1028100084916ADF2196F7CF6FDF80916400816039
:102820008093640080916400826080936400809152
:102830006400806880936400809164008064809369
:10284000640080916500816080936500DF91CF9185
:10285000089583B7817F83BF83B7816083BF8895E5
:1028600083B78E7F83BF0895FC0120812EBD21E0B8
:1028700030E0FC01E20FF31F40810DB407FEFDCFF5
:102880004EBD2F5F3F4F2115F4E03F0791F70DB488
:1028900007FEFDCF0895CF93DF93C0E0D4E080E042
:1028A00023DF2197E1F7DF91CF9108950F931F93D5
:1028B000CF93DF9300D0CDB7DEB70FEF10E0C801A4
:1028C000861B9109BC018AE02A83498356D049813D
:1028D000B801641B71098BE050D02A81B801621BDA
:1028E000710989E00F900F90DF91CF911F910F91A7
:1028F00044C08FB14CB123B150E040955095407425
:10290000552733E0559547953A95E1F730E0209506
:102910003095207133273595279535952795242BAC
:102920008095807F822B0895CF92DF92EF92FF9265
:102930000F931F93CF93DF937C016A01EB0100E0BB
:1029400010E00C151D0571F06991D701ED91FC9116
:102950000190F081E02DC7010995892B19F00F5FD7
:102960001F4FEFCFC801DF91CF911F910F91FF90C3
:10297000EF90DF90CF900895D7D11F93CF93DF933F
:10298000182FEB0161E0C9D0209711F460E004C07A
:10299000CF3FD10531F461E0812FDF91CF911F91BD
:1029A000F5C0E12FF0E0E35DF74F449150E0FA010C
:1029B0003197EF30F10508F06BC0EA5AFF4F9FC125
:1029C00084B5806884BDC7BD68C084B5806284BD9D
:1029D000C8BD63C080918000806880938000D093E0
:1029E0008900C093880059C08091800080628093E4
:1029F0008000D0938B00C0938A004FC080918000EC
:102A0000886080938000D0938D00C0938C0045C077
:102A100080919000806880939000D0939900C0933B
:102A200098003BC080919000806280939000D0938A
:102A30009B00C0939A0031C0809190008860809381
:102A40009000D0939D00C0939C0027C08091C0004F
:102A500080688093C0008091C0008F7B8093C0000D
:102A6000C093CF001AC08091C00080628093C000E4
:102A7000C093D00012C08091C20088608093C200D1
:102A80008091C2008B7F8093C200C093D20005C0AA
:102A9000C038D1050CF07FCF79CFDF91CF911F9156
:102AA000089590E0FC013197EF30F105A8F5EB595E
:102AB000FF4F25C1809180008F7703C080918000F7
:102AC0008F7D80938000089580918000877FF9CF6B
:102AD00084B58F7702C084B58F7D84BD08958091C1
:102AE00090008F7707C0809190008F7D03C0809108
:102AF0009000877F8093900008958091C0008F7729
:102B000003C08091C0008F7D8093C00008958091A4
:102B1000C200877F8093C2000895CF93DF9390E037
:102B2000FC01E45BF74F2491FC01E559F74F8491D8
:102B3000882349F190E0880F991FFC01E856F74F70
:102B4000A591B4918657974FFC01C591D4919FB739
:102B5000611108C0F8948C91209582238C93888110
:102B600082230AC0623051F4F8948C91322F309550
:102B700083238C938881822B888304C0F8948C9162
:102B8000822B8C939FBFDF91CF9108950F931F935A
:102B9000CF93DF931F92CDB7DEB7282F30E0F90136
:102BA000E35DF74F8491F901E45BF74F1491F9016C
:102BB000E559F74F04910023C1F0882319F0698388
:102BC00070DF6981E02FF0E0EE0FFF1FE657F74F4F
:102BD000A591B4919FB7F8948C91611103C01095A1
:102BE000812301C0812B8C939FBF0F90DF91CF91E8
:102BF0001F910F910895CF93CFB7F8948091F3056B
:102C0000811123C0ECE7F8E08491EDE5F8E09491C0
:102C1000E82FF0E0EE0FFF1FE856F74FA591B491B3
:102C20008C91892319F461E081E1B0DF61E081E1F9
:102C300074DF8CB580618CBD8CB580648CBD61E027
:102C40008FE06BDF61E080E168DF8091F3058F5FEB
:102C50008093F305CFBFCF910895AA1BBB1B51E111
:102C600007C0AA1FBB1FA617B70710F0A61BB70BFC
:102C7000881F991F5A95A9F780959095BC01CD01A1
:102C80000895A1E21A2EAA1BBB1BFD010DC0AA1FAD
:102C9000BB1FEE1FFF1FA217B307E407F50720F0C5
:102CA000A21BB30BE40BF50B661F771F881F991F40
:102CB0001A9469F760957095809590959B01AC0189
:102CC000BD01CF010895052E97FB16F400940FD097
:102CD00057FD05D0D6DF07FC02D046F408C050955A
:102CE0004095309521953F4F4F4F5F4F08959095F8
:102CF0008095709561957F4F8F4F9F4F0895EE0F90
:102D0000FF1F0590F491E02D0994A29FB001B39F9D
:102D1000C001A39F700D811D1124911DB29F700DE4
:102D2000811D1124911D089581E090E0F89408C060
:102D3000F999FECF92BD81BDF89A992780B5089583
:042D4000F894FFCF35
:102D4400010000000100FFFFFFFF00C180810000BF
:102D540000FFFFFFFF00E100000000000000000092
:102D640000A20BE40BCA0BD80BB80BC80B00000075
:0E2D7400008C10941400000000BC1494140095
:00000001FF
