:100000000C9454050C947C050C947C050C947C0594
:100010000C947C050C947C050C947C050C947C055C
:100020000C947C050C947C050C94C80B0C943A0C35
:100030000C947C050C947C050C947C050C947C053C
:100040000C947C050C94630A0C947C050C947C0540
:100050000C947C050C947C050C947C050C948F0707
:100060000C947C050C947C050C947C050C947C050C
:100070000C947C050C947C050C947C050C947C05FC
:100080000C94010B0C947C050C947C050C947C0561
:100090000C947C050C947C050C947C050C947C05DC
:1000A0000C947C050C947C050C947C05AC10AF1072
:1000B0009E10A210A610D010D010D010B310B71000
:1000C000BB10C110C510D010CB1047114C115111ED
:1000D0005B116511AF11AF11AF116F117911831160
:1000E0008D119A11AF11A211F0F89C8E8783878E23
:1000F0009CF8F00000FEFF0303030303070EFCF867
:100100000000FEFF0303030303070EFCF80000FFDB
:10011000FF00000000000000FFFF0000FEFF8383DF
:10012000838383C7EE7C380000F8FC0E07030303CB
:10013000070EFCF800003F7FE0C08080C0E07F3FFA
:10014000FFFF01010101010101FFFF0000FFFF0CA2
:100150000C0C0C1C3E77E3C100007FFFC0C0C0C088
:10016000C0E0703F1F00001F3F70E0C0C0C0E070E3
:100170003F1F00007FFFC1C1C1C1C1E3773E1C002A
:10018000001F3F70E0C0C0C0E0703F1F00000000D3
:100190000001FFFF01000000D5F08D14A1C881CF40
:1001A000D9F1AF200014021302120215020702084F
:1001B0000204010C01060100000000000000000024
:1001C00000000000000000000080C0C0C0C0C0E00F
:1001D000E0F0F8F8FCFC7C7CBCBCBCDCDCD8D8D003
:1001E000D0B0A0800000000000000000000000006F
:1001F000000000000000000000000000000000807F
:10020000D0D8F8FCFCFCFCFCFDF9F9F9FDFDFDFD86
:10021000FDFD7D7D7D7C3C81C5DDBDBF3B7BFBF76E
:10022000F7F7EFDFBFBF7EFCFCF8F0E0C000000096
:1002300000000000000000000000000000000001BD
:10024000E7E7E7C3C3C3C3E7FFFFFFFFFFFFFFFF0E
:10025000FF7F9FE0FFFFFFFC01FFFFFFFFFFFEF9B5
:10026000F3CF3FFFFFFFFEFCF1C73FFFFFFFFEF0B4
:1002700080000000000000000000000000000000FE
:10028000010703030101018181C1E1F1F1F9F9FCE9
:10029000FEFFFFFFFF7F9FC7F8FFFFFFFFFFFFFF8E
:1002A0007F8FF0FFFFFFFFFFFFFF3801FFFFFF7FA2
:1002B0001F0000000000000000000000000000001F
:1002C0000000E0F8FCFEFFFFFFFFFFFFFFFF7FBF26
:1002D000DFEFF3FDFEFEFFFFFFFF3F9FEFF7F9FCAF
:1002E0007E7F7F7F7F7F7FFF1F47381F0F030100C7
:1002F00000000000000000000000000000000000FE
:10030000003FFFFFFFFFFFFFFFFFFFFF07F9FEFFBB
:10031000FFFFFFFFFFFFFFFF037C7F3F3F1F1F0F1C
:1003200000FFFFFFFFFF000070FCFEFEDF8F8F0F5E
:100330003E3E1C080000000000000000000000001D
:100340000000030F1F3FFFFFFFFFFFFFF0CF3F7FC6
:100350003F1F0F070303010000000080C080000062
:1003600000FFFFFFFF7F008080C1C383070F0F0FD7
:100370009FFEFEFCF00000000000000000000000F6
:10038000000000000000000103070F0F1F3F0700DF
:1003900000000000000000000000030307070F0F2B
:1003A0000F07070301000000010307070F0F0F0FDE
:1003B0000F0707030000000038303C2E272E3C308A
:1003C000382810BA6A3F6ABA10287038EA3C783C7C
:1003D000EA387070386ABC38BC6A3870182A25EC64
:1003E000386D66A818080B0002020201000904001B
:1003F0000001020200000524001001052401010192
:1004000004240206052406000107058103100040AC
:1004100009040100020A0000000705020240000072
:10042000070583024000000403090412010002EFE3
:100430000201404123368000010102030141726440
:1004400075696E6F204C4C430041726475696E6F24
:10045000204C656F6E6172646F0000000000003E0A
:100460005B4F5B3E3E6B4F6B3E1C3E7C3E1C183C24
:100470007E3C181C577D571C1C5E7F5E1C00183C80
:100480001800FFE7C3E7FF0018241800FFE7DBE7C9
:10049000FF30483A060E2629792926407F050507B0
:1004A000407F05253F5A3CE73C5A7F3E1C1C08080C
:1004B0001C1C3E7F14227F22145F5F005F5F0609D1
:1004C0007F017F006689956A606060606094A2FF2A
:1004D000A29408047E040810207E201008082A1C1C
:1004E00008081C2A08081E101010100C1E0C1E0CE8
:1004F00030383E3830060E3E0E0600000000000088
:10050000005F00000007000700147F147F14242AF6
:100510007F2A1223130864623649562050000807C8
:100520000300001C2241000041221C002A1C7F1CE9
:100530002A08083E080800807030000808080808EB
:10054000000060600020100804023E5149453E0052
:10055000427F400072494949462141494D331814B0
:10056000127F1027454545393C4A494931412111FF
:1005700009073649494936464949291E00001400F1
:100580000000403400000008142241141414141414
:10059000004122140802015909063E415D594E7C72
:1005A0001211127C7F494949363E414141227F4127
:1005B00041413E7F494949417F090909013E414185
:1005C00051737F0808087F00417F41002040413F70
:1005D000017F081422417F404040407F021C027F7F
:1005E0007F0408107F3E4141413E7F090909063ED4
:1005F0004151215E7F0919294626494949320301A3
:100600007F01033F4040403F1F2040201F3F4038B4
:10061000403F631408146303047804036159494D8F
:1006200043007F4141410204081020004141417FC5
:10063000040201020440404040400003070800203B
:10064000545478407F28444438384444442838443B
:1006500044287F385454541800087E090218A4A472
:100660009C787F0804047800447D40002040403D91
:10067000007F1028440000417F40007C047804780B
:100680007C080404783844444438FC18242418189E
:10069000242418FC7C0804040848545454240404FA
:1006A0003F44243C4040207C1C2040201C3C4030E7
:1006B000403C44281028444C9090907C4464544C16
:1006C0004400083641000000770000004136080071
:1006D00002010204023C2623263C1EA1A161123A1B
:1006E0004040207A38545455592155557941215468
:1006F000547841215554784020545579400C1E526D
:100700007212395555555939545454593955545410
:10071000580000457C410002457D420001457C4077
:10072000F0292429F0F0282528F07C545545002094
:1007300054547C547C0A097F493249494932324831
:10074000484832324A4848303A4141217A3A424098
:100750002078009DA0A07D39444444393D4040406C
:100760003D3C24FF2424487E4943662B2FFC2F2B3D
:10077000FF0929F620C0887E0903205454794100DE
:1007800000447D413048484A32384040227A007A5D
:100790000A0A727D0D19317D2629292F282629293B
:1007A000292630484D40203808080808080808085D
:1007B000382F10C8ACBA2F102834FA00007B000084
:1007C00008142A142222142A14089500220095AA3B
:1007D000005500AAAA55AA55AA000000FF00101053
:1007E00010FF00141414FF001010FF00FF1010F091
:1007F00010F0141414FC001414F700FF0000FF00A4
:10080000FF1414F404FC141417101F10101F101FF1
:100810001414141F00101010F0000000001F10101E
:1008200010101F10101010F010000000FF1010101A
:10083000101010101010FF10000000FF140000FF37
:1008400000FF00001F10170000FC04F41414171020
:10085000171414F404F40000FF00F7141414141413
:100860001414F700F7141414171410101F101F1489
:100870001414F4141010F010F000001F101F0000EA
:10088000001F14000000FC140000F010F01010FF16
:1008900010FF141414FF141010101F00000000F0BB
:1008A00010FFFFFFFFFFF0F0F0F0F0FFFFFF000090
:1008B000000000FFFF0F0F0F0F0F38444438447C37
:1008C0002A2A3E147E02020606027E027E0263553A
:1008D0004941633844443C04407E201E2006027E89
:1008E000020299A5E7A5991C2A492A1C4C7201729B
:1008F0004C304A4D4D303048784830BC625A463D05
:100900003E494949007E0101017E2A2A2A2A2A44B9
:10091000445F444440514A444040444A51400000EE
:10092000FF0103E080FF000008086B6B08361236F9
:100930002436060F090F06000018180000001010DA
:10094000003040FF0101001F01011E00191D171298
:10095000003C3C3C3C000000000006011501260163
:1009600037014A015D01720188019F01B801D2017E
:10097000EE010B022A024B026E029302BA02E4025B
:1009800010033F037003A403DC031704550497040A
:10099000DD0427057505C80520067D06E006490724
:1009A000B8072D08A9082D09B9094D0AEA0A900BC4
:1009B000400CFA0CC00D910E6F0F5A1053115B12C0
:1009C00072139A14D41520178018F519801B231D53
:1009D000DE1EB420A622B524E4263429A72B402EFF
:1009E0000031EA330037453ABC3D68414C456B491C
:1009F000C84D68524F57805C0062101112131516D3
:100A000017181A1C1D1F21232527292C2E31343796
:100A10003A3E4145494E52575C62686E757B838B06
:100A2000939CA5AFB9C4D0DCE9F700000000240016
:100A300027002A002D0030000000000200090F00EE
:100A400000030401000C0000000000000000000092
:100A50000000000000000004080201104080401067
:100A600020408040800802040180402010020110D4
:100A700080102040402000000000250028002B00AE
:100A80002E003100040404040403040502020202DF
:100A90000403020202020606060606060404020217
:100AA000020404030100971711241FBECFEFDAE000
:100AB000DEBFCDBF26E0A4E7B1E001C01D92A137A3
:100AC000B207E1F711E0A0E0B1E0ECE8FAE302C020
:100AD00005900D92A437B107D9F715E0C4E5D5E02C
:100AE00004C02197FE010E94F217C335D107C9F750
:100AF0000E94D3120C94441D0C940000CF92DF92FC
:100B0000EF92FF920F931F93CF93DF936C017A01C3
:100B10008B01C0E0D0E0CE15DF0589F0D8016D91E2
:100B20008D01D601ED91FC910190F081E02DC6017F
:100B30000995892B11F47E0102C02196ECCFC701E3
:100B4000DF91CF911F910F91FF90EF90DF90CF90A9
:100B500008950E94081AEF92FF920F931F93CF936C
:100B6000DF938091CE019091CF01892B09F05CC178
:100B7000CFB7F89480917501811127C0E5E9FAE0BB
:100B80008491E8E6FAE09491E82FF0E0EE0FFF1F81
:100B9000E65DF54FA591B491EC91E92321F461E074
:100BA00081E10E94811061E081E10E94E4108CB536
:100BB00080618CBD8CB580648CBD61E08FE00E944B
:100BC000E41061E080E10E94E410809175018F5F84
:100BD00080937501CFBFC5EAD1E0FE0184912296D2
:100BE00031966491882319F00E94E410F6CF61E0F9
:100BF00086E00E94811061E070E080E090E00E9459
:100C00006A0E60E086E00E9481106AE070E080E099
:100C100090E00E946A0E61E086E00E948110E0E9A7
:100C2000FAE0E491F0E0EE0FFF1FEA58F54F8591EE
:100C3000949190937B0180937A01E3E6FAE0E4914A
:100C4000E0937901E8E8FAE0E491F0E0EE0FFF1FAD
:100C5000EA58F54F859194919093780180937701AC
:100C6000EBE5FAE0E491E09376018CB58C7F8CBDE6
:100C70008DB581608DBDE0917A01F0917B0190810D
:100C800080917901982B9083A0917701B0917801A0
:100C90002C9190917601909592239C9390818095D0
:100CA00089238083E8E9F1E021E0E53AF20749F0A1
:100CB00084918EBD00000DB407FEFDCF8EB5319638
:100CC000F3CFE0917701F0917801908180917601E6
:100CD000892B8083E0917A01F0917B019081809152
:100CE000790180958923808380916400816080935D
:100CF000640080916400826080936400809164004D
:100D000080688093640080916400806480936400B4
:100D1000809165008160809365000E94B81187FF13
:100D20001AC080E094E01EBC00000DB407FEFDCFA9
:100D30002EB50197C1F760E070E08AE00E942011B3
:100D400060E070E08BE00E94201160E070E089E0DC
:100D50000E942011FFCFCEEEDFEF18E1EE24EA94DF
:100D6000F12C812F8C1BB701681B71098AE00E944E
:100D700020116FEF70E08BE00E9420116FEF70E0A8
:100D800089E00E9420110E94481000E128E548EE09
:100D900050E0BE0184E190E00E944D0F89E192E0B5
:100DA0000E94D5116BE170E080E090E00E946A0E35
:100DB000C03F31F46AEF70E080E090E00E946A0E7C
:100DC0002196C931D10569F66EEE72E080E090E0BF
:100DD0000E946A0E6FEF70E08AE00E9420116FEFB0
:100DE00070E08BE00E9420116FEF70E089E00E94BC
:100DF000201185E00E945B128DE00E945B12109230
:100E0000DC0182E090E00E94B51C882369F08091AB
:100E10006400877F8093640080916500877F809362
:100E2000650081E0809374011092CF011092CE0191
:100E300080911802F4E68F9FC001112460910E0288
:100E400070E00E94DE17672BB1F40E94481000E4A6
:100E500020E448EB51E060E070E080E290E00E9426
:100E60004D0F89E192E00E94D51160ED77E080E0BE
:100E700090E00E946A0E80E490E09093C901809314
:100E8000C8011092C7011092C6011092CD011092B4
:100E9000CC0140E250E061E070E084EA91E00E9421
:100EA0000D1A80E290E09093CB018093CA011092DA
:100EB000C5011092C40110927F0110927E01109220
:100EC000830110928201DF91CF911F910F91FF90CA
:100ED000EF9008953FB7F8948091D5019091D60195
:100EE000A091D701B091D80126B5A89B05C02F3F8E
:100EF00019F00196A11DB11D3FBFBA2FA92F982F40
:100F00008827820F911DA11DB11DBC01CD0142E0BA
:100F1000660F771F881F991F4A95D1F708951F9272
:100F20000F920FB60F9211242F933F938F939F939D
:100F3000AF93BF938091D1019091D201A091D30141
:100F4000B091D4013091D00123E0230F2D3720F44C
:100F50000196A11DB11D05C026E8230F0296A11D13
:100F6000B11D2093D0018093D1019093D201A09321
:100F7000D301B093D4018091D5019091D601A09175
:100F8000D701B091D8010196A11DB11D8093D50163
:100F90009093D601A093D701B093D801BF91AF91A0
:100FA0009F918F913F912F910F900FBE0F901F90A7
:100FB00018952F923F924F925F926F927F928F92ED
:100FC0009F92AF92BF92CF92DF92EF92FF920F93D8
:100FD0001F93CF93DF9300D000D000D0CDB7DEB702
:100FE0006A3091F4FC01E85EFB4F4081329720812A
:100FF000318158E0459F200D311D1124318320831C
:10100000329711821082E4C06D3009F4E1C0FC0116
:10101000E85EFB4FD0803297608071801C017CEECF
:10102000271A7BEF370AD1012D913C910D2D10E04D
:10103000203831057CF0B6E0DB9E200D311D1124F7
:10104000F10131832083FC01E75EFB4F40814111B8
:1010500094C0BEC0F0E46F1671046CF7A90175E08E
:10106000D79E400D511D11241416150624F7A80112
:1010700073E0440F551F7A95E1F7460D571D14167E
:101080001506CCF6E5E06E9FD0011124BA83A98342
:10109000490160E070E044244394512C65307105AF
:1010A00041F0E981FA81E60FF71FE65AFB4FE49120
:1010B00001C0E0E05301F8E04E2F4170C42E9C8245
:1010C0008B824B8148194D1508F048C0A501F42EBC
:1010D000B42FBA19BD15D8F5AB81BC81A038B105C4
:1010E00098F54034510580F5AF2DA695A695A695A7
:1010F000EA2EF12CDA01A770BB27BE83AD83D7019E
:10110000B695BA2FAA27B795A795EB80FC80AE0DB0
:10111000BF1DA80FB91F72010D8002C0EE0CFF1C8D
:101120000A94E2F7FE82ED82CC2031F05496FC90D6
:101130005497ED80EF2806C0ED80E0945496FC9023
:101140005497EF205496EC924F5F5F4FC0CF4B8186
:101150005C814F5F5F4F5C834B83B3CFE695F1506B
:10116000A00EB11EF111A8CF6F5F7F4F800E911EB0
:101170006630710509F092CF5ECF6AEF6003A0017F
:10118000619F500D112440585F4F4217530704F5DB
:10119000DC01ED91FC910190F081E02D6AE0269652
:1011A0000FB6F894DEBF0FBECDBFDF91CF911F9178
:1011B0000F91FF90EF90DF90CF90BF90AF909F90F6
:1011C0008F907F906F905F904F903F902F900994F9
:1011D00026960FB6F894DEBF0FBECDBFDF91CF913C
:1011E0001F910F91FF90EF90DF90CF90BF90AF9045
:1011F0009F908F907F906F905F904F903F902F9037
:1012000008958091E60181110DC082E08093E20192
:1012100084E08093E3011092E5011092E40181E003
:101220008093E60182EE91E00895CF93DF931F92C1
:10123000CDB7DEB76983DC01ED91FC910280F381CB
:10124000E02D41E050E0BE016F5F7F4F09950F90A8
:10125000DF91CF91089583E08093E9008091F200BF
:10126000882319F08AE38093E8000895FC018485BF
:10127000958597FD0BC09FB7F89482E08093E900B5
:101280008091F2009FBF90E0019608959FB7F89477
:1012900082E08093E9008091F2009FBF90E0089582
:1012A0004091DF015091E0012091DD013091DE019C
:1012B00042175307B4F49091E8009570E1F39091D0
:1012C000E80092FD19C08093F1008091DF019091B8
:1012D000E00101968F739927892B19F48EEF809383
:1012E000E8008091DF019091E00101969093E00188
:1012F0008093DF0181E0089580E00895CF92DF922E
:10130000EF92FF920F931F93CF93DF931F92CDB76E
:10131000DEB7182F062FE42E862F880F8E5F998355
:101320000E94500983E00E945009F12EC12E99813C
:10133000D92E8C2D8F19801798F4F601E7FE02C084
:10134000849101C080810E945009182F80E00E9482
:1013500050098123FFEFCF1ADF0A8111EACF01C0C4
:1013600081E00F90DF91CF911F910F91FF90EF904F
:10137000DF90CF900895DF92EF92FF920F931F932B
:10138000CF93DF93D82E8A017B01E40EF51EEB018B
:10139000CE15DF0571F0D7FE03C0FE01849101C0B8
:1013A00088810E94500921968111F2CF8FEF9FEF23
:1013B00001C0C801DF91CF911F910F91FF90EF9075
:1013C000DF9008950F931F93CF93DF931F92CDB7B4
:1013D000DEB782E0898342E450E065EE73E080E8A6
:1013E0000E94BB090E940109DC0112960D911C911B
:1013F00013970115110569F0D801ED91FC91028058
:10140000F381E02DBE016F5F7F4FC801099597FF03
:1014100007C089810F90DF91CF911F910F9108959F
:10142000F80100851185E5CF615030F02091F10081
:10143000FC0120830196F8CF289884E68093FC0174
:101440000895CF93DF931F92CDB7DEB7FC0184855B
:10145000958597FD05C02FEF3FEF358724870BC09B
:10146000CE0101960E945710019719F4898190E0EE
:1014700002C08FEF9FEF0F90DF91CF9108950F93F0
:101480001F93CF93DF931F92CDB7DEB78C01FC0182
:101490008485958597FF0EC0CE0101960E94571056
:1014A000019719F4298130E002C02FEF3FEFF801D6
:1014B00035872487F801848595850F90DF91CF913A
:1014C0001F910F9108951F920F920FB60F92112442
:1014D0002F933F938F939F93AF93BF93EF93FF937C
:1014E0008091F201882309F44DC08091EE01909122
:1014F000EF01A091F001B091F101892B8A2B8B2B88
:1015000051F180910102E0910202F0910302908179
:10151000892780838091EE019091EF01A091F001E5
:10152000B091F101181619061A061B06A4F5809150
:10153000EE019091EF01A091F001B091F1010197BE
:10154000A109B1098093EE019093EF01A093F001FE
:10155000B093F10120C01092F20180916F008D7F55
:1015600080936F0090910102E0910202F0910302DA
:101570008081282F30E0892F90E0809590958223FC
:10158000932308C080910102E0910202F0910302CE
:10159000908189278083FF91EF91BF91AF919F91B7
:1015A0008F913F912F910F900FBE0F901F90189524
:1015B000E82FF0E0ED55F54FE491E13019F0E3301C
:1015C00069F0089580916F008D7F80936F009091F6
:1015D0000102E0910202F091030208C01092F901A9
:1015E0009091FE01E091FF01F09100028081282F8F
:1015F00030E0892F90E0809590958223932380831B
:1016000008951F920F920FB60F9211242F933F93BC
:101610004F935F936F937F938F939F93AF93BF93FA
:10162000EF93FF938091F901882349F08091FE01A7
:10163000E091FF01F09100029081892780838091E1
:10164000DC01882309F493C08091F5019091F601A3
:10165000A091F701B091F801892B8A2B8B2B09F40B
:1016600086C08091F5019091F601A091F701B091AB
:10167000F8010197A109B1098093F5019093F60152
:10168000A093F701B093F801892B8A2B8B2B09F0DB
:101690006EC0E091F301F091F401BF016F5F7F4FE5
:1016A0007093F4016093F3014491942F907F842F01
:1016B0008F70903819F40E94D80AEBCF903981F4DA
:1016C0003296F093F401E093F301FB016491909161
:1016D00004028917F0F667FDDCCF0E94E511D9CF2F
:1016E000903E29F41092F4011092F301D2CF903F72
:1016F00019F41092DC013BC097FDCBCF3296F093EA
:10170000F401E093F301FB01249130E0342BA0912C
:10171000FA01B091FB010E94FE1C6C507E4F8F4F6E
:101720009F4F28EE33E040E050E00E94DC1C209305
:10173000F5013093F6014093F7015093F801809141
:10174000F5019091F601A091F701B091F801892B74
:101750008A2B8B2B61F481E090E0A0E0B0E08093D5
:10176000F5019093F601A093F701B093F801FF9172
:10177000EF91BF91AF919F918F917F916F915F9109
:101780004F913F912F910F900FBE0F901F90189582
:101790001F920F920FB60F9211248F939F938091F7
:1017A000E1009091E100937F9093E10083FF0FC0EF
:1017B0001092E90091E09093EB001092EC0092E31C
:1017C0009093ED001092FD0198E09093F00082FF5D
:1017D00020C093E09093E9009091F200992319F0D2
:1017E0009AE39093E8009091E101992339F0909168
:1017F000E10191509093E101992389F19091FC01CD
:10180000992339F09091FC0191509093FC01992318
:1018100041F184FF10C08091E2008E7E8160809350
:10182000E2008091E1008F7E8093E1008091DB01F6
:101830008E7E806111C080FF16C08091E2008E7E96
:1018400080618093E2008091E1008E7E8093E100D0
:101850008091DB018E7E81608093DB0104C05D9A04
:10186000CDCF289AD6CF9F918F910F900FBE0F901A
:101870001F9018951F920F920FB60F921124CF92BE
:10188000DF92EF92FF920F931F932F933F934F930B
:101890005F936F937F938F939F93AF93BF93EF93D8
:1018A000FF93CF93DF93CDB7DEB76C97DEBFCDBF8D
:1018B0001092E9008091E80083FFEDC168E0CE015D
:1018C00045960E94140A82EF8093E8008D8987FF75
:1018D00005C09091E80090FFFCCF03C09EEF90936D
:1018E000E800982F907609F0C6C09E892F89188D40
:1018F00091110CC0803829F48091DA018093F100B5
:1019000002C01092F1001092F10048C1422F50E045
:10191000512B913051F4811141C14130510509F0F1
:101920003DC18091DA018D7F0BC0933061F481114C
:1019300035C14130510509F031C18091DA01826031
:101940008093DA012BC1953041F48091E80080FF4B
:10195000FCCF20682093E30021C1963009F05FC0DE
:10196000EB8CFC8C1092E9001092E0011092DF01E8
:10197000123091F51092DE011092DD010E94E20911
:1019800099E0BE016F5F7F4FDB01E92F1D92EA9561
:10199000E9F799831A8391E09E8390EA98879AEFFA
:1019A00099872091DF013091E001275F3F4F3C8311
:1019B0002B838D831092E9001092E0011092DF01D9
:1019C000F092DE01E092DD0149E050E080E00E940B
:1019D000BB090E94E209E2C0F092DE01E092DD0163
:1019E0000E940109DC011296ED90FC901397E1141E
:1019F000F10409F4C0C0D701ED91FC910480F58198
:101A0000E02DBE016B5E7F4FC7010995009719F06D
:101A10000CF0C4C0C7C0F701E084F184E8CF973070
:101A200009F4C0C0983021F481E08093F100B6C081
:101A3000993009F0B3C0837009F0B4C0E1E1F1E07E
:101A400081E021E036E39081992361F08093E90001
:101A50002093EB0091919093EC003093ED008F5F19
:101A6000873089F78EE78093EA001092EA008F8929
:101A70008093FD0193C08B8D9C8D1092E900109294
:101A8000E0011092DF019093DE018093DD01898DEA
:101A9000811156C08E899D89913A59F4813209F09D
:101AA00081C047E050E064E071E080E00E94BB0943
:101AB00075C0913209F076C0833289F4888D90E048
:101AC000982F88272F89822BA0E0B0E08093000117
:101AD00090930101A0930201B09303015FC0803293
:101AE00069F48091E80082FFFCCF67E084E091E038
:101AF0000E94140A8BEF8093E80006C0823209F03E
:101B00004DC08F8980930B018091D901882319F0F2
:101B1000EEEFFAE002C0E0E0F8E08091040190917D
:101B20000501A0910601B0910701803B9440A105F9
:101B3000B10509F07BC080910B0180FF93C076C096
:101B40000E940109DC0112960D911C911397011559
:101B5000110541F1D801ED91FC910190F081E02D4A
:101B6000BE016B5E7F4FC8010995811117C0F80156
:101B700000851185ECCF113009F44EC0133091F47B
:101B80008F89882309F445C0823081F440E860E100
:101B900089E494E00E947E09882321F08EEF8093EF
:101BA000E80079C081E28093EB0075C0813029F4B0
:101BB00040E86BE08DE394E0EDCF833099F70E942D
:101BC0000109DC011296ED90FC9013978E010F5FD6
:101BD0001F4F6801E114F10479F0D701ED91FC91F8
:101BE0000680F781E02DB801C7010995080F111D86
:101BF000F701E084F184EECFD8011C92F601019048
:101C00000020E9F73197BF016C197D0940E0C6015A
:101C1000C1CF67E274E002C06BE274E06115710548
:101C200009F2FB01449150E080E840CF0FB6F894F0
:101C3000A895809160008861809360001092600098
:101C40000FBEA895EE3F2AE0F20739F08091FE0A18
:101C50009091FF0A91838083A1CF1092FF0A109286
:101C6000FE0A9CCFEE3F8AE0F80731F08081918137
:101C70009093FF0A8093FE0A87E797E7918380831A
:101C80009BE088E10FB6F894A895809360000FBEA2
:101C90009093600083CF6C960FB6F894DEBF0FBEB2
:101CA000CDBFDF91CF91FF91EF91BF91AF919F9108
:101CB0008F917F916F915F914F913F912F911F91E4
:101CC0000F91FF90EF90DF90CF900F900FBE0F908D
:101CD0001F9018958F929F92AF92BF92CF92DF92F2
:101CE000EF92FF926B017C010E946A074B015C013D
:101CF000C114D104E104F104F1F00E946A07DC018F
:101D0000CB0188199909AA09BB09883E9340A1050E
:101D1000B10570F321E0C21AD108E108F10888EE9C
:101D2000880E83E0981EA11CB11CC114D104E104EB
:101D3000F10419F7DDCFFF90EF90DF90CF90BF90C7
:101D4000AF909F908F9008957F928F929F92AF92C5
:101D5000BF92CF92DF92EF92FF920F931F93CF9398
:101D6000DF936C015B017A0180910B01882309F4F8
:101D70006BC08091FD01882309F466C08091DB016E
:101D800080FF05C08091E00082608093E000E70161
:101D900010E00AEF83E0982E90E4792E2AE3822E59
:101DA000209709F448C08FB7F8949092E900909179
:101DB000E80095FF06C09091F200272D291B922F75
:101DC00001C090E08FBF91110AC0015009F43CC0DE
:101DD00061E070E080E090E00E946A0EE1CF292F80
:101DE00030E0C217D3070CF49C2F8FB7F894909271
:101DF000E9002091E80025FF1CC0292F30E0C21B1C
:101E0000D30BF501915020F041914093F100FACFAE
:101E1000A20EB31E112319F08092E80009C0909120
:101E2000E80095FD06C08092E80011E0209709F0D7
:101E300010E08FBFB5CF1111B6CF5D9884E68093C7
:101E4000E1011E141F0444F081E090E0F601938349
:101E5000828380E090E001C0C701DF91CF911F91A4
:101E60000F91FF90EF90DF90CF90BF90AF909F9039
:101E70008F907F900895009769F0FC0101900020F9
:101E8000E9F73197AF01481B590BBC0185E092E09F
:101E90000C947E0580E090E008952F923F924F923F
:101EA0005F926F927F928F929F92AF92BF92CF92EA
:101EB000DF92EF92FF920F931F93CF93DF93CDB7F3
:101EC000DEB727970FB6F894DEBF0FBECDBFA22EA8
:101ED000B12C9C012A0D3B1D37FDC1C080389105F6
:101EE0000CF0BDC09B01200F311D37FDB8C0603420
:101EF00071050CF0B4C0DB0177FF04C0AA27BB2733
:101F0000A61BB70BA770BB279B0177FF02C0295FF9
:101F10003F4FF3E035952795FA95E1F777FF08C035
:101F20002150310968E070E04B018A1A9B0AD40104
:101F3000402E469446944694512C077019F00FEFAA
:101F4000401A500AB9017695762F662777956795DE
:101F5000680F791F420E531EE12CF12CE8E0F0E0EF
:101F60004F018A1A9B0A9F828E822415350509F437
:101F700076C02830310509F472C02F3F0FEF3007CB
:101F80000CF463C03B0110E8610E711C8B01075615
:101F90001D4F6C011B821A828A809B808A149B04CD
:101FA0000CF053C0E0E8CE16D10409F44EC0D7FCC3
:101FB00041C02F3FFFEF3F0709F44EC0EA81FB818C
:101FC000EE0DFF1DE40FF51FE491480186189708F8
:101FD000860E971E2E2E312CF1010A2E02C0EE0F16
:101FE000FF1F0A94E2F7FD83EC83F4012080EC816B
:101FF000FD81E229FD83EC833C80F401308210975F
:10200000C9F027303105B1F0EA81FB81EE0DFF1DEB
:10201000E40FF51FE491F0E01F010E8002C035943B
:1020200027940A94E2F7F8019080F101E9294F0121
:10203000F8018082EA81FB813196FB83EA830F5F9E
:102040001F4FFFEFCF1ADF0AA7CF2F5F3F4FEA0CDA
:10205000FB1C60587F4F89CF1097B1F6EBCF2796C6
:102060000FB6F894DEBF0FBECDBFDF91CF911F91A9
:102070000F91FF90EF90DF90CF90BF90AF909F9027
:102080008F907F906F905F904F903F902F9008952A
:1020900020E089E192E0B22FB111BFEFFC010024F2
:1020A000B193B193B193B1930394D1F70895FC0127
:1020B0008091FD01811103C08FEF9FEF08959FB7BD
:1020C000F89482E08093E9002091F20030E012164B
:1020D000130614F421E030E02115310559F0289859
:1020E00084E68093FC018091F10080838091F2006E
:1020F000882319F09FBFC90108958BE68093E800FB
:10210000F9CF362F90E0FC01E85CF54F4491FC01DB
:10211000E95AF54F2491FC01EC57F54F849188233F
:1021200009F451C04423E1F150E0FA013197EF3056
:10213000F105B0F5EA5AFF4F0C94F2179091800028
:102140009F7707C0909180009F7D03C09091800091
:10215000977F9093800024C094B59F7702C094B578
:102160009F7D94BD1DC0909190009F7707C0909176
:1021700090009F7D03C090919000977F9093900076
:102180000FC09091C0009F7703C09091C0009F7DC9
:102190009093C00005C09091C200977F9093C200B9
:1021A000E82FF0E0EE0FFF1FEA58F54FA591B4912C
:1021B0008FB7F894EC91311103C020952E2301C004
:1021C0002E2B2C938FBF0895CF93DF9390E0FC01CB
:1021D000E95AF54F2491FC01EC57F54F849188237F
:1021E00061F190E0880F991FFC01E65DF54FC59104
:1021F000D491FC01EA58F54FA591B491611109C041
:102200009FB7F8948881209582238883EC912E23B0
:102210000BC0623061F49FB7F8943881822F8095AB
:1022200083238883EC912E2B2C939FBF06C08FB7FE
:10223000F894E8812E2B28838FBFDF91CF910895EA
:102240001F93CF93DF93182FEB0161E00E94E410FE
:10225000209711F460E004C0CF3FD10539F461E06C
:10226000812FDF91CF911F910C948110E12FF0E02D
:10227000E85CF54FE4914E2F50E0FA013197EF30D2
:10228000F10508F06CC0EB59FF4F0C94F21784B5C0
:10229000806884BDC7BD68C084B5806284BDC8BD88
:1022A00063C080918000806880938000D093890013
:1022B000C093880059C08091800080628093800024
:1022C000D0938B00C0938A004FC0809180008860BB
:1022D00080938000D0938D00C0938C0045C0809186
:1022E0009000806880939000D0939900C0939800EC
:1022F0003BC080919000806280939000D0939B00BF
:10230000C0939A0031C080919000886080939000C3
:10231000D0939D00C0939C0027C08091C00080682E
:102320008093C0008091C0008F7B8093C000C093D9
:10233000CF001AC08091C00080628093C000C0931B
:10234000D00012C08091C20088608093C20080914A
:10235000C2008B7F8093C200C093D20005C0C038FA
:10236000D1050CF07CCF76CFDF91CF911F910895EE
:102370008FB12CB193B130E0209530952074332784
:10238000A90123E0559547952A95E1F7292F30E0DB
:1023900020953095207133273595279535952795CC
:1023A000242B8095807F822B0895FC0121912EBDE6
:1023B0009C5F21910DB407FEFDCF2EBDE817F907F4
:1023C000C1F70DB407FEFDCF0895CF92DF92EF92D3
:1023D000FF920F931F93CF93E82FF0E0ED55F54F49
:1023E000C491E62FF0E0603330F4E650F64FE4910C
:1023F0000E2F10E006C0EE0FFF1FE650F74F0591BD
:1024000014916801E12CF12C60E074E284EF90E01B
:10241000A70196010E94BD1CBA01A90141505109B2
:10242000610971094115510581E06807710580F066
:1024300060E970ED83E090E0A70196010E94BD1C69
:10244000BA01A901415051096109710983E001C034
:1024500081E0C130C9F0C33031F590919100987F8F
:10246000892B80939100509399004093980010938A
:10247000FB010093FA0181E08093F90180917100E2
:102480008260809371000FC090918100987F892BAA
:1024900080938100509389004093880080916F0061
:1024A000826080936F00CF911F910F91FF90EF900A
:1024B000DF90CF900895CF93DF93909104029230F4
:1024C00009F46EC0C82F292F30E0F901ED55F54F02
:1024D000D491F901E15EF94F80839F5F90930402EC
:1024E00061E00E94E410D13019F0D33039F158C0C6
:1024F000109280001092810080918100886080930A
:102500008100809181008160809381008C2F90E018
:10251000FC01EC57F54FE491F0E0EE0FFF1FEA5895
:10252000F54F259134913093030220930202FC0170
:10253000E95AF54F84918093010232C010929000C5
:102540001092910080919100886080939100809119
:1025500091008160809391008C2F90E0FC01EC57FA
:10256000F54FE491F0E0EE0FFF1FEA58F54F25918B
:102570003491309300022093FF01FC01E95AF54F9A
:1025800084918093FE0180910402882321F06CE302
:1025900080E00E94E51180E0DF91CF910C94D80A91
:1025A000DF91CF910895CF93DF93CDB7DEB76497D6
:1025B0000FB6F894DEBF0FBECDBF789484B58260AD
:1025C00084BD84B5816084BD85B5826085BD85B5D7
:1025D000816085BD80916E00816080936E00109255
:1025E00081008091810082608093810080918100D0
:1025F0008160809381008091800081608093800061
:10260000809191008260809391008091910081601F
:1026100080939100809190008160809390008091E0
:10262000C10084608093C1008091C100826080936A
:10263000C1008091C10081608093C1008091C3007E
:1026400081608093C3008091C00082608093C0004D
:102650008091C20081608093C20080917A00846082
:1026600080937A0080917A00826080937A008091D2
:102670007A00816080937A0080917A0080688093EC
:102680007A001092FD011092DA011092DB01809124
:10269000D70081608093D70080EA8093D80089B505
:1026A000806189BD89B5826089BD09B400FEFDCF16
:1026B00061E070E080E090E00E946A0E8091D800B6
:1026C0008F7C80618093D8008091E000807F809330
:1026D000E0008091E1008E7E8093E1008DE08093A8
:1026E000E200559A209AEEEFFFE7859194918B3F97
:1026F0009C4D19F481E08093D9010E94AB052AE03A
:10270000222E312C8FB7F8944091D1015091D201F3
:102710006091D3017091D4018FBF809117028823FB
:1027200089F080910F02142F181B109318028091CA
:102730000C0290910D02019690930D0280930C0271
:10274000109217028091130290911402A091150229
:10275000B0911602481759076A077B077CF4841B5F
:10276000823008F4BCC383B7817F83BF83B78160A5
:1027700083BF889583B78E7F83BFB1C380910E02DC
:102780008A019B01080F111D211D311D00931302A9
:1027900010931402209315023093160240930F02F7
:1027A00050931002609311027093120281E08093A3
:1027B00017028091CE019091CF01019680361AEEDA
:1027C000910729F09093CF018093CE0104C010921D
:1027D000CF011092CE010E9448108091CC019091BF
:1027E000CD0103975CF48091CA019091CB0118163A
:1027F000190624F40E94B81183FD79C38091CC019D
:102800009091CD01833091052CF003979093CD01E9
:102810008093CC018091CA019091CB012091C40199
:102820003091C501181619060CF02DC22901211589
:10283000310509F028C20E94B81185FF09C08091B6
:10284000C8019091C90103979093C9018093C80171
:102850000E94B81186FF09C08091C8019091C901FA
:1028600003969093C9018093C8018091C80190910B
:10287000C90197FF04C01092C9011092C80180914C
:10288000C8019091C9018D37910534F08CE790E033
:102890009093C9018093C8010E9448106090CE01B6
:1028A0007090CF0120918201309183013C832B8372
:1028B000B301621B730B6D3D35E0730710F06CEDD7
:1028C00075E06C33710590F4072E000C880B990BA2
:1028D0000E940F1920E030E040E752E40E946518A2
:1028E0006B017C0120E030E0A90114C06C53710938
:1028F000072E000C880B990B0E940F1920E030E086
:1029000044EB54E40E9465186B017C0120E030E840
:1029100044E054E4C701B6010E949B19A701960147
:102920000E949B19A70196010E949B1920E030E0AC
:10293000A9010E94F91720E030E040E05FE30E9427
:10294000F9170E94D718CB010596B1010E94DE1736
:10295000362F272FC30168E770E00E94CA178C3317
:10296000910530F40596B1010E94DE17CB010BC032
:1029700041E450E0BA01681B790BCB01B1010E9420
:10298000DE17CB01069681FB772770F97F831886C7
:1029900069E0AF81B8856A9FA0016B9F500D11243B
:1029A000FA01E653FC4FFA87E9873B8B2C8B04EA4C
:1029B00011E01A830983812C912C9C01255F3F4FE4
:1029C0003E872D8741E150E0481B590B588B4F87BC
:1029D00069E770E0681B790B7A8B698BAB89BC89DE
:1029E0001896BE83AD83CD84DE84EF84F888A980F9
:1029F000BA80F401E170FF27FC87EB87D5018C9149
:102A0000882309F477C0EB89FC89F2973CF001E058
:102A100010E01093C5010093C4015DC22B853C8575
:102A200008E0232B89F129E049855A856B897C8947
:102A3000C6010E944D0F8091CC019091CD01833051
:102A400091050CF457C04091C6015091C7014C1537
:102A50005D0534F49A012F5F3F4F2C193D0905C0E5
:102A60009601275F3F4F241B350B4B895C898417E8
:102A7000950724F40396841B950B35C06D817E81E8
:102A8000681B790BCB012FC029E041EC53E06B8927
:102A90007C89C7010E944D0F8091CC019091CD019E
:102AA000833091053CF14091C6015091C7014E150C
:102AB0005F0534F49A012F5F3F4F2E193F0905C07F
:102AC0009701275F3F4F241B350BEB89FC898E173D
:102AD0009F0724F403968E1B9F0B05C00D811E815A
:102AE000081B190BC8011216130624F41816190630
:102AF0000CF40DC21FEFA11AB10A2DE0C20ED11CB9
:102B00003DE0E30EF11C49895A89E416F50609F007
:102B100075CF5FEF851A950A6B897C89655F7F4F5A
:102B20007C8B6B8B89819A8108969A83898394E048
:102B30008916910409F052CF8091C8019091C90182
:102B400006E029E048EB53E06AE370E005970E9455
:102B50004D0F8091CC019091CD0183309105BCF156
:102B60002091C6013091C701AC014E5F5F4F97FFC6
:102B700002C080E090E0BA014134510514F060E4F5
:102B800070E0861797071CF52038310510F0019684
:102B9000F2CF80349105D8F7682F669566956695D3
:102BA000F90100E8609FE00DF11D1124EB5FFD4F7E
:102BB000BC0167707727A1E0B0E002C0AA0FBB1F7D
:102BC0006A95E2F7BD017489672B648BE0CFE3E57A
:102BD000F2E0408180E090E021E030E0082E01C08A
:102BE000220F0A94EAF72095422301968830910536
:102BF00099F74193B2E0EF35FB0759F78B819C8140
:102C0000861997098432EAEF9E0729F02C01F4E235
:102C10004F1AFAEF5F0AC2016CE370E00E94DE1700
:102C20007F936F938FE291E09F938F9304E811E07D
:102C30001F930F930E94141AD8010D900020E9F7FA
:102C4000AD01415051094458514086E0849F9001A4
:102C5000859F300D11243695279581E490E0821BE5
:102C6000930B90931A068093190610921C061092EB
:102C70001B06C8010E943B0F0F900F900F900F9002
:102C80000F900F9028C18091CE019091CF01232BFE
:102C900009F45FC06FE070E00E94CA176170772787
:102CA00089E0869FA001879F500D112446535C4FF9
:102CB00008E029E060E170E08CE390E00E944D0FB5
:102CC0008CE290E090931A0680931906E0E2F0E01F
:102CD000F0931C06E0931B0682E391E00E943B0FF9
:102CE0008091800190918101892B41F48091CE01E6
:102CF0009091CF0190938101809380012091800178
:102D000030918101121613060CF0E5C08091CE01BE
:102D10009091CF01821B930B853B910508F4DBC09A
:102D20008BE090E090931A068093190600E310E080
:102D300010931C0600931B068AE391E00E943B0F50
:102D40000E94B81183FFC7C01092810110928001C8
:102D5000B5C020917E0130917F01232B21F4909307
:102D60007F0180937E0140917E0150917F019A0105
:102D7000281B390B245C3F4F121613060CF042C07F
:102D8000BC01641B750B6D33710510F06CE370E0D2
:102D9000072E000C880B990B0E940F1920E030E0E1
:102DA00040E752E40E9465186B017C0120E030E0AE
:102DB00041E154EC0E949B19A70196010E949B19C6
:102DC000A70196010E949B1920E030E041E154E404
:102DD0000E94F91720E030E040E05FE30E94F9171D
:102DE0000E94D718CB010596B1010E94DE17809191
:102DF000C8019091C90106E029E048EB53E005972E
:102E00000E944D0F28E030E030931A0620931906F7
:102E100040E250E050931C0640931B068DE491E085
:102E20000E943B0F08E029E04CED53E06AE170E0BE
:102E300088E690E00E944D0F80917C0190917D0189
:102E4000892B41F48091CE019091CF0190937D0127
:102E500080937C0180917C0190917D011816190668
:102E600084F56091CE017091CF01681B790B6937B1
:102E7000710538F1660F771F6B5C7109603471055D
:102E80002CF408E029E04CED53E021C06EE070E046
:102E900070931A066093190680E390E090931C06E5
:102EA00080931B0681E691E00E943B0F0E94B811BF
:102EB00083FF11C010927D0110927C010E94AB052E
:102EC0000AC008E029E04CED53E065E270E089E0DB
:102ED00090E00E944D0F89E192E00E94D51180E0C0
:102EE00090E0892B09F40ECC0E94000008CC8DE301
:102EF00090E09093CD018093CC018091C801909196
:102F0000C90101979093C7018093C60177CCD50181
:102F10001C928091CA019091CB0101979093CB01B3
:102F20008093CA011092CD011092CC01E3CDE1E271
:102F3000F6E01382128288EE93E0A0E0B0E0848392
:102F40009583A683B7838BE191E0918380838FEF94
:102F50009FEF95878487E5E0F2E0138212828BE28F
:102F600091E0918380838CE3868380E18187108662
:102F7000178216861786108A118A128A10921A06EC
:102F80001092190610921C0610921B0681E0809385
:102F90001D060895AA1BBB1B51E107C0AA1FBB1F3A
:102FA000A617B70710F0A61BB70B881F991F5A95D5
:102FB000A9F780959095BC01CD01089597FB072E48
:102FC00016F4009407D077FD09D00E94CA1707FCB9
:102FD00005D03EF4909581959F4F08957095619529
:102FE0007F4F0895EE0FFF1F0590F491E02D099497
:102FF0005058BB27AA270E9410180C9461190E94F0
:10300000531938F00E945A1920F039F49F3F19F4EF
:1030100026F40C9450190EF4E095E7FB0C944A1931
:10302000E92F0E94721958F3BA17620773078407D1
:10303000950720F079F4A6F50C9494190EF4E09518
:103040000B2EBA2FA02D0B01B90190010C01CA0162
:10305000A0011124FF27591B99F0593F50F4503E0D
:1030600068F11A16F040A22F232F342F4427585FFF
:10307000F3CF469537952795A795F0405395C9F717
:103080007EF41F16BA0B620B730B840BBAF09150CF
:10309000A1F0FF0FBB1F661F771F881FC2F70EC06E
:1030A000BA0F621F731F841F48F487957795679541
:1030B000B795F7959E3F08F0B0CF9395880F08F02D
:1030C0009927EE0F9795879508950E9479180C948B
:1030D00061190E945A1958F00E94531940F029F4BE
:1030E0005F3F29F00C944A1951110C9495190C94D6
:1030F00050190E94721968F39923B1F3552391F383
:10310000951B550BBB27AA2762177307840738F056
:103110009F5F5F4F220F331F441FAA1FA9F335D0B3
:103120000E2E3AF0E0E832D091505040E695001C67
:10313000CAF72BD0FE2F29D0660F771F881FBB1F21
:10314000261737074807AB07B0E809F0BB0B802DFF
:10315000BF01FF2793585F4F3AF09E3F510578F02B
:103160000C944A190C9495195F3FE4F3983ED4F3FC
:10317000869577956795B795F7959F5FC9F7880FFF
:10318000911D9695879597F90895E1E0660F771F51
:10319000881FBB1F621773078407BA0720F0621BE2
:1031A000730B840BBA0BEE1F88F7E09508950E940D
:1031B000DE186894B1110C94951908950E947A193B
:1031C00088F09F5798F0B92F9927B751B0F0E1F0E8
:1031D000660F771F881F991F1AF0BA95C9F714C098
:1031E000B13091F00E949419B1E008950C949419B3
:1031F000672F782F8827B85F39F0B93FCCF38695D1
:1032000077956795B395D9F73EF49095809570952D
:1032100061957F4F8F4F9F4F0895E89409C097FBAA
:103220003EF490958095709561957F4F8F4F9F4F9D
:103230009923A9F0F92F96E9BB279395F6958795E1
:1032400077956795B795F111F8CFFAF4BB0F11F4A4
:1032500060FF1BC06F5F7F4F8F4F9F4F16C088234B
:1032600011F096E911C0772321F09EE8872F762F81
:1032700005C0662371F096E8862F70E060E02AF0C2
:103280009A95660F771F881FDAF7880F96958795AE
:1032900097F9089597F99F6780E870E060E00895D6
:1032A0009FEF80EC089500240A941616170618065E
:1032B0000906089500240A9412161306140605063A
:1032C0000895092E0394000C11F4882352F0BB0FCB
:1032D00040F4BF2B11F460FF04C06F5F7F4F8F4F2E
:1032E0009F4F089557FD9058440F551F59F05F3F69
:1032F00071F04795880F97FB991F61F09F3F79F018
:1033000087950895121613061406551FF2CF469599
:10331000F1DF08C0161617061806991FF1CF86951B
:103320007105610508940895E894BB2766277727FF
:10333000CB0197F908950E94AE190C9461190E946F
:10334000531938F00E945A1920F0952311F00C946B
:103350004A190C94501911240C9495190E94721951
:1033600070F3959FC1F3950F50E0551F629FF001D8
:10337000729FBB27F00DB11D639FAA27F00DB11DF1
:10338000AA1F649F6627B00DA11D661F829F22277A
:10339000B00DA11D621F739FB00DA11D621F839F01
:1033A000A00D611D221F749F3327A00D611D231FD7
:1033B000849F600D211D822F762F6A2F11249F5725
:1033C00050409AF0F1F088234AF0EE0FFF1FBB1F28
:1033D000661F771F881F91505040A9F79E3F5105E7
:1033E00080F00C944A190C9495195F3FE4F3983ED1
:1033F000D4F3869577956795B795F795E7959F5F91
:10340000C1F7FE2B880F911D9695879597F9089522
:1034100081E090E0F8940C94441DDC0101C06D93B0
:1034200041505040E0F70895AEE0B0E0EAE1FAE143
:103430000C941B1D0D891E8986E08C831A830983D9
:103440008FEF9FE79E838D83AE01475E5F4F6F894D
:10345000788DCE0101960E94371A2F813885F801A8
:10346000E20FF31F10822E96E4E00C94371DACE0BF
:10347000B0E0EDE3FAE10C940D1D7C016B018A01D3
:10348000FC0117821682838181FFBDC1CE010196A6
:103490004C01F7019381F60193FD859193FF819192
:1034A0006F01882309F4ABC1853239F493FD85910E
:1034B00093FF81916F01853229F4B70190E00E945A
:1034C0001F1CE7CF512C312C20E02032A0F48B328E
:1034D00069F030F4803259F0833269F420612CC0F5
:1034E0008D3239F0803339F4216026C022602460A7
:1034F00023C0286021C027FD27C030ED380F3A30A7
:1035000078F426FF06C0FAE05F9E300D1124532E9A
:1035100013C08AE0389E300D1124332E20620CC077
:103520008E3221F426FD6BC1206406C08C3611F466
:10353000206802C0883641F4F60193FD859193FF1F
:1035400081916F018111C1CF982F9F7D9554933048
:1035500028F40C5F1F4FFFE3F9830DC0833631F071
:10356000833771F0833509F05BC022C0F801808198
:1035700089830E5F1F4F44244394512C540115C07E
:103580003801F2E06F0E711CF801A080B18026FFB7
:1035900003C0652D70E002C06FEF7FEFC5012C877F
:1035A0000E94141C2C0183012C852F77222E17C01A
:1035B0003801F2E06F0E711CF801A080B18026FF87
:1035C00003C0652D70E002C06FEF7FEFC5012C874F
:1035D0000E94091C2C012C852068222E830123FCCB
:1035E0001BC0832D90E048165906B0F4B70180E265
:1035F00090E00E941F1C3A94F4CFF50127FC8591BE
:1036000027FE81915F01B70190E00E941F1C3110DD
:103610003A94F1E04F1A51084114510471F7E5C092
:10362000843611F0893639F5F80127FF07C060812B
:103630007181828193810C5F1F4F08C0608171810D
:10364000072E000C880B990B0E5F1F4F2F76722EE2
:1036500097FF09C090958095709561957F4F8F4F2A
:103660009F4F2068722E2AE030E0A4010E94571C70
:10367000A82EA81844C0853729F42F7EB22E2AE040
:1036800030E025C0F22FF97FBF2E8F36C1F018F43D
:10369000883579F0B4C0803719F0883721F0AFC091
:1036A0002F2F2061B22EB4FE0DC08B2D8460B82E5A
:1036B00009C024FF0AC09F2F9660B92E06C028E0DB
:1036C00030E005C020E130E002C020E132E0F80146
:1036D000B7FE07C060817181828193810C5F1F4FAB
:1036E00006C06081718180E090E00E5F1F4FA401F1
:1036F0000E94571CA82EA818FB2DFF777F2E76FE60
:103700000BC0372D3E7FA51450F474FE0AC072FC26
:1037100008C0372D3E7E05C0BA2C372D03C0BA2C09
:1037200001C0B52C34FF0DC0FE01EA0DF11D8081F2
:10373000803311F4397E09C032FF06C0B394B394CC
:1037400004C0832F867809F0B39433FD13C030FF93
:1037500006C05A2CB31418F4530C5B18B32CB314D2
:1037600068F4B70180E290E03C870E941F1CB3948C
:103770003C85F5CFB31410F43B1801C0312C34FF55
:1037800012C0B70180E390E03C870E941F1C3C857B
:1037900032FF17C031FD03C088E790E002C088E522
:1037A00090E0B7010CC0832F867859F031FF02C03A
:1037B0008BE201C080E237FD8DE2B70190E00E940C
:1037C0001F1CA51438F4B70180E390E00E941F1C71
:1037D0005A94F7CFAA94F401EA0DF11D8081B70144
:1037E00090E00E941F1CA110F5CF332009F451CEA8
:1037F000B70180E290E00E941F1C3A94F6CFF701D7
:103800008681978102C08FEF9FEF2C96E2E10C94A6
:10381000291DFC010590615070400110D8F780957A
:1038200090958E0F9F1F0895FC016150704001908C
:103830000110D8F7809590958E0F9F1F08950F93D4
:103840001F93CF93DF93FB01238121FD03C08FEFF3
:103850009FEF28C022FF16C0468157812481358101
:103860004217530744F4A081B1819D012F5F3F4F60
:10387000318320838C93268137812F5F3F4F37839D
:10388000268310C0EB01092F182F0084F185E02D4D
:103890000995892BE1F68E819F8101969F838E8306
:1038A000812F902FDF91CF911F910F910895FA01F1
:1038B000AA27283051F1203181F1E8946F936E7F6F
:1038C0006E5F7F4F8F4F9F4FAF4FB1E03ED0B4E060
:1038D0003CD0670F781F891F9A1FA11D680F791FA1
:1038E0008A1F911DA11D6A0F711D811D911DA11DB2
:1038F00020D009F468943F912AE0269F11243019C2
:10390000305D3193DEF6CF010895462F4770405D5C
:103910004193B3E00FD0C9F7F6CF462F4F70405D0B
:103920004A3318F0495D31FD4052419302D0A9F766
:10393000EACFB4E0A6959795879577956795BA9560
:10394000C9F700976105710508959B01AC010A2E26
:1039500006945795479537952795BA95C9F7620FFD
:10396000731F841F951FA01D0895F999FECF92BD66
:1039700081BDF89A992780B50895052E97FB1EF40E
:1039800000940E94D41C57FD07D00E94DC1C07FC49
:1039900003D04EF40C94D41C50954095309521954D
:1039A0003F4F4F4F5F4F089590958095709561956B
:1039B0007F4F8F4F9F4F0895A1E21A2EAA1BBB1B6A
:1039C000FD010DC0AA1FBB1FEE1FFF1FA217B307EB
:1039D000E407F50720F0A21BB30BE40BF50B661F01
:1039E000771F881F991F1A9469F7609570958095C5
:1039F00090959B01AC01BD01CF010895A29FB0013C
:103A0000B39FC001A39F700D811D1124911DB29F12
:103A1000700D811D1124911D08952F923F924F9298
:103A20005F926F927F928F929F92AF92BF92CF924E
:103A3000DF92EF92FF920F931F93CF93DF93CDB757
:103A4000DEB7CA1BDB0B0FB6F894DEBF0FBECDBFCF
:103A500009942A88398848885F846E847D848C84A0
:103A60009B84AA84B984C884DF80EE80FD800C81A9
:103A70001B81AA81B981CE0FD11D0FB6F894DEBF8C
:0C3A80000FBECDBFED010895F894FFCFFC
:103A8C00FFFFFFFF00E1000000000000010000004C
:103A9C0000C18081000000000000001509A40E3652
:103AAC0009210A3F0A2B0900000000D9077E0525D1
:103ABC006400204F48204E4F2100707265737320B4
:103ACC005B415D20746F20726574727900204855DB
:103ADC004D414E495459205052455641494C532161
:103AEC00005B415D20746F20706C617920616761AF
:043AFC00696E0000EF
:00000001FF
