:1000000079C500009EC500009CC500009AC500008F
:1000100098C5000096C5000094C5000092C5000078
:1000200090C500008EC500000C94C70F0C946A0E9A
:1000300088C5000086C5000084C5000082C5000098
:1000400080C500000C940A187CC500007AC5000029
:1000500078C5000076C5000074C500000C946B0BD9
:1000600070C500006EC500006CC500006AC50000C8
:1000700068C5000066C5000064C5000062C50000D8
:100080000C947D185EC500005CC500005AC50000D8
:1000900058C5000056C5000054C5000052C50000F8
:1000A00050C500004EC500004CC50000D819DD1930
:1000B000E219EC19F619401A401A401A001A0A1AE5
:1000C000141A1E1A2B1A401A331A601A631A521A7B
:1000D000561A5C1A841A841A841A671A6B1A6F1AD1
:1000E000751A791A841A7F1A0000000000000000B7
:1000F0000000000000000000000000000000000000
:100100000000000000007EF8F0E0E0F0F0F8F8F801
:10011000F8F0F0F0E0E0C0C080C0F0A8D8A8F8F88F
:10012000F8F8F8F0000001030303030303030303DB
:100130000303030303030301030303030303030391
:10014000030100000000011F170301030F08000056
:1001500000000000000000000000010F0B0101037F
:100160001F10000000000000000000000000011F40
:10017000170301031F100000000000000000000032
:100180000000000000000000FEFFFBFFFFBFBFBF3C
:100190003F3E7EF8F0E0E0F0F8FCFEFFFFFFFF7F5F
:1001A000040C000000000000010303030303030329
:1001B000030301000000000000001C222222241082
:1001C000122A21414141424A24241800000000FE25
:1001D000FFFFFE00C0C080FEFFFE00FFFFFFFFC06C
:1001E000FFFF7F01030383FFFFFFFF80000000008C
:1001F000000000C060B050282C148A8AA5A5A5A5CF
:10020000A5A5A5A5A5A5A5A5A58A8A142C2850B0A5
:1002100060C000000000C038C63B040300000000BE
:10022000C16232FA0AFA32624202426232FA0AFACF
:100230003262C10000000003043BC638C0FF00FF6B
:10024000000000000000000183708F700D057D7DAF
:10025000057D7D050D708F7083010000000000009A
:1002600000FF00FF000718275CB0E000C030CE316F
:100270000E01000101FFFF01FFFF010100010E312E
:10028000CE30C000E0B05C2718070000000000007E
:1002900000000E0906010000000000000000000040
:1002A000000000000000000106090E000000000030
:1002B0000000FE01FE02858505C5B9C23C000000B4
:1002C000FE01FE0000000000FE01FE00000000FE36
:1002D000017E4040404080FE01FE00000000FE0123
:1002E000FE02858505C5BBC67C000000000000FE3F
:1002F00001FE0000001C265A97A0A3A545CB8A0C3E
:100300003F403F0102050B162C5830000000011B36
:10031000292850505028271807000000003F403F70
:1003200001010101003F403F000000003F403F014C
:1003300002050B162C583000002050502827100FB3
:100340000000000C142C285050601B34390F12018F
:100350000002EF0201404123368000010102030147
:10036000120100020000004041233680000101021A
:10037000030141726475696E6F204C4C43004172F9
:100380006475696E6F204C656F6E6172646F0004F6
:10039000030904080B000202020100090400000125
:1003A00002020000052400100105240101010424BB
:1003B0000206052406000107058103100040090418
:1003C0000100020A000000070502024000000705C4
:1003D0008302400000F0F89C8E8783878E9CF8F0A3
:1003E0000000FEFF0303030303070EFCF80000FEFA
:1003F000FF0303030303070EFCF80000FFFF0000E8
:100400000000000000FFFF0000FEFF838383838362
:10041000C7EE7C380000F8FC0E07030303070EFC50
:10042000F800003F7FE0C08080C0E07F3FFFFF0119
:10043000010101010101FFFF0000FFFF0C0C0C0C8A
:100440001C3E77E3C100007FFFC0C0C0C0C0E070A9
:100450003F1F00001F3F70E0C0C0C0E0703F1F00A2
:10046000007FFFC1C1C1C1C1E3773E1C00001F3F37
:1004700070E0C0C0C0E0703F1F000000000001FF3E
:10048000FF0100000000000000003E5B4F5B3E3EAD
:100490006B4F6B3E1C3E7C3E1C183C7E3C181C5730
:1004A0007D571C1C5E7F5E1C00183C1800FFE7C3D4
:1004B000E7FF0018241800FFE7DBE7FF30483A06A3
:1004C0000E2629792926407F050507407F05253F0F
:1004D0005A3CE73C5A7F3E1C1C08081C1C3E7F14FB
:1004E000227F22145F5F005F5F06097F017F006645
:1004F00089956A606060606094A2FFA29408047E9F
:10050000040810207E201008082A1C08081C2A084D
:10051000081E101010100C1E0C1E0C30383E383007
:10052000060E3E0E06000000000000005F00000006
:1005300007000700147F147F14242A7F2A12231334
:1005400008646236495620500008070300001C2248
:1005500041000041221C002A1C7F1C2A08083E087A
:10056000080080703000080808080800006060007B
:1005700020100804023E5149453E00427F4000726F
:10058000494949462141494D331814127F102745E6
:100590004545393C4A494931412111090736494904
:1005A0004936464949291E00001400000040340025
:1005B00000000814224114141414140041221408D9
:1005C00002015909063E415D594E7C1211127C7F91
:1005D000494949363E414141227F4141413E7F499F
:1005E0004949417F090909013E414151737F08088A
:1005F000087F00417F41002040413F017F081422D5
:10060000417F404040407F021C027F7F0408107FF2
:100610003E4141413E7F090909063E4151215E7F2D
:1006200009192946264949493203017F01033F4000
:1006300040403F1F2040201F3F4038403F63140888
:10064000146303047804036159494D43007F414119
:10065000410204081020004141417F0402010204CC
:100660004040404040000307080020545478407F39
:10067000284444383844444428384444287F385473
:1006800054541800087E090218A4A49C787F08041A
:10069000047800447D40002040403D007F10284405
:1006A0000000417F40007C047804787C08040478D2
:1006B0003844444438FC1824241818242418FC7C9A
:1006C00008040408485454542404043F44243C407F
:1006D00040207C1C2040201C3C4030403C442810E2
:1006E00028444C9090907C4464544C44000836411B
:1006F00000000077000000413608000201020402F9
:100700003C2623263C1EA1A161123A4040207A38A3
:100710005454555921555579412154547841215506
:1007200054784020545579400C1E52721239555558
:100730005559395454545939555454580000457C2E
:10074000410002457D420001457C40F0292429F00A
:10075000F0282528F07C545545002054547C547CC6
:100760000A097F4932494949323248484832324AB7
:100770004848303A4141217A3A42402078009DA0D1
:10078000A07D39444444393D4040403D3C24FF2451
:1007900024487E4943662B2FFC2F2BFF0929F62086
:1007A000C0887E090320545479410000447D4130C3
:1007B00048484A32384040227A007A0A0A727D0D4F
:1007C00019317D2629292F28262929292630484D07
:1007D0004020380808080808080808382F10C8AC56
:1007E000BA2F102834FA00007B000008142A1422C3
:1007F00022142A14089500220095AA005500AAAADE
:1008000055AA55AA000000FF00101010FF00141494
:1008100014FF001010FF00FF1010F010F01414145B
:10082000FC001414F700FF0000FF00FF1414F40490
:10083000FC141417101F10101F101F1414141F0085
:10084000101010F0000000001F101010101F1010EA
:100850001010F010000000FF1010101010101010F9
:1008600010FF10000000FF140000FF00FF00001F39
:1008700010170000FC04F414141710171414F404D7
:10088000F40000FF00F714141414141414F700F704
:10089000141414171410101F101F141414F414102F
:1008A00010F010F000001F101F0000001F140000C7
:1008B00000FC140000F010F01010FF10FF141414CE
:1008C000FF141010101F00000000F010FFFFFFFFCA
:1008D000FFF0F0F0F0F0FFFFFF0000000000FFFF6E
:1008E0000F0F0F0F0F38444438447C2A2A3E147EE1
:1008F00002020606027E027E0263554941633844C5
:10090000443C04407E201E2006027E020299A5E798
:10091000A5991C2A492A1C4C7201724C304A4D4D33
:10092000303048784830BC625A463D3E494949001B
:100930007E0101017E2A2A2A2A2A44445F44444037
:10094000514A444040444A51400000FF0103E080C6
:10095000FF000008086B6B083612362436060F09B4
:100960000F06000018180000001010003040FF01B2
:1009700001001F01011E00191D1712003C3C3C3CE8
:10098000000000000006011501260137014A015D43
:1009900001720188019F01B801D201EE010B022A08
:1009A000024B026E029302BA02E40210033F03708C
:1009B00003A403DC03170455049704DD042705751D
:1009C00005C80520067D06E0064907B8072D08A9D9
:1009D000082D09B9094D0AEA0A900B400CFA0CC01F
:1009E0000D910E6F0F5A1053115B1272139A14D49B
:1009F0001520178018F519801B231DDE1EB420A6B4
:100A000022B524E4263429A72B402E0031EA3300F6
:100A100037453ABC3D68414C456B49C84D68524F1B
:100A200057805C006210111213151617181A1C1D3E
:100A30001F21232527292C2E3134373A3E414549A1
:100A40004E52575C62686E757B838B939CA5AFB9E1
:100A5000C4D0DCE9F70301D5F08D14A1C881CFD94A
:100A6000F1AF20001402130212021502070208025D
:100A700004010C010601000000000200090F000043
:100A8000030401000C000000000000000000000052
:100A90000000000000000408020110408040102007
:100AA0004080408008020401804020100201108034
:100AB0001020404020040404040403040502020240
:100AC00002040302020202060606060606040402E7
:100AD0000202040400000000250028002B002E0064
:100AE000310000000000240027002A002D00300003
:100AF000D90A341111241FBECFEFDAE0DEBFCDBF1B
:100B000011E0A0E0B1E0E4EAFDE302C005900D923F
:100B1000A635B107D9F726E0A6E5B1E001C01D92E0
:100B2000A432B207E1F71AE0C4EFDAE004C022977A
:100B3000FE010E948C1BC03FD107C9F7BED50C94A3
:100B4000D01E5ECA2F923F924F925F926F927F9219
:100B50008F929F92AF92BF92CF92DF92EF92FF92CD
:100B60000F931F93CF93DF9300D000D0CDB7DEB7A4
:100B700058EFA52EBB24BA9488E791E00E94DC12BE
:100B8000CC24C39434E2E32E07E22FEE31E040E0C0
:100B900050E06CE270E088E791E00E94DE124FE0E6
:100BA000E42E0EE422EB32E0A50169E170E088E773
:100BB00091E00E94DE1288E791E00E94B51560E1A5
:100BC00070E080E090E0F4D522E0A20EB11C88E253
:100BD000A816B10489F628E730E040E050E06BED5C
:100BE00073E08CE791E00E94941768E770E080E082
:100BF00090E0DED520E931E040E050E066E275E0CB
:100C00008CE791E00E94941747E350E06AE270E0BD
:100C100088E791E00E94AC1567E171E088E791E018
:100C200009D588E791E00E94B51568EE73E080E091
:100C300090E0BED5C12C92E1E92E04E12EE731E02F
:100C40004BE050E064E370E088E791E00E94DE1240
:100C50002EE731E04DE050E067E370E088E791E097
:100C60000E94DE1220E1822E912CA12CB12CF401E5
:100C70007097FC83EB8322E030E040E050E060E0DE
:100C800070E0CB01FCD46B017C0122E030E040E05D
:100C900050E060E070E0CB01F2D41B012C01CB01ED
:100CA0000B969A838983360195E3690E711CCC24D7
:100CB000C39402E1E02E04E12EE731E049815A813C
:100CC000B30188E791E00E94DE12A101435E5F4F0D
:100CD00085E0E82E2AE631E0B30188E791E00E9442
:100CE000DE1288E791E00E94B515C501B40160D518
:100CF0004B805C80E1E04E225524FB814B815C817E
:100D0000F0FF03C0559547950AC057FF03C0A401E3
:100D10004F505109559547955195419551098981F4
:100D20009A81480F591F6B817C814114510419F03D
:100D30007595679509C077FF02C06F5F7F4F759506
:100D40006795719561957109660D771DC12CE2E17A
:100D5000EE2E04E12EE731E088E791E00E94DE12FA
:100D60004B815C814114510419F05595479509C098
:100D700057FF02C04F5F5F4F55954795519541957D
:100D80005109E981FA814E0F5F1F452829F06B81D7
:100D90007C81759567950AC08B819C8197FD019632
:100DA0009595879566277727681B790B660D771DC4
:100DB000C12C92E1E92E04E12AE631E088E791E0D6
:100DC0000E94DE1288E791E00E94B5156EE270E0A5
:100DD00080E090E0681979098A099B09E9D4FFEF5E
:100DE0008F1A9F0AAF0ABF0A2CE182169104A10450
:100DF000B10409F03CCF0CE0802E912C8AE0A82EA3
:100E0000B12C88E791E00E94DC12CC24C394B4E2B8
:100E1000EB2E07E22FEE31E040E050E06CE270E0B4
:100E200088E791E00E94DE121FE0E12E0EE422EB43
:100E300032E046E250E069E170E088E791E00E942C
:100E4000DE1247E350E06AE270E088E791E00E943A
:100E5000AC1560E271E088E791E0ECD381E288169E
:100E6000910424F0A401495E5F4F02C047E350E0C3
:100E700066E370E088E791E00E94AC1569E271E0FA
:100E800088E791E0D7D3A40141505109C12CF2E188
:100E9000EF2E04E12EE731E064E370E088E791E0B3
:100EA0000E94DE12A4014F5F5F4F2EE731E067E33F
:100EB00070E088E791E00E94DE12CC24C3942EE714
:100EC00031E0A40166E370E088E791E00E94DE1261
:100ED000A4014E5E5F4FA5E0EA2E2AE631E066E30C
:100EE00070E088E791E00E94DE1288E791E00E94BE
:100EF000B51560E170E080E090E05AD4C401B5011E
:100F00000E94391B6F5F7F4F860E971E99E28916EC
:100F100091040CF476CF24E130E040E050E066EF3D
:100F200070E08CE791E00E94941764E170E080E04B
:100F300090E03ED428E230E040E050E06EEA70E01D
:100F40008CE791E00E94941760ED77E080E090E0FC
:100F50002FD4EFE78E2E912C612C712CE0E26E16CF
:100F6000710424F4A301440F551F01C0A401E12C16
:100F70008A012FE730E060E070E088E791E00E94AE
:100F80004512C301F7E36F16710414F086E390E095
:100F900026E3A22EB12CA81AB90ACC24C39432E1BC
:100FA000E32E04E12EE731E048E250E0B50188E7A6
:100FB00091E00E94DE1245E0E42E2AE631E04AE3A9
:100FC00050E0B50188E791E00E94DE1288E791E0E9
:100FD0000E94B515C12C52E1E52E2EE731E048E222
:100FE00050E0B50188E791E00E94DE1265E0E62E50
:100FF0002AE631E04AE350E0B50188E791E00E943B
:10100000DE1260E170E080E090E0D2D32FEF621A50
:10101000720A82E0881A910890E46916710409F056
:101020009DCF0F900F900F900F90DF91CF911F9158
:101030000F91FF90EF90DF90CF90BF90AF909F9077
:101040008F907F906F905F904F903F902F9008957A
:1010500088E791E00E9477146CE388E791E00E94B2
:10106000151270DD109265011092640110926301F7
:101070001092620182E090E09093610180936001A0
:1010800010925F0110925E0110925D0110925C015E
:10109000109259011092580110925B0110925A015E
:1010A00082E890E090935701809356010895CF9283
:1010B000EF920F931F93CF93DF9380915A019091FA
:1010C0005B01892B39F468E088E791E00E94B7154D
:1010D000811114C08091580190915901892BA9F078
:1010E00068E088E791E00E94B715882371F0DF91EE
:1010F000CF911F910F91EF90CF90AACF81E090E018
:1011000090935B0180935A01E5CF80917601909195
:101110007701019681382EE3920708F4C9C1109235
:1011200077011092760180915A0190915B01892B91
:1011300009F44DC0809162019091630101969093F2
:1011400063018093620105970CF0B7C120915601AD
:1011500030915701225031098091640190916501CD
:1011600064E670E00E94391B8091760190917701CE
:1011700081709927689FA001699F500D789F500D3D
:101180001124241B350B3093570120935601213F26
:101190003F4FECF42CE330E040E050E060E070E0E2
:1011A000CB016DD220915601309157018901222740
:1011B00017FD2095322F64577F4F8F4F9F4F060F9B
:1011C000171F281F391F1093570100935601809154
:1011D0005C0190915D01892B09F07DC168E088E791
:1011E00091E00E94B715882309F475C181E090E071
:1011F00090935D0180935C0185E090E090935F01A6
:1012000080935E0128E230E040E050E068EB71E05E
:101210008CE791E00E9494178091580190915901B8
:10122000892B99F48091560190915701099649971D
:1012300060F480915C0190915D010E9734F481E03F
:1012400090E09093590180935801809158019091BA
:1012500059010097D1F18130910539F420E530E052
:1012600040E050E066EF70E008C0069751F428ECCB
:1012700030E040E050E06EEA70E08CE791E00E94E0
:1012800094178091580190915901019690935901BA
:101290008093580180915E0190915F018D3F2FEF07
:1012A00092077CF0019790935F0180935E0180919B
:1012B00056019091570101979093570180935601E1
:1012C00004C010925B0110925A0188E791E00E94DD
:1012D000DC1240E050E060E070E088E791E00E94BE
:1012E000AC15809165018F93809164018F938DE29D
:1012F00091E09F938F9386E691E09F938F930E9456
:10130000031C66E671E088E791E094D1E09160010A
:10131000F0916101809164019091650120E830E0D5
:10132000B9010E94391BB901681B790BCC24C39405
:10133000C7E0EC2E01E12AEB31E0AF0188E791E054
:101340000E94DE1280916401909165018F77992748
:101350000F900F900F900F900F900F90892B61F4CA
:101360002AE030E040E050E060E070E0CB0187D15F
:10137000709361016093600180915E0190915F01C3
:10138000EE24E3940CE310E005973CF02FE730E007
:101390004CE350E060E070E010C023E030E04CE34C
:1013A00050E060E070E088E791E00E9445122FE78E
:1013B00030E04CE350E06CE070E088E791E00E94A0
:1013C00045126091560170915701CC24C394B8E145
:1013D000EB2E0CE02BEC31E048E250E088E791E0A6
:1013E0000E94DE12C0915E01D0915F0148E250E0A0
:1013F0004C1B5D0B8091580190915901892B31F064
:10140000A2E1EA2E0EE128EE30E03DC0CC24C394E8
:10141000F2E1EF2E04E12EE731E060E070E088E7D2
:1014200091E00E94DE1280915A0190915B01892B1C
:10143000F9F080915E0190915F01892BC9F4809150
:10144000760190917701877099274AE350E04C1B11
:101450005D0B049728F0E5E0EE2E26E531E013C0A1
:10146000CC24C39475E0E72E04E122E431E00BC004
:101470004AE350E04C1B5D0BCC24C39465E0E62EA0
:1014800004E12AE631E060E070E088E791E00E9444
:10149000DE1288E791E00E94B51560E170E080E01F
:1014A00090E0DF91CF911F910F91EF90CF9080C18D
:1014B000909377018093760136CE1092630110925B
:1014C000620180916401909165010196909365019C
:1014D000809364013BCE80915C0190915D01009707
:1014E00009F49ACE039751F420E530E040E050E053
:1014F00060E773E08CE791E00E94941780915C01B3
:1015000090915D01019690935D0180935C0186301E
:10151000910534F480915E0190915F01069641C07F
:101520008930910534F480915E0190915F010296BB
:1015300038C08D30910534F480915E0190915F0147
:1015400001962FC080319105B9F382319105A1F345
:101550008431910519F08631910531F480915E0155
:1015600090915F0101971DC0873291054CF0109258
:101570005F0110925E0110925D0110925C014CCEF1
:101580008132910534F080915E0190915F01069760
:1015900008C08E31910554F080915E0190915F01F9
:1015A000029790935F0180935E0136CE4A97B4F61E
:1015B00033CE88E791E010C7CF92DF92EF92FF928F
:1015C0000F931F93CF93DF937C016A01EB0100E03F
:1015D00010E00C151D0571F06991D701ED91FC919A
:1015E0000190F081E02DC7010995892B19F00F5F5B
:1015F0001F4FEFCFC801DF91CF911F910F91FF9047
:10160000EF90DF90CF9008956115710581F0DB01B7
:101610000D900020E9F7AD0141505109461B570BD1
:10162000DC01ED91FC910280F381E02D099480E0D2
:1016300090E00895E9CFCF93DF9300D000D0CDB7ED
:10164000DEB79B01AC01611571058105910569F05B
:1016500069833A834B835C830E94F31B29813A811F
:101660004B815C810E946E1B03C060E070E0CB0187
:101670000F900F900F900F90DF91CF910895CF9220
:10168000DF92EF92FF926B017C0162177307840770
:1016900095075CF4CA01B9016C197D098E099F098F
:1016A000CADF6C0D7D1D8E1D9F1DFF90EF90DF909A
:1016B000CF9008950E94FF1B08959FD0FDDF8BE916
:1016C00095E0E7D4C5DCC0E0D0E0F1DC2097E9F399
:1016D0000E940000FACF1F920F920FB60F921124B2
:1016E0002F933F938F939F93AF93BF9380919305D5
:1016F00090919405A0919505B09196053091920531
:1017000023E0230F2D3720F40196A11DB11D05C044
:1017100026E8230F0296A11DB11D20939205809308
:10172000930590939405A0939505B09396058091A9
:10173000970590919805A0919905B0919A05019609
:10174000A11DB11D8093970590939805A0939905CD
:10175000B0939A05BF91AF919F918F913F912F9137
:101760000F900FBE0F901F9018953FB7F89480917F
:10177000970590919805A0919905B0919A0526B585
:10178000A89B05C02F3F19F00196A11DB11D3FBFB9
:101790006627782F892F9A2F620F711D811D911D49
:1017A00042E0660F771F881F991F4A95D1F7089569
:1017B000CF92DF92EF92FF92CF93DF936B017C0188
:1017C000D4DFEB01C114D104E104F10479F073D446
:1017D000CCDF6C1B7D0B683E7340A0F381E0C81A20
:1017E000D108E108F108C851DC4FECCFDF91CF916F
:1017F000FF90EF90DF90CF900895789484B5826049
:1018000084BD84B5816084BD85B5826085BD85B5A4
:10181000816085BDEEE6F0E0808181608083E1E853
:10182000F0E010828081826080838081816080838B
:10183000E0E8F0E0808181608083E1E9F0E0808190
:1018400082608083808181608083E0E9F0E0808134
:1018500081608083E1ECF0E080818460808380811E
:1018600082608083808181608083E3ECF0E080810E
:1018700081608083E0ECF0E0808182608083E2EC34
:10188000F0E0808181608083EAE7F0E0808184601D
:101890008083808182608083808181608083808179
:1018A000806880830895615030F02091F100FC0140
:1018B00020830196F8CF289884E68093A4050895A4
:1018C00040919F055091A00520919D0530919E0566
:1018D00042175307B4F49091E8009570E1F39091AA
:1018E000E80092FD19C08093F10080919F059091CE
:1018F000A00501968F739927892B19F48EEF809399
:10190000E80080919F059091A00501969093A00515
:1019100080939F0581E0089580E00895CF92DF9243
:10192000EF92FF920F931F93CF93DF931F92CDB748
:10193000DEB7082F162FF42E862F880F8E5F99831F
:10194000BFDF83E0BDDFE02EC02E9981D92E8C2D24
:101950008E19811788F4F601F7FE02C0849101C048
:101960008081AEDF082F80E0ABDF8023FFEFCF1A4E
:10197000DF0A8111ECCF01C081E00F90DF91CF91A0
:101980001F910F91FF90EF90DF90CF90089580917D
:10199000D70081608093D70080EA8093D80089B512
:1019A000806189BD89B5826089BD09B400FEFDCF23
:1019B00061E070E080E090E0FBDE8091D8008F7CF9
:1019C00080618093D8008091E000807F8093E00068
:1019D0000895CF93DF931F92CDB7DEB71982CE0162
:1019E0000196C1D3E5D4BE016F5F7F4F5AD4898180
:1019F0000F90DF91CF9108952FB7FC012083F894C9
:101A000067706093E9000895CF93DF931F92CDB77D
:101A1000DEB7682FCE010196EFDF8091F200998149
:101A20009FBF0F90DF91CF910895FF920F931F9367
:101A3000CF93DF9300D0CDB7DEB7F62E8A01909119
:101A4000A305992311F057FF03C08FEF9FEF2AC022
:101A5000682FCE0101967A83CFDF8091F20090E06B
:101A6000A8017A81801791070CF4AC01EF2DF72FB4
:101A7000F40E84E6FE1639F028988093A405909120
:101A8000F1009193F7CF4115510521F08091F200BB
:101A9000882321F089818FBFCA0104C08BE680931F
:101AA000E800F8CF0F900F90DF91CF911F910F9129
:101AB000FF900895CF93DF931F92CDB7DEB741E03B
:101AC00050E0BE016F5F7F4FB0DF019719F489814D
:101AD00090E002C08FEF9FEF0F90DF91CF910895BC
:101AE000CF93DF931F92CDB7DEB7682FCE0101965B
:101AF00083DF9091E800892F807295FF04C0909158
:101B0000F20080E4891B99819FBF0F90DF91CF91F4
:101B100008956F927F928F929F92AF92BF92CF92D1
:101B2000DF92EF92FF920F931F93CF93DF931F9259
:101B3000CDB7DEB7782E7B01C42EB52E8091A305DC
:101B4000882369F0042F152F8AEFD82E872D8072F5
:101B5000982E9AE3A92E872D8074882E0FC08FEFC0
:101B60009FEF54C0872DBCDF682E81110BC0DA9423
:101B7000B1F361E070E080E090E01ADE011511053C
:101B800089F73AC0282F30E0021713070CF4602EB3
:101B9000672DCE01019630DF8091E80085FF29C0D6
:101BA000262D30E0021B130B992039F06A948FEF39
:101BB0006816B1F01092F100F9CFF701862D77FE8B
:101BC00007C0815058F094919093F1003196F9CF6D
:101BD000815020F091919093F100FACFE20EF31E24
:101BE0008091E80085FF0FC00115110511F48110E7
:101BF0000AC089818FBFC2CF5D9884E68093A50516
:101C00008C2D9B2D03C0A092E800F3CF0F90DF91A5
:101C1000CF911F910F91FF90EF90DF90CF90BF90E9
:101C2000AF909F908F907F906F9008951092E900F1
:101C30001092A00510929F0590939E0580939D059C
:101C40000895CF92DF92FF920F931F93CF93DF936C
:101C500000D0CDB7DEB7F82E8A016B010115110552
:101C6000A9F0F601F7FE02C0849101C0808149838A
:101C70005A8326DE01501109FFEFCF1ADF0A49818E
:101C80005A818111EBCF8FEF9FEF01C0CA010F90F6
:101C90000F90DF91CF911F910F91FF90DF90CF9028
:101CA00008951F93CF93DF931F92CDB7DEB7162F02
:101CB0002091E80022FFFCCF612F7983F4DD8BEFC8
:101CC0008093E800812F7981972F0F90DF91CF913A
:101CD0001F9108951F920F920FB60F921124DF9259
:101CE000EF92FF920F931F932F933F934F935F9326
:101CF0006F937F938F939F93AF93BF93EF93FF93D4
:101D0000CF93DF93CDB7DEB76C97DEBFCDBF109218
:101D1000E9008091E80083FF12C168E0CE0145969A
:101D2000C2DD82EF8093E8003D8937FF05C08091D6
:101D3000E80080FFFCCF03C08EEF8093E800832F84
:101D4000807609F0E4C02E894F89D88C21110CC00F
:101D5000303829F48091A2058093F10002C01092DE
:101D6000F1001092F100E4C0842F90E09D29213011
:101D700049F43111DDC0019709F0DAC08091A20564
:101D80008D7F0AC0233059F43111D2C0019709F078
:101D9000CFC08091A20582608093A205C9C0253082
:101DA00041F48091E80080FFFCCF40684093E3005D
:101DB000BFC0263009F081C0EB8CFC8C22E0D2122F
:101DC00027C080E090E032DF04DE99E08E010F5FF3
:101DD0001F4FF801292F11922A95E9F79983DA828A
:101DE00091E09E8390EA98879AEF998720919F05CA
:101DF0003091A005275F3F4F3C832B838D83C70124
:101E000015DF49E050E0B80180E01BDFE2DD90C063
:101E1000C7010CDFCDD2BE016B5E7F4F6BD2009746
:101E200019F00CF085C088C081E0D8120EC08B8DEF
:101E30009C8D089719F481E080939C0580919C0506
:101E400081112CC060E673E02EC0E3E0DE1274C0A6
:101E50008F89882331F1823029F440E860E18EE7F0
:101E600093E01AC0813029F440E86BE082E793E008
:101E700013C0833009F060C09BD28E010F5F1F4FEB
:101E8000B80157D2F80101900020E9F73197E01B23
:101E9000F10B40E06E2FC80141DD48C06EE473E0F5
:101EA00002C06FE873E06115710509F445C0FB01DC
:101EB000449150E080E8C5DE3BC0273009F43CC0C7
:101EC000283021F481E08093F10032C0293081F57F
:101ED000337091F5E5E0F1E081E021E036E39081B7
:101EE000992361F08093E9002093EB009191909306
:101EF000EC003093ED008F5F873089F78EE7809399
:101F0000EA001092EA008F898093A30511C08B8D9F
:101F10009C8D8CDE898D811104C0CE0145962DD11A
:101F200005C046D2BE016B5E7F4F22D2882321F0CE
:101F30008EEF8093E80003C081E28093EB006C9603
:101F40000FB6F894DEBF0FBECDBFDF91CF91FF91EA
:101F5000EF91BF91AF919F918F917F916F915F9121
:101F60004F913F912F911F910F91FF90EF90DF9034
:101F70000F900FBE0F901F9018958093E9008091ED
:101F8000F200882319F08AE38093E80008951F92F5
:101F90000F920FB60F9211242F933F934F935F939D
:101FA0006F937F938F939F93AF93BF93CF93EF9351
:101FB000FF93C091E1008091E100837F8093E10075
:101FC0008093E100C3FF0FC01092E90081E080938D
:101FD000EB001092EC0082E38093ED001092A305D9
:101FE00088E08093F000C2FF18C083E0C6DF8091D4
:101FF000A505882339F08091A50581508093A5051A
:10200000882389F18091A405882339F08091A40563
:1020100081508093A405882341F1C4FF10C08091B2
:10202000E2008E7E81608093E2008091E1008F7EED
:102030008093E1008091A1058E7E806111C0C0FF78
:1020400016C08091E2008E7E80618093E2008091D4
:10205000E1008E7E8093E1008091A1058E7E8160FB
:102060008093A10504C05D9ACDCF289AD6CFFF9169
:10207000EF91CF91BF91AF919F918F917F916F9190
:102080005F914F913F912F910F900FBE0F901F9036
:1020900018951092A3051092A2051092A10577DC65
:1020A000E1EEF0E080818E7E80838DE08093E2001F
:1020B000559A209A08950895CF93DF931F92CDB734
:1020C000DEB76983DC01ED91FC910280F381E02DA4
:1020D00041E050E0BE016F5F7F4F09950F90DF91A7
:1020E000CF910895CF93DF93EC018C859D8597FF69
:1020F00004C082E0DFDC9D878C878C859D85DF9125
:10210000CF91089583E039CFFC018485958597FDB3
:1021100005C082E079DC90E00196089582E074DCED
:1021200090E00895FC018485958597FD05C02FEF0B
:102130003FEF35872487089582E0BCCCCF93DF93AF
:10214000EC0180911601882329F083E0E2DC181667
:10215000190634F081E090E09B838A8380E090E070
:10216000DF91CF910895FC0120812E5F208342E40E
:1021700050E063E973E080E864CDFC012181808157
:10218000813A51F4213209F05AC047E050E06FE043
:1021900071E080E056DD66C0813209F050C0233224
:1021A00089F4838190E0982F88273281832BA0E0E7
:1021B000B0E080930B0190930C01A0930D01B093BC
:1021C0000E010EC0203231F467E070E08FE091E044
:1021D00068DD0AC0223221F482818093160104C096
:1021E0002D7F203209F03EC080910F0190911001A7
:1021F000A0911101B0911201803B9440A105B1055D
:1022000001F58091160180FD1CC08091000890911D
:1022100001089093FF0A8093FE0A87E797E790935F
:102220000108809300082BE088E190E00FB6F89455
:10223000A895809360000FBE2093600013C080E0DB
:10224000089588E10FB6F8948093600010926000C2
:102250000FBEA8958091FE0A9091FF0A9093010805
:102260008093000881E008951092A9051092A805B6
:1022700088EE93E0A0E0B0E08093AA059093AB05D0
:10228000A093AC05B093AD0582E491E09093A705CF
:102290008093A6058FEF9FEF9093B3058093B205CF
:1022A0000895EF92FF920F931F93CF93DF937B01DB
:1022B000FC01C281D38100E010E0209781F0E88129
:1022C000F9810280F381E02DB701CE01099597FDD8
:1022D00008C0080F191F0884D985C02DEECFC8018A
:1022E00002C08FEF9FEFDF91CF911F910F91FF9071
:1022F000EF9008950F931F93CF93DF938B01FC0111
:10230000C281D381209771F0E881F9810480F58141
:10231000E02DB801CE010995009731F40884D985E4
:10232000C02DF0CF80E090E0DF91CF911F910F9111
:1023300008950F931F93CF93DF938B01FC01C2810C
:10234000D381209771F0E881F9810680F781E02D33
:10235000B801CE010995080F111D0884D985C02D3B
:10236000F0CFF8011082DF91CF911F910F91089566
:102370000F931F93CF93DF938B01FC01C281D38115
:10238000209771F0E881F9810190F081E02DB8018A
:10239000CE010995811106C00884D985C02DF0CFE2
:1023A00080E001C081E0DF91CF911F910F910895EE
:1023B0008091FA0581110DC082E08093F60584E0DA
:1023C0008093F7051092F9051092F80581E080934B
:1023D000FA0586EF95E00895CF93DF93EC018AE349
:1023E00091E0998388831B821A82CE01B0D682E560
:1023F00091E0998388838CE38E8380E189871886B6
:102400001F821E861F86188A198A1A8AFE01EC5EB0
:10241000FB4F11821082329611821082C85EDB4F10
:1024200081E08883DF91CF910895FC01668370E09D
:1024300088EE93E00E94391B61870895603871052A
:1024400018F54034510500F5E42FE695E695E6953C
:10245000F0E047705527F695FE2FEE27F795E795A4
:10246000E60FF71FE80FF91F81E090E0042E01C08E
:10247000880F0A94EAF7222319F09489982B03C055
:10248000809594899823948B08952F923F924F9230
:102490005F926F927F928F929F92AF92BF92CF92F4
:1024A000DF92EF92FF920F931F93CF93DF932C0154
:1024B000EB016A0159019801241B350B37FF03C05A
:1024C000319521953109C5018C1B9D0B97FF03C0E8
:1024D000919581959109FF24F3948217930714F045
:1024E000F12C0AC09A2D8B2D5801092F182F9C2FE3
:1024F0008D2FE601C92ED82EAC16BD0654F49C2DA6
:102500008D2D6801092F182F9C2F8D2FE501A92EE5
:10251000B82E15012C1A3D0A38016C187D0877FE7B
:1025200003C0719461947108410137FE03C08FEFBD
:10253000881A980A95948794C016D10614F401E07D
:1025400001C00FEF112707FD1095AC16BD06A4F0D2
:102550002E2DFF2019F0AE01B60102C0A601BE016A
:10256000C2016CDF8618970897FE04C0C00ED11E0A
:10257000820C931C2196E9CFDF91CF911F910F918F
:10258000FF90EF90DF90CF90BF90AF909F908F9093
:102590007F906F905F904F903F902F90089544965A
:1025A000B62FB111BFEFFC010024B193B193B193E9
:1025B000B1930394D1F7089560E0F1CF2F923F9249
:1025C0004F925F926F927F928F929F92AF92BF9243
:1025D000CF92DF92EF92FF920F931F93CF93DF93EF
:1025E00000D000D01F92CDB7DEB7C982202E312C8B
:1025F000FB01E20DF31DF7FD13C1603871050CF00E
:102600000FC1FA01EE0DF11DF7FD0AC1403451056D
:102610000CF006C1DA0157FF04C0AA27BB27A41B90
:10262000B50BFD01E770FF27FB83EA83FA0157FD35
:102630003796DF0113E0B595A7951A95E1F7BD83AD
:10264000AC8357FF0CC01197BD83AC8348E050E0CA
:10265000DA01EA81FB81AE1BBF0BBB83AA834E2D3F
:10266000469546954695C42ED12C4E2D477019F0AF
:10267000FFEFCF1ADF0A49014C815D815695542F37
:10268000442757954795480F591F2C813D81F8E005
:102690006F2E712C8A819B81681A790AC901AC81DD
:1026A000BD818A1B9B0B8C159D050CF0B9C0283091
:1026B000310509F4B5C02F3F9FEF39070CF4A3C0D3
:1026C000CB0100E010E0DA01A058BF4F2D01021548
:1026D00013050CF098C08038910509F494C097FD5B
:1026E0008EC02F3FBFEF3B0709F494C0D801A80D5F
:1026F000B91D7A01E80EF91EE981E13071F4FD019E
:10270000A491B0E00A8002C0AA0FBB1F0A94E2F7AE
:10271000F701B488AB29A48B28C0F981F11114C04A
:10272000FD01A491EA2FF0E00A8002C0EE0FFF1F26
:102730000A94E2F7E095F095D7015496AC9054973F
:10274000B12CEA21FB210FC0FD01A491EA2FF0E09A
:102750000A8002C0EE0FFF1F0A94E2F7D7015496D9
:10276000BC905497EB255496EC93AA81BB81AB2B7C
:1027700009F445C02730310509F441C0F801E80DDE
:10278000F91DB981B13089F4E491F0E0062C02C062
:10279000F595E7950A94E2F77201E80EF91ED70164
:1027A0005496BC905497EB2928C0B981B11115C03B
:1027B000E491F0E0062C02C0F595E7950A94E2F763
:1027C000E095F0957201E80EF91ED7015496AC9091
:1027D0005497B12CEA21FB2110C0E491F0E0062CC3
:1027E00002C0F595E7950A94E2F77201E80EF91E2A
:1027F000D7015496BC905497EB255496EC930F5FF9
:102800001F4F019664CF2F5F3F4F820C931C40589F
:102810005F4F44CFAA81BB81AB2B09F0AFCFEFCF85
:102820000F900F900F900F900F90DF91CF911F910D
:102830000F91FF90EF90DF90CF90BF90AF909F905F
:102840008F907F906F905F904F903F902F90089562
:102850008F929F92AF92BF92CF92EF920F931F935E
:10286000CF93DF935C01CEEEDFEF18E14C0184E102
:10287000880E911C20E040E0612F6C1BC50137D50C
:10288000C5019ADECC24C39400E1E02E08E525EDD5
:1028900033E0AE0164E170E0C50190DEC40105D50E
:1028A0006BE170E080E090E00E94D80BC03F31F413
:1028B0006AEF70E080E090E00E94D80B2196C93169
:1028C000D105C1F66EEE72E080E090E00E94D80B78
:1028D00020E040E060E0C501DF91CF911F910F91B2
:1028E000EF90CF90BF90AF909F908F9000C5CF9307
:1028F000DF93EC015FD41ED58078803839F4ECD4B6
:102900002FEF4FEF6FEFCE01F2D4FFCFCE01A0DF5C
:10291000249665E0CE01F1D16DE0CE01EED1DF91DC
:10292000CF9144C12F923F924F925F926F927F92CC
:102930008F929F92AF92BF92CF92DF92EF92FF92CF
:102940000F931F93CF93DF93CDB7DEB728970FB6C2
:10295000F894DEBF0FBECDBF9E838D832A01603801
:1029600071050CF06CC0403451050CF068C0CB010F
:10297000A5E0CA9E800D911D1124181619060CF0B1
:102980005EC0EC2DF0E0FC83EB83CA01F8E0CF9E43
:10299000800D911D1124181619060CF050C0A5E0E9
:1029A0002A9FC00111245B0118861F828B579B4F01
:1029B0009A838983BF81B53041F0E981FA818F81A3
:1029C0009885E80FF91F149101C010E0320128E04A
:1029D000D22E10FF02C0F02E01C0FE2CF1100BC051
:1029E000E01209C01695DA94AB81BC816A0E7B1E99
:1029F000D110EFCF18C01501822D8A198C1590F7D0
:102A00004301882D86198C1550F42F2DA401B10196
:102A10008D819E8113DDBFEF8B1A9B0AF2CFEFEF02
:102A20002E1A3E0AE9CF8F819885019698878F8369
:102A3000AB81BC81AA0EBB1E069709F0BBCF2896BE
:102A40000FB6F894DEBF0FBECDBFDF91CF911F91BF
:102A50000F91FF90EF90DF90CF90BF90AF909F903D
:102A60008F907F906F905F904F903F902F90089540
:102A70008F929F92AF92BF92CF92EF920F93CF938C
:102A8000DF93EC01262F6A3099F4FC01E85EFB4FDE
:102A9000208132978081918138E0239F800D911DA4
:102AA000112491838083CC5EDB4F198218824AC047
:102AB0006D3009F447C0FC01EA5EFB4F4081518153
:102AC0005C018CEEA81A8BEFB80AF5016081718168
:102AD0004E01F8EE8F1AFBEF9F0AF401C080E12C43
:102AE00001E0CE011FDFF4012081422F50E0F5010B
:102AF00080819181F6E02F9F800D911D1124F501B9
:102B000091838083359620812223E1F06AEF64036C
:102B10009001659F300D112420583F4F2817390729
:102B20008CF4E881F9810190F081E02D6AE0CE011A
:102B3000DF91CF910F91EF90CF90BF90AF909F908A
:102B40008F900994DF91CF910F91EF90CF90BF902C
:102B5000AF909F908F900895FC01EC5EFB4F7183C6
:102B60006083329651834083089544969EC3CF93E9
:102B7000DF931F92CDB7DEB76983DCD36981982FCD
:102B8000962381E0961380E00F90DF91CF91089516
:102B9000E4E6F0E08081877F8083E5E6F0E08081F5
:102BA000877F808381E080930206089510920F064C
:102BB00082E090E00E94E51D8111EACF0895CF9256
:102BC000DF92EF92FF921F93CF93DF9390911006C5
:102BD000891708F063C067FD61C0E82FF0E0EB5A89
:102BE000F54F1491E62FF0E0603330F4EB5DF54FD4
:102BF000E491CE2FD0E006C0EE0FFF1FEB5DF64F45
:102C0000C591D4916E01E12CF12C60E074E284EF67
:102C100090E0A701960162D521503109410951097F
:102C20002115310581E04807510568F060E970ED34
:102C300083E090E0A701960151D521503109410967
:102C4000510993E001C091E01130C9F0133031F522
:102C500080919100887F892B809391003093990017
:102C600020939800D0930E06C0930D0681E08093C8
:102C70000C06809171008260809371000FC080917A
:102C80008100887F892B8093810030938900209375
:102C9000880080916F00826080936F00DF91CF91F8
:102CA0001F91FF90EF90DF90CF900895E82FF0E014
:102CB000EB5AF54FE491E13019F0E33069F00895F3
:102CC00080916F008D7F80936F0020911A06E091B4
:102CD0001B06F0911C0608C010920C0620911306EA
:102CE000E0911406F0911506808190E030E0209587
:102CF00030958223932380830895CF93DF93C62F4B
:102D000080911006823009F468C0E82FF0E0EB5A99
:102D1000F54FD491A82FB0E0AF5EB94F6C938F5FA1
:102D20008093100661E08C2FF0D3D13081F1D33045
:102D300009F053C010929000109291008091910080
:102D400088608093910080919100816080939100D0
:102D50006C2F70E0FB01EB54F54F249130E0220F13
:102D6000331F2C52354FF90185919491909315069C
:102D700080931406FB01EA56F54F649160931306A5
:102D80006CE380E01CDF80E0DF91CF918FCF109269
:102D90008000109281008091810088608093810082
:102DA000809181008160809381006C2F70E0FB0135
:102DB000EB54F54F249130E0220F331F2C52354F46
:102DC000F9018591949190931C0680931B06FB0159
:102DD000EA56F54F649160931A06DF91CF910895FA
:102DE000E0910306F0910406BF016F5F7F4F70937F
:102DF000040660930306A4919A2F907F8A2F8F7008
:102E0000903811F453DFECCF903959F4AF014E5F95
:102E10005F4F5093040640930306FB016491CFDE9D
:102E2000DFCF903E49F4809105069091060690937D
:102E3000040680930306D4CF903F19F410920F0636
:102E4000089597FDCDCFAF014E5F5F4F50930406BD
:102E500040930306FB016491262F30E03A2BA091AA
:102E60000D06B0910E065CD46C507E4F8F4F9F4F75
:102E700028EE33E040E050E00FD420930706309373
:102E800008064093090650930A0680910706909120
:102E90000806A0910906B0910A06892B8A2B8B2B74
:102EA00061F481E090E0A0E0B0E0809307069093A9
:102EB0000806A0930906B0930A06089580910C06AF
:102EC000882349F090911306E0911406F0911506BD
:102ED00080818927808380910F06882321F180914A
:102EE000070690910806A0910906B0910A06892B61
:102EF0008A2B8B2BC1F08091070690910806A09138
:102F00000906B0910A060197A109B1098093070645
:102F100090930806A0930906B0930A06892B8A2B82
:102F20008B2B09F45DCF08954F925F926F927F9241
:102F30008F929F92AF92BF92CF92DF92EF92FF92C9
:102F4000CF93DF93EB0149015A0181E080930B0697
:102F50002B01612C712C60E072E18AE790E0A30103
:102F60009201BCD369017A0181E0C81AD108E10855
:102F7000F108C114D10481E0E806F10480F068E4AE
:102F800078EE81E090E0A3019201A8D369017A0173
:102F900081E0C81AD108E108F10893E001C091E08E
:102FA00080918100887F892B809381008114910416
:102FB000A104B10461F0DE01AA0FBB1FA5019401B9
:102FC000BED328EE33E040E050E066D303C02FEFDD
:102FD0003FEFA901D0928900C09288002093160685
:102FE00030931706409318065093190680916F008E
:102FF000826080936F00DF91CF91FF90EF90DF9020
:10300000CF90BF90AF909F908F907F906F905F9088
:103010004F9008951F920F920FB60F9211242F9385
:103020003F938F939F93AF93BF93EF93FF938091C1
:103030000B06882309F44BC0809116069091170661
:10304000A0911806B0911906892B8A2B8B2B51F170
:1030500090911A06E0911B06F0911C068081892749
:1030600080838091160690911706A0911806B09162
:103070001906181619061A061B0694F580911606ED
:1030800090911706A0911806B09119060197A10911
:10309000B1098093160690931706A0931806B09373
:1030A00019061EC010920B0680916F008D7F8093D1
:1030B0006F0020911A06E0911B06F0911C0680819A
:1030C00090E030E0209530958223932308C09091C2
:1030D0001A06E0911B06F0911C06808189278083E7
:1030E000FF91EF91BF91AF919F918F913F912F9160
:1030F0000F900FBE0F901F9018951F920F920FB652
:103100000F9211242F933F934F935F936F937F936D
:103110008F939F93AF93BF93EF93FF93CFDEFF9176
:10312000EF91BF91AF919F918F917F916F915F913F
:103130004F913F912F910F900FBE0F901F901895B8
:103140008EBD00000DB407FEFDCF8EB50895089525
:10315000E0911F06F0912006808190911D06892B39
:103160008083E0912106F0912206908180911E06D5
:103170008095892380830895E0912106F0912206AD
:10318000808190911E06892B8083E0911F06F0912B
:103190002006908180911D06809589238083E0918F
:1031A0002106F0912206908180911E068095892348
:1031B00080830895CF93DF9316D2C4E6DAE0BE0190
:1031C000FE01849122966F5F7F4FFB0164918823FB
:1031D00011F09BD1F4CF61E086E0D0D161E070E0E6
:1031E00080E090E00E94D80B60E086E0C7D16AE002
:1031F00070E080E090E00E94D80B61E086E0BED1F4
:10320000E1ECFAE0E491F0E0EE0FFF1FEC52F54F35
:10321000859194919093220680932106E2EAFAE048
:10322000E491E0931E06E9EBFAE0E491F0E0EE0FA2
:10323000FF1FEC52F54F8591949190932006809357
:103240001F06EAE9FAE0E491E0931D068CB58C7F55
:103250008CBD8DB581608DBD8FDFC7E5DAE0FAE00A
:10326000C436DF0729F0FE0184916ADF2196F7CF8B
:103270006FDF8091640081608093640080916400BE
:103280008260809364008091640080688093640011
:103290008091640080648093640080916500816007
:1032A00080936500DF91CF910895FC0120812EBDB0
:1032B00021E030E0FC01E20FF31F40810DB407FE76
:1032C000FDCF4EBD2F5F3F4F2115F4E03F0791F733
:1032D0000DB407FEFDCF0895CF93DF93C0E0D4E097
:1032E00080E02EDF2197E1F7DF91CF9108950F93D2
:1032F0001F93CF93DF9300D0CDB7DEB70FEF10E071
:10330000C801861B9109BC018AE02A8349832DD01C
:103310004981B801641B71098BE027D02A81B8016B
:10332000621B710989E00F900F90DF91CF911F917F
:103330000F911BC08FB14CB123B150E04095509517
:103340004074552733E0559547953A95E1F730E0BD
:1033500020953095207133273595279535952795FC
:10336000242B8095807F822B08951F93CF93DF932A
:10337000182FEB0161E0C9D0209711F460E004C080
:10338000CF3FD10531F461E0812FDF91CF911F91C3
:10339000F5C0E12FF0E0E958F54F449150E0FA0113
:1033A0003197EF30F10508F06BC0EA5AFF4FB2C118
:1033B00084B5806884BDC7BD68C084B5806284BDA3
:1033C000C8BD63C080918000806880938000D093E6
:1033D0008900C093880059C08091800080628093EA
:1033E0008000D0938B00C0938A004FC080918000F2
:1033F000886080938000D0938D00C0938C0045C07E
:1034000080919000806880939000D0939900C09341
:1034100098003BC080919000806280939000D09390
:103420009B00C0939A0031C0809190008860809387
:103430009000D0939D00C0939C0027C08091C00055
:1034400080688093C0008091C0008F7B8093C00013
:10345000C093CF001AC08091C00080628093C000EA
:10346000C093D00012C08091C20088608093C200D7
:103470008091C2008B7F8093C200C093D20005C0B0
:10348000C038D1050CF07FCF79CFDF91CF911F915C
:10349000089590E0FC013197EF30F105A8F5EB5964
:1034A000FF4F38C1809180008F7703C080918000EA
:1034B0008F7D80938000089580918000877FF9CF71
:1034C00084B58F7702C084B58F7D84BD08958091C7
:1034D00090008F7707C0809190008F7D03C080910E
:1034E0009000877F8093900008958091C0008F772F
:1034F00003C08091C0008F7D8093C00008958091AB
:10350000C200877F8093C2000895CF93DF9390E03D
:10351000FC01EA56F54F2491FC01EB54F54F8491E0
:10352000882349F190E0880F991FFC01EE51F54F77
:10353000A591B4918C52954FFC01C591D4919FB740
:10354000611108C0F8948C91209582238C93888116
:1035500082230AC0623051F4F8948C91322F309556
:1035600083238C938881822B888304C0F8948C9168
:10357000822B8C939FBFDF91CF9108950F931F9360
:10358000CF93DF931F92CDB7DEB7282F30E0F9013C
:10359000E958F54F8491F901EA56F54F1491F90174
:1035A000EB54F54F04910023C1F0882319F069838F
:1035B00070DF6981E02FF0E0EE0FFF1FEC52F54F56
:1035C000A591B4919FB7F8948C91611103C01095A7
:1035D000812301C0812B8C939FBF0F90DF91CF91EE
:1035E0001F910F910895CF93CFB7F8948091230640
:1035F000811123C0E6ECFAE08491E7EAFAE09491C5
:10360000E82FF0E0EE0FFF1FEE51F54FA591B491BA
:103610008C91892319F461E081E1B0DF61E081E1FF
:1036200074DF8CB580618CBD8CB580648CBD61E02D
:103630008FE06BDF61E080E168DF809123068F5FC0
:1036400080932306CFBFCF910895AA1BBB1B51E1E6
:1036500007C0AA1FBB1FA617B70710F0A61BB70B02
:10366000881F991F5A95A9F780959095BC01CD01A7
:10367000089597FB072E16F4009406D077FD08D026
:10368000E4DF07FC05D03EF4909581959F4F0895A7
:10369000709561957F4F0895A1E21A2EAA1BBB1B5E
:1036A000FD010DC0AA1FBB1FEE1FFF1FA217B3070E
:1036B000E407F50720F0A21BB30BE40BF50B661F24
:1036C000771F881F991F1A9469F7609570958095E8
:1036D00090959B01AC01BD01CF010895052E97FB8C
:1036E00016F400940FD057FD05D0D6DF07FC02D0AA
:1036F00046F408C050954095309521953F4F4F4F67
:103700005F4F089590958095709561957F4F8F4F8D
:103710009F4F0895EE0FFF1F0590F491E02D09943F
:10372000A29FB001B39FC001A39F700D811D112402
:10373000911DB29F700D811D1124911D0895F0DF20
:10374000A59F900DB49F900DA49F800D911D1124F5
:1037500008958F929F92AF92BF92CF92DF92EF9295
:10376000FF92CF93DF93EC01688179818A819B81FD
:10377000611571058105910521F464E279ED8BE510
:1037800097E02DE133EF41E050E0A8DF49015A0115
:103790009B01AC01A7EAB1E4D2DF6B017C01ACEE86
:1037A000B4EFA5019401C1D2C60ED71EE81EF91EC2
:1037B000F7FE06C081E0C81AD108E10880E8F80ADF
:1037C000C882D982EA82FB82C701B6019F77DF9166
:1037D000CF91FF90EF90DF90CF90BF90AF909F90F0
:1037E0008F900895B6CF80E091E0B3CF6093000151
:1037F000709301018093020190930301089581E089
:1038000090E0F894CDC2AEE0B0E0E8E0FCE19FC209
:103810000D891E8986E08C831A8309838FEF9FE7C9
:103820009E838D83AE01475E5F4F6F89788DCE0199
:10383000019608D0EF81F885E00FF11F10822E96D7
:10384000E4E0A1C2ACE0B0E0E7E2FCE172C27C01DE
:103850006B018A01FC0117821682838181FFB0C14E
:10386000CE0101964C01F7019381F60193FD8591FC
:1038700093FF81916F01882309F49EC1853239F449
:1038800093FD859193FF81916F01853221F4B701FA
:1038900090E0B9D1E8CF512C312C20E02032A0F4B7
:1038A0008B3269F030F4803259F0833269F4206150
:1038B0002CC08D3239F0803339F4216026C022606B
:1038C000246023C0286021C027FD27C030ED380FB9
:1038D0003A3078F426FF06C0FAE05F9E300D1124DE
:1038E000532E13C08AE0389E300D1124332E2062EF
:1038F0000CC08E3221F426FD5FC1206406C08C36D8
:1039000011F4206802C0883641F4F60193FD8591D8
:1039100093FF81916F018111C1CF982F9F7D9554A5
:10392000933028F40C5F1F4FFFE3F9830DC08336FB
:1039300031F0833771F0833509F057C021C0F801A9
:10394000808189830E5F1F4F44244394512C54017E
:1039500014C03801F2E06F0E711CF801A080B18034
:1039600026FF03C0652D70E002C06FEF7FEFC50139
:103970002C873ED12C0183012C852F77222E16C057
:103980003801F2E06F0E711CF801A080B18026FFB3
:1039900003C0652D70E002C06FEF7FEFC5012C877B
:1039A0001CD12C012C852068222E830123FC19C0F8
:1039B000832D90E048165906A0F4B70180E290E00C
:1039C00022D13A94F5CFF50127FC859127FE81910C
:1039D0005F01B70190E017D131103A94F1E04F1A2E
:1039E00051084114510479F7DEC0843611F089364C
:1039F00031F5F80127FF07C06081718182819381D1
:103A00000C5F1F4F08C060817181882777FD80950A
:103A1000982F0E5F1F4F2F76B22E97FF09C09095FB
:103A20008095709561957F4F8F4F9F4F2068B22E84
:103A30002AE030E0A40119D1A82EA81843C0853788
:103A400029F42F7EB22E2AE030E025C0F22FF97F34
:103A5000BF2E8F36C1F018F4883579F0ADC08037AD
:103A600019F0883721F0A8C02F2F2061B22EB4FEA4
:103A70000DC08B2D8460B82E09C024FF0AC09F2F73
:103A80009660B92E06C028E030E005C020E130E0A5
:103A900002C020E132E0F801B7FE07C06081718109
:103AA000828193810C5F1F4F06C06081718180E02D
:103AB00090E00E5F1F4FA401D8D0A82EA818FB2DB0
:103AC000FF77BF2EB6FE0BC02B2D2E7FA51450F412
:103AD000B4FE0AC0B2FC08C02B2D2E7E05C07A2C85
:103AE0002B2D03C07A2C01C0752C24FF0DC0FE01C4
:103AF000EA0DF11D8081803311F4297E09C022FF77
:103B000006C07394739404C0822F867809F073946E
:103B100023FD12C020FF06C05A2C731418F4530C56
:103B20005718732C731460F4B70180E290E02C876F
:103B30006AD073942C85F6CF731410F4371801C033
:103B4000312C24FF11C0B70180E390E02C875BD0BB
:103B50002C8522FF16C021FF03C088E590E002C03B
:103B600088E790E0B7010CC0822F867851F021FDE4
:103B700002C080E201C08BE227FD8DE2B70190E038
:103B800042D0A51430F4B70180E390E03CD05A94C1
:103B9000F8CFAA94F401EA0DF11D8081B70190E0FD
:103BA00032D0A110F6CF332009F45DCEB70180E208
:103BB00090E029D03A94F7CFF7018681978102C02F
:103BC0008FEF9FEF2C96E2E1D0C0F999FECF92BD26
:103BD00081BDF89A992780B50895FC010590615040
:103BE00070400110D8F7809590958E0F9F1F089513
:103BF000FC016150704001900110D8F780959095BC
:103C00008E0F9F1F08950F931F93CF93DF93182F4D
:103C1000092FEB018B8181FD03C08FEF9FEF20C047
:103C200082FF10C04E815F812C813D814217530776
:103C30007CF4E881F9819F012F5F3F4F398328830E
:103C4000108306C0E885F985812F0995892B29F70E
:103C50002E813F812F5F3F4F3F832E83812F902FF7
:103C6000DF91CF911F910F910895FA01AA27283073
:103C700051F1203181F1E8946F936E7F6E5F7F4F39
:103C80008F4F9F4FAF4FB1E03ED0B4E03CD0670FB5
:103C9000781F891F9A1FA11D680F791F8A1F911D08
:103CA000A11D6A0F711D811D911DA11D20D009F458
:103CB00068943F912AE0269F11243019305D31939A
:103CC000DEF6CF010895462F4770405D4193B3E083
:103CD0000FD0C9F7F6CF462F4F70405D4A3318F02A
:103CE000495D31FD4052419302D0A9F7EACFB4E0DB
:103CF000A6959795879577956795BA95C9F7009793
:103D00006105710508959B01AC010A2E0694579533
:103D1000479537952795BA95C9F7620F731F841F8A
:103D2000951FA01D0895B7FF0ACD09DD821B930BD7
:103D300008952F923F924F925F926F927F928F924F
:103D40009F92AF92BF92CF92DF92EF92FF920F932A
:103D50001F93CF93DF93CDB7DEB7CA1BDB0B0FB634
:103D6000F894DEBF0FBECDBF09942A8839884888F1
:103D70005F846E847D848C849B84AA84B984C88487
:103D8000DF80EE80FD800C811B81AA81B981CE0F7E
:103D9000D11D0FB6F894DEBF0FBECDBFED01089563
:043DA000F894FFCFC5
:103DA4000100000000C18081000000FFFFFFFF0050
:103DB400E100000000000070726573656E747300AA
:103DC40070722020206E747300657365004449533B
:103DD400543A20256400000000005A0BDC0A00005D
:103DE40000005C109E10841092107210821000006B
:063DF40000003815DC0A96
:00000001FF
