:100000000C945F070C9487070C9487070C94870760
:100010000C9487070C9487070C9487070C94870728
:100020000C9487070C9487070C94800F0C94F20FA4
:100030000C9487070C9487070C9487070C94870708
:100040000C9487070C94E40C0C9487070C94870796
:100050000C9487070C9487070C9487070C94660A06
:100060000C9487070C9487070C9487070C948707D8
:100070000C9487070C9487070C9487070C948707C8
:100080000C94F50D0C9487070C9487070C94870744
:100090000C9487070C9487070C9487070C948707A8
:1000A0000C9487070C9487070C9487078C148F1483
:1000B0007E1482148614B014B014B01493149714E0
:1000C0009B14A114A514B014AB149F15A415A91565
:1000D000B315BD15071607160716C715D115DB157D
:1000E000E515F2150716FA151C2222222410122AF1
:1000F00021414141424A2424180000000000000030
:1001000000000000000000000000000000000000EF
:10011000F0F89C8E8783878E9CF8F00000FEFF032A
:1001200003030303070EFCF80000FEFF03030303B1
:1001300003070EFCF80000FFFF00000000000000B5
:10014000FFFF0000FEFF8383838383C7EE7C3800BC
:1001500000F8FC0E07030303070EFCF800003F7FC6
:10016000E0C08080C0E07F3FFFFF0101010101018D
:1001700001FFFF0000FFFF0C0C0C0C1C3E77E3C1DD
:1001800000007FFFC0C0C0C0C0E0703F1F00001F64
:100190003F70E0C0C0C0E0703F1F00007FFFC1C1E2
:1001A000C1C1C1E3773E1C00001F3F70E0C0C0C06A
:1001B000E0703F1F000000000001FFFF0100000091
:1001C000D5F08D14A1C881CFD9F1AF20001402134E
:1001D00002120215020702080204010C01060100C6
:1001E000902F0032809029006380F0905700328079
:1001F00090520021809057004280F0903900218079
:100200009045005380F0000000000000FEFFFFFE5C
:1002100000C0C08000000000FEFFFE00FFFFFFFFE7
:10022000C0FFFF7F0000000001030383FFFFFFFF0B
:10023000800000000000000000000000000000003E
:100240000000000000000002CF9EF0F8FCFCB88027
:10025000F07000000000000C0D8BBFFFFFBF8F038C
:10026000000000000000902F0021809029003280C3
:10027000F0000000000000001878F870B0FCDECE3E
:100280008C08C8F0F0E04080000000000000000092
:10029000000000000000004267EFFB80878F0F0C1A
:1002A000070101898D818041423A0C000000000065
:1002B00000C04000E0F0D04E8E4321B110890C0008
:1002C00000F80402020203FC4488F0E00000000091
:1002D0000000010204040404023A77606021231E36
:1002E0000E19204864623F3000000000000000004A
:1002F00000000000000000001078F878B0F8DCCEB4
:100300008E0CC8F0F0E0408000000000000000000B
:10031000000000000000002467EFFB80878F0F0CB7
:10032000070101898D818041423A0C0000000000E4
:10033000008080C0E0C08050747E1E234180D96858
:100340002000C0340A0207F8E000000000000000AE
:10035000000101020204040404020608303062664F
:1003600066285869762A0601000000000000000097
:100370000000000000000000001878F870B0FCDEFB
:10038000CE8C08C8F0F0E0408000000000000000C3
:1003900000000000000000004267EFFB80878F0F25
:1003A0000C070101898D818041423A0C0000000058
:1003B000000000C080C0D07C58063523408180CC2E
:1003C000C850703000FE211E000000000000000038
:1003D000000203030202040404127B6064242C382C
:1003E000103020626334381000000000000000006C
:1003F00000000000000000001078F878B0F8DCCEB3
:100400008E0CC8F0F0E0408000000000000000000A
:10041000000000000000002467EFFB80878F0F0CB6
:10042000070101898D818041423A0C0000000000E3
:10043000008080C0E0C08050747E1E234180D96857
:100440002000C0340A0207F8E000000000000000AD
:10045000000101020204040404020608303062664E
:1004600066285869762A0601000000000000000096
:1004700000000000000000001878F870B0FCDECE2C
:100480008C08C8B070A0C000000000000000000090
:10049000000000000000004267EFFB80878A0DCA61
:1004A000A760214899808101427A0C000000000079
:1004B00000C04000E0F0D04E8E4321B110890C0006
:1004C00000F80402020203FC4488F0E0000000008F
:1004D0000000010204040404023A77606021231E34
:1004E0000E19204864623F30000000000000000048
:1004F00000000000000000000000000000000000FC
:1005000000000000000000000000000000000000EB
:100510000080601008F8D87C2C3C1494840CE8E02F
:10052000C080D0F06098DCDCD0A0C00000000000EB
:10053000000728409F9F98C81E4EE417033161C1F1
:10054000C0230000A00F8A0D0A8F82030206010358
:10055000FC000002060F0908080F0F0C0C04000332
:100560000202040C0C0C07060406060E0E0A0E0E00
:1005700005000000000000001878F870B0FCDECE26
:100580008C08C8F070E0C08000008000000000000F
:10059000000000000000004267EFFB80878F0CAF77
:1005A0004781E1E9ECE1E1433E8167271F04000058
:1005B00000C04000E0F0D0488C4221B110890C000E
:1005C00001FA0602020204FC030000000000000021
:1005D0000000010204040404023A77606021231E33
:1005E0000E19204864623F30000000000000000047
:1005F000009047007480904C01DE80F00000000005
:10060000000000000000000000000080C0406020EA
:10061000309010588808E8880888E888080888C852
:100620006808884898101030206040C080000000A2
:1006300000000000000000000000000000000000BA
:10064000000000C06030180CC6F3F1691CA45A41C8
:100650002F2411120B090805C5F1FCF9E00484C52B
:10066000E4F5F7EA8914172F4652B83C31D963866E
:100670000C1830E08000000000000000000000C006
:10068000701C8781841C1E8C60110806010000000C
:10069000000000002070F8FA06FDFDFD06FA383A69
:1006A000FAF0E000C1E5F67674E0E0C1060911E475
:1006B0000E37D04861071C70C00000000000FC0726
:1006C00000E0F3E30301F807000000000000000071
:1006D000000080C4CE7E1E4100FFFFFF0007070719
:1006E00007030000030303020203030BF0000000F2
:1006F00007F80062C36360C007FC000000007FC011
:100700000000000000003FC00000E01070E08080AA
:10071000E0E4EC1D0300010018372F6F602020106B
:1007200010112340800000020610E10100000000CB
:10073000E01F00C02A7A2604C07F000000000007E6
:100740001C70C000000000030C304788B0408119C5
:1007500018383B76F4E8E8EAE0F4F0F0F0F0F0184E
:100760000C0C0402011000288060103B90781807E0
:10077000000C0D1911C3701C0700000000000000E0
:10078000000001071E00709010101000FE01018192
:100790007D01792579017D116D0179257901792511
:1007A00058047C047A2679010101FE011010109092
:1007B0007000180E0301000000000000000000009F
:1007C00000000000000038272020202027242424B7
:1007D000242424180414152524252425252425251E
:1007E000241514041824242424242720202020271E
:1007F000380000000000000000000000080B0002AC
:1008000002020100090400000102020000052400A8
:10081000100105240101010424020605240600013B
:100820000705810310004009040100020A000000CE
:100830000705020240000007058302400000040390
:10084000090412010002EF02014041233680000139
:100850000102030141726475696E6F204C4C4300C4
:1008600041726475696E6F204C656F6E6172646F62
:100870000000000000003E5B4F5B3E3E6B4F6B3E56
:100880001C3E7C3E1C183C7E3C181C577D571C1C93
:100890005E7F5E1C00183C1800FFE7C3E7FF0018EE
:1008A000241800FFE7DBE7FF30483A060E262979D7
:1008B0002926407F050507407F05253F5A3CE73C38
:1008C0005A7F3E1C1C08081C1C3E7F14227F2214E9
:1008D0005F5F005F5F06097F017F006689956A6040
:1008E0006060606094A2FFA29408047E0408102057
:1008F0007E201008082A1C08081C2A08081E101050
:1009000010100C1E0C1E0C30383E3830060E3E0EF9
:1009100006000000000000005F0000000700070064
:10092000147F147F14242A7F2A122313086462364A
:10093000495620500008070300001C2241000041D6
:10094000221C002A1C7F1C2A08083E080800807010
:100950003000080808080800006060002010080443
:10096000023E5149453E00427F4000724949494696
:100970002141494D331814127F1027454545393C14
:100980004A49493141211109073649494936464901
:1009900049291E0000140000004034000000081423
:1009A000224114141414140041221408020159099C
:1009B000063E415D594E7C1211127C7F49494936F1
:1009C0003E414141227F4141413E7F494949417F6A
:1009D000090909013E414151737F0808087F004120
:1009E0007F41002040413F017F081422417F404069
:1009F00040407F021C027F7F0408107F3E4141413E
:100A00003E7F090909063E4151215E7F09192946A9
:100A1000264949493203017F01033F4040403F1FBF
:100A20002040201F3F4038403F63140814630304F4
:100A30007804036159494D43007F41414102040854
:100A40001020004141417F04020102044040404027
:100A500040000307080020545478407F284444385D
:100A60003844444428384444287F385454541800A7
:100A7000087E090218A4A49C787F08040478004426
:100A80007D40002040403D007F1028440000417F11
:100A900040007C047804787C08040478384444449A
:100AA00038FC1824241818242418FC7C0804040892
:100AB000485454542404043F44243C4040207C1CAB
:100AC0002040201C3C4030403C44281028444C909E
:100AD00090907C4464544C440008364100000077F8
:100AE0000000004136080002010204023C262326D1
:100AF0003C1EA1A161123A4040207A385454555905
:100B0000215555794121545478412155547840203C
:100B1000545579400C1E5272123955555559395455
:100B200054545939555454580000457C41000245ED
:100B30007D420001457C40F0292429F0F028252839
:100B4000F07C545545002054547C547C0A097F495C
:100B500032494949323248484832324A4848303AA4
:100B60004141217A3A42402078009DA0A07D39443D
:100B70004444393D4040403D3C24FF2424487E49C4
:100B800043662B2FFC2F2BFF0929F620C0887E09F6
:100B90000320545479410000447D413048484A3292
:100BA000384040227A007A0A0A727D0D19317D267A
:100BB00029292F28262929292630484D4020380860
:100BC00008080808080808382F10C8ACBA2F1028E1
:100BD00034FA00007B000008142A142222142A147C
:100BE000089500220095AA005500AAAA55AA55AA60
:100BF000000000FF00101010FF00141414FF00107C
:100C000010FF00FF1010F010F0141414FC00141466
:100C1000F700FF0000FF00FF1414F404FC14141785
:100C2000101F10101F101F1414141F00101010F0AC
:100C3000000000001F101010101F10101010F010F6
:100C4000000000FF101010101010101010FF100006
:100C50000000FF140000FF00FF00001F101700003D
:100C6000FC04F414141710171414F404F40000FF17
:100C700000F714141414141414F700F714141417B0
:100C80001410101F101F141414F4141010F010F08E
:100C900000001F101F0000001F14000000FC1400C3
:100CA00000F010F01010FF10FF141414FF141010B7
:100CB000101F00000000F010FFFFFFFFFFF0F0F03A
:100CC000F0F0FFFFFF0000000000FFFF0F0F0F0F0D
:100CD0000F38444438447C2A2A3E147E0202060619
:100CE000027E027E0263554941633844443C04401D
:100CF0007E201E2006027E020299A5E7A5991C2AE5
:100D0000492A1C4C7201724C304A4D4D30304878A3
:100D10004830BC625A463D3E494949007E010101C6
:100D20007E2A2A2A2A2A44445F444440514A4440A5
:100D300040444A51400000FF0103E080FF000008EA
:100D4000086B6B083612362436060F090F060000B2
:100D500018180000001010003040FF0101001F01B2
:100D6000011E00191D1712003C3C3C3C0000000015
:100D70000006011501260137014A015D0172018853
:100D8000019F01B801D201EE010B022A024B026E53
:100D9000029302BA02E40210033F037003A403DCCF
:100DA00003170455049704DD0427057505C80520BD
:100DB000067D06E0064907B8072D08A9082D09B9E0
:100DC000094D0AEA0A900B400CFA0CC00D910E6F07
:100DD0000F5A1053115B1272139A14D415201780F6
:100DE00018F519801B231DDE1EB420A622B524E4AD
:100DF000263429A72B402E0031EA330037453ABC70
:100E00003D68414C456B49C84D68524F57805C0066
:100E10006210111213151617181A1C1D1F212325F5
:100E200027292C2E3134373A3E4145494E52575CE2
:100E300062686E757B838B939CA5AFB9C4D0DCE9E7
:100E4000F700000000240027002A002D00300000D9
:100E500000000200090F0000030401000C00000064
:100E60000000000000000000000000000000040876
:100E700002011040804010204080408008020401A0
:100E8000804020100201108010204040200000000F
:100E900000250028002B002E003100040404040467
:100EA000030405020202020403020202020606060D
:100EB0000606060404020202040403011C1D112498
:100EC0001FBECFEFDAE0DEBFCDBF26E0A0E5B1E088
:100ED00001C01D92A533B207E1F711E0A0E0B1E037
:100EE000E6E4F2E402C005900D92A035B107D9F70F
:100EF00017E0CFE5D7E004C02197FE010E94771DDF
:100F0000CE35D107C9F70E9463160C9421210C94A9
:100F100000003FB7F8948091930190919401A091C3
:100F20009501B091960126B5A89B05C02F3F19F0F9
:100F30000196A11DB11D3FBFBA2FA92F982F882759
:100F4000820F911DA11DB11DBC01CD0142E0660FB4
:100F5000771F881F991F4A95D1F70895CF92DF9286
:100F6000EF92FF920F931F93CF93DF936C017A015F
:100F70008B01C0E0D0E0CE15DF0589F0D8016D917E
:100F80008D01D601ED91FC910190F081E02DC6011B
:100F90000995892B11F47E0102C02196ECCFC7017F
:100FA000DF91CF911F910F91FF90EF90DF90CF9045
:100FB0000895CF93DF93EC012CE330E0B9010E9458
:100FC000631DFB0144E64C9FC0014D9F900D112411
:100FD000B9010E94631DCB0164E670E00E94631DAD
:100FE0002091500130915101280F391F23333105D1
:100FF00024F0319624563109F9CF309351012093D2
:101000005001CF01DF91CF910895CF92DF92EF92FF
:101010000F931F93CF93DF936C0164E970E00E94FC
:10102000631DEE24E39400E124E148EE50E065E026
:1010300070E0E0E8F0E0DF01A81BB90BCD010E94F1
:101040007C12809182019091830100917C0110912A
:101050007D01C0E0D0E0059734F141E0B801CE0158
:101060000E94E6132196C038D105B9F7E0918601B8
:10107000F0918701CF018C199D09C0918401D09115
:101080008501CC19DD098038910514F56091800146
:1010900070918101EE24E39408E120E146E052E002
:1010A0000E947C1215C041E0B801CE010E94E613F7
:1010B0002196C630D105B9F7CAE1D0E041E0B801C8
:1010C000CE010E94E6132196C038D105B9F7CECFE4
:1010D000C038D1056CF46091520170915301EE2437
:1010E000E39408E120E146E352E0CE010E947C1245
:1010F000DF91CF911F910F91EF90DF90CF900895E6
:101100000E947D1DCF93DF9300D000D0CDB7DEB716
:10111000611571058105910579F09B01AC01698329
:101120003A834B835C830E94712029813A814B81F1
:101130005C810E94872003C060E070E0CB010F90CB
:101140000F900F900F90DF91CF910895CF92DF9283
:10115000EF92FF92CF93DF93EC0180918601909103
:10116000870140968C179D07F4F56AE070E080E0F7
:1011700090E00E94820825E0269FA001279F500D45
:1011800011249E0121553F4FC901840F951F909353
:10119000870180938601C0907C01D0907D018FEF04
:1011A000C81AD80A0D2C000CEE08FF0880E4C816F7
:1011B000D104E104F10484F480E490E0A0E0B0E024
:1011C000BC01CD016C197D098E099F090E9482081E
:1011D000C60ED71EE81EF91E88E1C81AD108D092A3
:1011E0008101C0928001C53F81E0D8070CF486C020
:1011F000809184019091850140968C179D07E4F5BC
:101200006AE070E080E090E00E948208C853DF4FFF
:1012100026E0269FA001279F500D1124C40FD51F43
:10122000D0938501C0938401C0907C01D0907D0152
:101230008FEFC81AD80A0D2C000CEE08FF0880E4C6
:10124000C816D104E104F10484F480E490E0A0E045
:10125000B0E0BC01CD016C197D098E099F090E9487
:101260008208C60ED71EE81EF91E88E1C81AD108EA
:10127000D0925301C0925201409184015091850156
:1012800080918601909187019A01281B390BB90141
:10129000615071096730710530F4485F5F4F5093BA
:1012A000850140938401295F3F4F2730310528F4A1
:1012B0000896909387018093860140918401509114
:1012C000850180918601909187019A01281B390B35
:1012D000B901665171096A31710530F4405E5F4FA2
:1012E0005093850140938401215D3F4F2A313105A0
:1012F00028F480969093870180938601DF91CF91A7
:10130000FF90EF90DF90CF90089582E090E090936F
:101310008F0180938E0110928901109288018BE4D5
:1013200090E090938B0180938A0180E89FEF9093E7
:10133000850180938401909387018093860180E0EA
:1013400090E00E94A60810927F0110927E011092F8
:1013500083011092820108951092DE051092DD053E
:101360001092E0051092DF0580918B018F938091A0
:101370008A018F9380918801909189016AE070E0E1
:101380000E94631D7F936F938FE291E09F938F93F1
:1013900084E591E09F938F930E94821D8DB79EB745
:1013A00008960FB6F8949EBF0FBE8DBF84E591E0FE
:1013B0000C9425144091990150919A012091970124
:1013C0003091980142175307B4F49091E80095705A
:1013D000E1F39091E80092FD19C08093F1008091B3
:1013E000990190919A0101968F739927892B19F48D
:1013F0008EEF8093E8008091990190919A01019677
:1014000090939A018093990181E0089580E0089576
:10141000615030F02091F100FC0120830196F8CF5B
:10142000289884E68093BC0108958F929F92AF9292
:10143000BF92CF92DF92EF92FF926B017C010E94EC
:1014400089074B015C01C114D104E104F104F1F0FE
:101450000E948907DC01CB0188199909AA09BB09F7
:10146000883E9340A105B10570F321E0C21AD1086E
:10147000E108F10888EE880E83E0981EA11CB11CDB
:10148000C114D104E104F10419F7DDCFFF90EF900E
:10149000DF90CF90BF90AF909F908F900895CF93A3
:1014A000C82F8DED91E00E945316CC2369F00E9465
:1014B0002212811107C061E070E080E090E00E949C
:1014C000150AF5CFC150F1CFCF9108951F920F9219
:1014D0000FB60F9211242F933F938F939F93AF9347
:1014E000BF938091C5019091C601A091C701B091B1
:1014F000C8013091920123E0230F2D3720F401968B
:10150000A11DB11D05C026E8230F0296A11DB11D26
:10151000209392018093C5019093C601A093C701C7
:10152000B093C8018091930190919401A09195018D
:10153000B09196010196A11DB11D809393019093E6
:101540009401A0939501B0939601BF91AF919F91A3
:101550008F913F912F910F900FBE0F901F90189574
:101560008091A80181110DC082E08093A40184E0E4
:101570008093A5011092A7011092A60181E08093AB
:10158000A80184EA91E00895CF93DF931F92CDB72D
:10159000DEB76983DC01ED91FC910280F381E02DDF
:1015A00041E050E0BE016F5F7F4F09950F90DF91E2
:1015B000CF91089583E08093E9008091F200882321
:1015C00019F08AE38093E8000895FC0184859585ED
:1015D00097FD0BC09FB7F89482E08093E90080915B
:1015E000F2009FBF90E0019608959FB7F89482E0C3
:1015F0008093E9008091F2009FBF90E008957F9270
:101600008F929F92AF92BF92CF92DF92EF92FF9212
:101610000F931F93CF93DF936C015B017A0180914D
:101620000B01882309F46BC08091BD01882309F464
:1016300066C080919D0180FF05C08091E0008260BE
:101640008093E000E70110E00AEF83E0982E90E439
:10165000792E2AE3822E209709F448C08FB7F89498
:101660009092E9009091E80095FF06C09091F200F9
:10167000272D291B922F01C090E08FBF91110AC026
:10168000015009F43CC061E070E080E090E00E940D
:10169000150AE1CF292F30E0C217D3070CF49C2F95
:1016A0008FB7F8949092E9002091E80025FF1CC0C4
:1016B000292F30E0C21BD30BF501915020F041914E
:1016C0004093F100FACFA20EB31E112319F08092BD
:1016D000E80009C09091E80095FD06C08092E800FE
:1016E00011E0209709F010E08FBFB5CF1111B6CFF0
:1016F0005D9884E68093A3011E141F0444F081E0EA
:1017000090E0F6019383828380E090E001C0C701FE
:10171000DF91CF911F910F91FF90EF90DF90CF90CD
:10172000BF90AF909F908F907F9008950F931F93DD
:10173000CF93DF931F92CDB7DEB78C01FC01848578
:10174000958597FF0EC0CE0101960E943714019730
:1017500019F4298130E002C02FEF3FEFF8013587FF
:101760002487F801848595850F90DF91CF911F9193
:101770000F910895CF93DF931F92CDB7DEB7FC0191
:101780008485958597FD05C02FEF3FEF358724872A
:101790000BC0CE0101960E943714019719F489817C
:1017A00090E002C08FEF9FEF0F90DF91CF910895EF
:1017B000CF92DF92EF92FF920F931F93CF93DF931D
:1017C0001F92CDB7DEB7182F062FE42E862F880F75
:1017D0008E5F99830E94DA0983E00E94DA09F12E74
:1017E000C12E9981D92E8C2D8F19801798F4F6016E
:1017F000E7FE02C0849101C080810E94DA09182F9F
:1018000080E00E94DA098123FFEFCF1ADF0A8111FD
:10181000EACF01C081E00F90DF91CF911F910F912E
:10182000FF90EF90DF90CF900895DF92EF92FF92BC
:101830000F931F93CF93DF93D82E8A017B01E40E81
:10184000F51EEB01CE15DF0571F0D7FE03C0FE01DA
:10185000849101C088810E94DA0921968111F2CF1A
:101860008FEF9FEF01C0C801DF91CF911F910F91C2
:10187000FF90EF90DF9008950F931F93CF93DF9326
:101880001F92CDB7DEB782E0898342E450E06CEF6F
:1018900077E080E80E94150C0E94B00ADC011296E5
:1018A0000D911C9113970115110569F0D801ED9167
:1018B000FC910280F381E02DBE016F5F7F4FC80174
:1018C000099597FF07C089810F90DF91CF911F91F4
:1018D0000F910895F80100851185E5CFCF92DF9231
:1018E000EF92FF920F931F93CF93E82FF0E0E6540F
:1018F000F14FC491E62FF0E0603330F4EF5EF14F2A
:10190000E4910E2F10E006C0EE0FFF1FEF5EF24FC6
:10191000059114916801E12CF12C60E074E284EFF0
:1019200090E0A70196010E948720BA01A9014150C9
:101930005109610971094115510581E06807710577
:1019400080F060E970ED83E090E0A70196010E94CD
:101950008720BA01A901415051096109710983E049
:1019600001C081E0C130C9F0C33031F590919100E0
:10197000987F892B80939100509399004093980011
:101980001093BB010093BA0181E08093B90180916B
:1019900071008260809371000FC090918100987FE8
:1019A000892B809381005093890040938800809117
:1019B0006F00826080936F00CF911F910F91FF9015
:1019C000EF90DF90CF9008951F920F920FB60F9275
:1019D00011242F933F938F939F93AF93BF93EF93D4
:1019E000FF938091B401882309F44DC08091B00128
:1019F0009091B101A091B201B091B301892B8A2BD2
:101A00008B2B51F18091C101E091C201F091C30192
:101A10009081892780838091B0019091B101A0913C
:101A2000B201B091B301181619061A061B06A4F5E7
:101A30008091B0019091B101A091B201B091B30138
:101A40000197A109B1098093B0019093B101A093CE
:101A5000B201B093B30120C01092B40180916F0025
:101A60008D7F80936F009091C101E091C201F09150
:101A7000C3018081282F30E0892F90E080959095D8
:101A80008223932308C08091C101E091C201F091AB
:101A9000C301908189278083FF91EF91BF91AF911E
:101AA0009F918F913F912F910F900FBE0F901F909C
:101AB0001895E82FF0E0E654F14FE491E13019F089
:101AC000E33069F0089580916F008D7F80936F00FF
:101AD0009091C101E091C201F091C30108C0109240
:101AE000B9019091BE01E091BF01F091C0018081E8
:101AF000282F30E0892F90E08095909582239323C2
:101B000080830895E091A001F091A101BF016F5F72
:101B10007F4F7093A1016093A0014491942F907F17
:101B2000842F8F70903819F40E94590DEBCF9039A3
:101B300081F43296F093A101E093A001FB0164913E
:101B40009091C4018917F0F667FDDCCF0E946E0CFE
:101B5000D9CF903E49F480919E0190919F0190933E
:101B6000A1018093A001CECF903F19F41092A20161
:101B7000089597FDC7CF3296F093A101E093A0019D
:101B8000FB01249130E0342BA091BA01B091BB014C
:101B90000E94DB206C507E4F8F4F9F4F28EE33E02A
:101BA00040E050E00E94B9202093B5013093B60187
:101BB0004093B7015093B8018091B5019091B6015F
:101BC000A091B701B091B801892B8A2B8B2B61F4BE
:101BD00081E090E0A0E0B0E08093B5019093B60181
:101BE000A093B701B093B80108951F920F920FB65A
:101BF0000F9211242F933F934F935F936F937F9393
:101C00008F939F93AF93BF93EF93FF938091B9010D
:101C1000882349F08091BE01E091BF01F091C0019D
:101C20009081892780838091A201882329F1809166
:101C3000B5019091B601A091B701B091B801892B7F
:101C40008A2B8B2BC9F08091B5019091B601A091A0
:101C5000B701B091B8010197A109B1098093B5010D
:101C60009093B601A093B701B093B801892B8A2B4A
:101C70008B2B11F40E94820DFF91EF91BF91AF91D8
:101C80009F918F917F916F915F914F913F912F9194
:101C90000F900FBE0F901F901895A42FA695A69594
:101CA000A695B0E0772747705527B695BA2FAA2793
:101CB000B795A7956A0F7B1FFC01E60FF71F81E020
:101CC00090E001C0880F4A95EAF7222319F0948921
:101CD000892B03C0809594898923848B08952F9242
:101CE0003F924F925F926F927F928F929F92AF92AC
:101CF000BF92CF92DF92EF92FF920F931F93CF93F9
:101D0000DF93CDB7DEB72A970FB6F894DEBF0FBECC
:101D1000CDBF6A3091F4FC01E85EFB4F4081329701
:101D20002081318158E0459F200D311D11243183E0
:101D30002083329711821082CAC06D3009F4C7C067
:101D40009A878987885E9B4F9C838B83DC012C90CC
:101D5000E985FA85EA5EFB4F60807180E985FA8546
:101D6000EC5EFB4FFA83E983008111810038110595
:101D7000D4F0AB81BC812C91422F50E0E981FA81F3
:101D800080819181F6E02F9F800D911D1124A98102
:101D9000BA818D939C93E985FA85E75EFB4F20819C
:101DA000211167C094C0B0E46B16710414F7C80128
:101DB000E5E02E9E800D911D112418161906CCF613
:101DC000422C512CC301F8E02F9E800D911D11244F
:101DD0001816190674F655E0659F900111243F838B
:101DE0002E83E12CF12C85E0E816F10441F0EE8120
:101DF000FF81EE0DFF1DEF58F74F349001C0312CDD
:101E0000430138E0932D91709D8358018A2D801BEA
:101E10008215F0F464018C2D88198215A8F4A0E8CD
:101E2000AA16B10468F4B0E4CB16D10448F42D81AD
:101E3000A601B50189859A8538870E944D0E38859F
:101E4000EFEFCE1ADE0AE7CFFFEFAF1ABF0ADECF01
:101E500036943150840C951C3111D4CF2FEFE21AF7
:101E6000F20A040D151D36E0E316F10409F0BBCFAC
:101E700080CF6AEF64039001659F300D11242058D4
:101E80003F4F281739071CF5A985BA85ED91FC91BC
:101E900011970190F081E02D6AE0CD012A960FB6EE
:101EA000F894DEBF0FBECDBFDF91CF911F910F9190
:101EB000FF90EF90DF90CF90BF90AF909F908F906A
:101EC0007F906F905F904F903F902F9009942A964B
:101ED0000FB6F894DEBF0FBECDBFDF91CF911F913B
:101EE0000F91FF90EF90DF90CF90BF90AF909F90B9
:101EF0008F907F906F905F904F903F902F900895BC
:101F00001F920F920FB60F9211248F939F9380917F
:101F1000E1009091E100937F9093E10083FF0FC077
:101F20001092E90091E09093EB001092EC0092E3A4
:101F30009093ED001092BD0198E09093F00082FF25
:101F400020C093E09093E9009091F200992319F05A
:101F50009AE39093E8009091A301992339F090912E
:101F6000A30191509093A301992389F19091BC0111
:101F7000992339F09091BC0191509093BC01992321
:101F800041F184FF10C08091E2008E7E81608093D9
:101F9000E2008091E1008F7E8093E10080919D01BD
:101FA0008E7E806111C080FF16C08091E2008E7E1F
:101FB00080618093E2008091E1008E7E8093E10059
:101FC00080919D018E7E816080939D0104C05D9A09
:101FD000CDCF289AD6CF9F918F910F900FBE0F90A3
:101FE0001F9018951F920F920FB60F921124CF9247
:101FF000DF92EF92FF920F931F932F933F934F9394
:102000005F936F937F938F939F93AF93BF93EF9360
:10201000FF93CF93DF93CDB7DEB76C97DEBFCDBF15
:102020001092E9008091E80083FFEDC168E0CE01E5
:1020300045960E94080A82EF8093E8008D8987FF09
:1020400005C09091E80090FFFCCF03C09EEF9093F5
:10205000E800982F907609F0C6C09E892F89188DC8
:1020600091110CC0803829F480919C018093F1007B
:1020700002C01092F1001092F10048C1422F50E0CE
:10208000512B913051F4811141C14130510509F07A
:102090003DC180919C018D7F0BC0933061F4811113
:1020A00035C14130510509F031C180919C018260F8
:1020B00080939C012BC1953041F48091E80080FF12
:1020C000FCCF20682093E30021C1963009F05FC067
:1020D000EB8CFC8C1092E90010929A0110929901FD
:1020E000123091F510929801109297010E943C0CC9
:1020F00099E0BE016F5F7F4FDB01E92F1D92EA95EA
:10210000E9F799831A8391E09E8390EA98879AEF82
:1021100099872091990130919A01275F3F4F3C8325
:102120002B838D831092E90010929A0110929901ED
:10213000F0929801E092970149E050E080E00E941F
:10214000150C0E943C0CE2C0F0929801E0929701BD
:102150000E94B00ADC011296ED90FC901397E114F6
:10216000F10409F4C0C0D701ED91FC910480F58120
:10217000E02DBE016B5E7F4FC7010995009719F0F6
:102180000CF0C4C0C7C0F701E084F184E8CF9730F9
:1021900009F4C0C0983021F481E08093F100B6C00A
:1021A000993009F0B3C0837009F0B4C0E1E1F1E007
:1021B00081E021E036E39081992361F08093E9008A
:1021C0002093EB0091919093EC003093ED008F5FA2
:1021D000873089F78EE78093EA001092EA008F89B2
:1021E0008093BD0193C08B8D9C8D1092E90010925D
:1021F0009A01109299019093980180939701898D8B
:10220000811156C08E899D89913A59F4813209F025
:1022100081C047E050E064E071E080E00E94150C6E
:1022200075C0913209F076C0833289F4888D90E0D0
:10223000982F88272F89822BA0E0B0E0809300019F
:1022400090930101A0930201B09303015FC080321B
:1022500069F48091E80082FFFCCF67E084E091E0C0
:102260000E94080A8BEF8093E80006C0823209F0D2
:102270004DC08F8980930B0180919B01882319F0B9
:10228000EEEFFAE002C0E0E0F8E080910401909106
:102290000501A0910601B0910701803B9440A10582
:1022A000B10509F07BC080910B0180FF93C076C01F
:1022B0000E94B00ADC0112960D911C911397011532
:1022C000110541F1D801ED91FC910190F081E02DD3
:1022D000BE016B5E7F4FC8010995811117C0F801DF
:1022E00000851185ECCF113009F44EC0133091F404
:1022F0008F89882309F445C0823081F440E860E189
:1023000080E698E00E94D80B882321F08EEF80931E
:10231000E80079C081E28093EB0075C0813029F438
:1023200040E86BE084E598E0EDCF833099F70E94B8
:10233000B00ADC011296ED90FC9013978E010F5FAE
:102340001F4F6801E114F10479F0D701ED91FC9180
:102350000680F781E02DB801C7010995080F111D0E
:10236000F701E084F184EECFD8011C92F6010190D0
:102370000020E9F73197BF016C197D0940E0C601E3
:10238000C1CF6EE378E002C062E478E061157105C8
:1023900009F2FB01449150E080E840CF0FB6F89479
:1023A000A895809160008861809360001092600021
:1023B0000FBEA895EE3F2AE0F20739F08091FE0AA1
:1023C0009091FF0A91838083A1CF1092FF0A10920F
:1023D000FE0A9CCFEE3F8AE0F80731F080819181C0
:1023E0009093FF0A8093FE0A87E797E791838083A3
:1023F0009BE088E10FB6F894A895809360000FBE2B
:102400009093600083CF6C960FB6F894DEBF0FBE3A
:10241000CDBFDF91CF91FF91EF91BF91AF919F9190
:102420008F917F916F915F914F913F912F911F916C
:102430000F91FF90EF90DF90CF900F900FBE0F9015
:102440001F9018952FB7F8948091C5019091C601FF
:10245000A091C701B091C8012FBF2091DB012223B9
:1024600091F02091D301382F321B3093DC01209161
:10247000D0013091D1012F5F3F4F3093D101209394
:10248000D0011092DB014091D7015091D8016091A9
:10249000D9017091DA0184179507A607B70774F47C
:1024A000481B423038F183B7817F83BF83B7816097
:1024B00083BF889583B78E7F83BF1CC02091D201D4
:1024C000AC01BD01420F511D611D711D4093D7012B
:1024D0005093D8016093D9017093DA018093D301AE
:1024E0009093D401A093D501B093D60181E080935D
:1024F000DB01089580E008952F923F924F925F9202
:102500006F927F928F929F92AF92BF92CF92DF9203
:10251000EF92FF920F931F93CF93DF93CDB7DEB768
:1025200028970FB6F894DEBF0FBECDBF222E312CF8
:102530009C01220D331D37FD30C1803891050CF010
:102540002CC19B01200F311D37FD27C1603471055F
:102550000CF023C1DB0177FF04C0AA27BB27A61B11
:10256000B70BA770BB279B0177FF02C0295F3F4FC6
:1025700013E0359527951A95E1F777FF08C02150AC
:10258000310968E070E05B01AA1ABB0AD501E02FAF
:10259000E695E695E695CE2ED12C077019F00FEF53
:1025A000C01AD00AB9017695762F66277795679578
:1025B000680F791F5601A20EB31EBC82AB82412C5C
:1025C000512CF8E0CF2ED12C86010A1B1B0B1A834D
:1025D0000983AB80BC802A153B0509F4DEC0283096
:1025E000310509F4DAC02F3F1FEF31070CF4CAC0E0
:1025F0003B01E0E86E0E711C8B01035A1D4F1E83D8
:102600000D834C0100E010E0021513050CF0BAC078
:10261000E0E88E16910409F4B5C097FCA8C02F3FDE
:10262000FFEF3F0709F4B5C0F801E40DF51DCD80BB
:10263000DE80C618D708AA24A394E40FF51FEA1079
:1026400013C0E491C60ED71EF0E05F010A2E02C04F
:10265000AA0CBB1C0A94E2F7B886AF82F601B080E0
:10266000EF81F885EB292BC0E11017C0E491C60E6D
:10267000D71EF0E00A2E02C0EE0FFF1F0A94E2F709
:102680005F01A094B094B886AF82F601A080B12C0F
:10269000EF81F885AE22BF2213C0E491C60ED71E8B
:1026A000F0E05F010A2E02C0AA0CBB1C0A94E2F7FC
:1026B000B886AF82F601B080EF81F885EB255F0127
:1026C000F601A082109709F452C02730310509F4B1
:1026D0004EC0F801E40DF51DAA24A394EA1011C020
:1026E000E40FF51FE491CE2ED12C5601098002C0D3
:1026F000B594A7940A94E2F7ED81FE81D080AD28CD
:1027000035C0CD80DE80C618D708E40FF51FE11074
:1027100018C0E491C60CD71CAE2EB12C098002C0A3
:10272000B594A7940A94E2F7F501E095F095F8873F
:10273000EF83F601A080B12CEF81F885AE22BF2295
:1027400014C0E491C60CD71CAE2EB12CF501098043
:1027500002C0F595E7950A94E2F7F887EF83F60152
:10276000B080EF81F885EB255F01F601A0820F5F55
:102770001F4FED81FE813196FE83ED83FFEF8F1AAF
:102780009F0A42CF2F5F3F4F420C531C60587F4F30
:1027900020CF109709F09DCFEACF28960FB6F89476
:1027A000DEBF0FBECDBFDF91CF911F910F91FF9084
:1027B000EF90DF90CF90BF90AF909F908F907F90E1
:1027C0006F905F904F903F902F900895DF92EF921F
:1027D000FF920F931F93CF93DF937C01D42E8B0135
:1027E0000F5F1F4FEB0177FF12C0C0E0D0E00FC0BA
:1027F000CE17DF079CF480E8E816F10438F42D2D9D
:10280000AE01B70189EC91E00E944D0E2196F801CE
:10281000013411056CF3E0E4F0E0EACFDF91CF91F1
:102820001F910F91FF90EF90DF90089520E08DEDC4
:1028300091E0B22FB111BFEFFC010024B193B1932D
:10284000B193B1930394D1F70895009769F0FC0117
:1028500001900020E9F73197AF01481B590BBC01EB
:1028600089EC91E00C94AE0780E090E00895FC01C3
:102870008091BD01811103C08FEF9FEF08959FB735
:10288000F89482E08093E9002091F20030E0121683
:10289000130614F421E030E02115310559F0289891
:1028A00084E68093BC018091F10080838091F200E6
:1028B000882319F09FBFC90108958BE68093E80033
:1028C000F9CF362F90E0FC01E15BF14F4491FC0120
:1028D000E259F14F2491FC01E556F14F8491882390
:1028E00009F451C04423E1F150E0FA013197EF308F
:1028F000F105B0F5EA5AFF4F0C94771D90918000D6
:102900009F7707C0909180009F7D03C090918000C9
:10291000977F9093800024C094B59F7702C094B5B0
:102920009F7D94BD1DC0909190009F7707C09091AE
:1029300090009F7D03C090919000977F90939000AE
:102940000FC09091C0009F7703C09091C0009F7D01
:102950009093C00005C09091C200977F9093C200F1
:10296000E82FF0E0EE0FFF1FE357F14FA591B49170
:102970008FB7F894EC91311103C020952E2301C03C
:102980002E2B2C938FBF0895CF93DF9390E0FC0103
:10299000E259F14F2491FC01E556F14F84918823CF
:1029A00061F190E0880F991FFC01EF5BF14FC59139
:1029B000D491FC01E357F14FA591B491611109C085
:1029C0009FB7F8948881209582238883EC912E23E9
:1029D0000BC0623061F49FB7F8943881822F8095E4
:1029E00083238883EC912E2B2C939FBF06C08FB737
:1029F000F894E8812E2B28838FBFDF91CF91089523
:102A0000CF93DF939091C401923009F46EC0C82F28
:102A1000292F30E0F901E654F14FD491F901ED513D
:102A2000FA4F80839F5F9093C40161E00E94C414B9
:102A3000D13019F0D33039F158C010928000109283
:102A40008100809181008860809381008091810065
:102A50008160809381008C2F90E0FC01E556F14F5E
:102A6000E491F0E0EE0FFF1FE357F14F2591349111
:102A70003093C3012093C201FC01E259F14F8491CC
:102A80008093C10132C01092900010929100809109
:102A90009100886080939100809191008160809383
:102AA00091008C2F90E0FC01E556F14FE491F0E0AD
:102AB000EE0FFF1FE357F14F259134913093C00182
:102AC0002093BF01FC01E259F14F84918093BE0134
:102AD0008091C401882321F06CE380E00E946E0C99
:102AE00080E0DF91CF910C94590DDF91CF91089543
:102AF0001F93CF93DF93182FEB0161E00E94C41462
:102B0000209711F460E004C0CF3FD10539F461E0B3
:102B1000812FDF91CF911F910C946114E12FF0E090
:102B2000E15BF14FE4914E2F50E0FA013197EF3025
:102B3000F10508F06CC0EB59FF4F0C94771D84B57C
:102B4000806884BDC7BD68C084B5806284BDC8BDCF
:102B500063C080918000806880938000D09389005A
:102B6000C093880059C0809180008062809380006B
:102B7000D0938B00C0938A004FC080918000886002
:102B800080938000D0938D00C0938C0045C08091CD
:102B90009000806880939000D0939900C093980033
:102BA0003BC080919000806280939000D0939B0006
:102BB000C0939A0031C0809190008860809390000B
:102BC000D0939D00C0939C0027C08091C000806876
:102BD0008093C0008091C0008F7B8093C000C09321
:102BE000CF001AC08091C00080628093C000C09363
:102BF000D00012C08091C20088608093C200809192
:102C0000C2008B7F8093C200C093D20005C0C03841
:102C1000D1050CF07CCF76CFDF91CF911F91089535
:102C2000EF92FF921F93CF93DF931F92CDB7DEB742
:102C3000162FEE24EA94F12CB701681B71098AE083
:102C400049830E947815B701611B71098BE00E94CE
:102C500078154981B701641B710989E00F90DF91F4
:102C6000CF911F91FF90EF900C9478158FB12CB1FC
:102C700093B130E02095309520743327A90123E0EB
:102C8000559547952A95E1F7292F30E02095309505
:102C9000207133273595279535952795242B8095D9
:102CA000807F822B0895FC0121912EBD9C5F219194
:102CB0000DB407FEFDCF2EBDE817F907C1F70DB41F
:102CC00007FEFDCF0895789484B5826084BD84B5F5
:102CD000816084BD85B5826085BD85B5816085BD17
:102CE00080916E00816080936E00109281008091CF
:102CF0008100826080938100809181008160809357
:102D0000810080918000816080938000809191009B
:102D10008260809391008091910081608093910006
:102D2000809190008160809390008091C1008460C8
:102D30008093C1008091C10082608093C100809126
:102D4000C10081608093C1008091C3008160809345
:102D5000C3008091C00082608093C0008091C20057
:102D600081608093C20080917A00846080937A00B1
:102D700080917A00826080937A0080917A008160ED
:102D800080937A0080917A00806880937A00109214
:102D9000BD0110929C0110929D018091D70081602D
:102DA0008093D70080EA8093D80089B5806189BD7F
:102DB00089B5826089BD09B400FEFDCF61E070E095
:102DC00080E090E00E94150A8091D8008F7C80619D
:102DD0008093D8008091E000807F8093E000809114
:102DE000E1008E7E8093E1008DE08093E200559AB1
:102DF000209AEEEFFFE7859194918B3F9C4D19F45B
:102E000081E080939B01109291011092900180913A
:102E1000DC0134E6839FC00111246091D20170E08F
:102E20000E94631D672B09F03BC1CFB7F8948091D6
:102E30007501811127C0ECEAFEE08491EFE7FEE026
:102E40009491E82FF0E0EE0FFF1FEF5BF14FA5919B
:102E5000B491EC91E92321F461E081E10E946114D5
:102E600061E081E10E94C4148CB580618CBD8CB599
:102E700080648CBD61E08FE00E94C41461E080E159
:102E80000E94C414809175018F5F80937501CFBF3C
:102E9000CDECD1E0FE018491229631966491882395
:102EA00019F00E94C414F6CF61E086E00E9461141C
:102EB00061E070E080E090E00E94150A60E086E04A
:102EC0000E9461146AE070E080E090E00E94150AC0
:102ED00061E086E00E946114E7EAFEE0E491F0E040
:102EE000EE0FFF1FE357F14F8591949190937B0173
:102EF00080937A01EAE7FEE0E491E0937901EFE95B
:102F0000FEE0E491F0E0EE0FFF1FE357F14F8591F3
:102F100094919093780180937701E2E7FEE0E49149
:102F2000E09376018CB58C7F8CBD8DB581608DBDB5
:102F3000E0917A01F0917B01908180917901982B49
:102F40009083A0917701B09178012C9190917601B6
:102F5000909592239C939081809589238083E0ECC7
:102F6000F1E021E0ED3CF20749F084918EBD0000D4
:102F70000DB407FEFDCF8EB53196F3CFE09177010A
:102F8000F0917801908180917601892B8083E09186
:102F90007A01F0917B01908180917901809589235C
:102FA00080838091640081608093640080916400DC
:102FB00082608093640080916400806880936400E4
:102FC00080916400806480936400809165008160DA
:102FD000809365000E94361687FF10C080E094E061
:102FE0001EBC00000DB407FEFDCF2EB50197C1F742
:102FF0004FEF6FEF8FEF0E941016FFCFCEEEDFEF97
:1030000018E140E060E0812F8C1B0E9410160E94A6
:103010001614EE24E39400E128E540E151E0BE01FE
:1030200084E190E00E947C128DED91E00E945316A5
:103030006BE170E080E090E00E94150AC03F31F43F
:103040006AEF70E080E090E00E94150A2196C93195
:10305000D105B9F66EEE72E080E090E00E94150AAC
:1030600040E060E080E00E94101685E00E940015BC
:103070008DE00E9400151092A20182E090E00E9473
:103080007F20882369F080916400877F80936400AB
:1030900080916500877F8093650081E08093740153
:1030A0008CE390E090937D0180937C0180E290E03E
:1030B00090938D0180938C0181E090E090938F013B
:1030C00080938E01FAE02F2E312C0E942212882349
:1030D00009F444C480919001909191010196803649
:1030E0005AEE950729F0909391018093900104C0C6
:1030F00010929101109290010E9436160E9436168D
:1031000084FD02C06CE301C060E06093CF0170E019
:1031100088EE93E00E94631D6093D20180918E013E
:1031200090918F01019709F0AAC10E94361682FD85
:10313000AEC3C8E1D0E00E941614EE24E39400E48C
:1031400020E44CEF55E060E070E080E290E00E9407
:103150007C1281E00E944F0A219769F781EF95E088
:1031600090939F0180939E019093A1018093A00171
:103170000E94820D81E08093A20140E860E080E639
:103180000E94101686E00E944F0A40E060E080E056
:103190000E9410168CE30E944F0AE12C00E220E20C
:1031A00041E755E06BE070E084E390E00E947C1220
:1031B00020E241E755E06BE070E084E390E00E949C
:1031C0007C1220E241E755E06BE070E084E390E0A0
:1031D0000E947C1220E241E755E06DE070E087E359
:1031E00090E00E947C1220E241E755E06DE070E043
:1031F00087E390E00E947C1220E241E755E06DE019
:1032000070E087E390E00E947C12A12CB12CE3E0F7
:103210008E2E912C62E070E080E090E00E948208A7
:103220002B013C01EFEF4E1A5E0A6E0A7E0A62E045
:1032300070E080E090E00E9482088B019C010F5FAB
:103240001F4F2F4F3F4FC501B4010E94631DA801BE
:10325000445F5F4F6A01E201E696892B19F4EE2480
:10326000E39401C0E12C00E220E241E755E0B60121
:10327000CE010E947C1220E241E755E0B601CE016A
:103280000E947C1220E241E755E0B601CE010E9487
:103290007C128DED91E00E94531681E00E944F0A4E
:1032A0005FEFA51AB50A64E2A616B10409F0B2CF21
:1032B000CCE0D0E020918C0130918D01C217D30772
:1032C0000CF05CC0CE01B1010E94631D6F5F7F4FA7
:1032D000C60FD71F2C173D070CF4E9010E941614E6
:1032E000EE24E39400E420E44CEF55E060E070E06D
:1032F00080E290E00E947C12E12C00E220E241E7B3
:1033000055E0BE0185E390E00E947C1220E241E797
:1033100055E0BE0187E390E00E947C1220E241E785
:1033200055E06E0171E0C71AD108B60185E390E05F
:103330000E947C1220E241E755E0B60187E390E06D
:103340000E947C1220E241E755E0BE016F5F7F4F93
:1033500086E390E00E947C12EE24E39420E241E7B1
:1033600055E0BE0186E390E00E947C128DED91E075
:103370000E94531681E00E944F0A9CCF86E692E09D
:1033800090939F0180939E019093A1018093A0014F
:103390000E94820D81E08093A20188E70E944F0A7B
:1033A0007FE7872E912CC12CD12C2E0181E0481A69
:1033B0005108560197E3C916D1041CF066E3A62E06
:1033C000B12C57E3652E712C6A187B08E12C00E2C2
:1033D00020E241E755E0BE01C3010E947C12E0E219
:1033E000CE16D10424F47601EE0CFF1C01C074014A
:1033F00000E010E040E0B701C8010E94E6130F5F53
:103400001F4F00381105B1F7E12C00E220E241E73F
:1034100055E0BE0185E390E08A199B090E947C1269
:1034200086E390E09C012A193B09590120E241E71B
:1034300055E0B201C5010E947C1220E241E755E04F
:10344000BE01C3010E947C12EE24E39420E241E716
:1034500055E0BE01C5010E947C1281E00E944F0A26
:103460003FEFC31AD30A42E0841A910850E4C5160C
:10347000D10409F09ECF8AE00E944F0A08C20E9440
:1034800016148091D0019091D10165E070E00E9406
:103490004F1D892B09F078C00E94361685FF10C099
:1034A00080E590E09093DE058093DD0582E390E077
:1034B0009093E0058093DF0581E491E00E9425145C
:1034C0000E94361686FF10C08DE590E09093DE05D1
:1034D0008093DD0582E390E09093E0058093DF0523
:1034E00083E491E00E9425140E94361687FF10C0E5
:1034F00084E590E09093DE058093DD058DE290E019
:103500009093E0058093DF0585E491E00E94251407
:103510000E94361684FF10C084E590E09093DE058B
:103520008093DD0587E390E09093E0058093DF05CD
:1035300088E491E00E9425140E94361683FF10C093
:1035400086E690E09093DE058093DD0582E390E0CF
:103550009093E0058093DF058BE491E00E942514B1
:103560000E94361682FF10C08EE690E09093DE0532
:103570008093DD0582E390E09093E0058093DF0582
:103580008DE491E00E94251480918E0190918F012D
:103590008230910509F018C10E94850924E6C22EE7
:1035A000D12C34EFA32EBB24B394CBEFD1E011E0A8
:1035B0008091900190919101019690939101809357
:1035C000900180918A0190918B010E94D907009708
:1035D000F9F02091880130918901280F391FC90124
:1035E000B6010E94631DFB01E55BFF4FC901B501F8
:1035F0000E94631D660F771F660F771F6E0F7F1F78
:1036000070938B0160938A01309389012093880124
:1036100080918801909189010E94A60880918E0175
:1036200090918F01029789F5E0907E01F0907F01E3
:10363000E114F10429F00E94361687FD97C1AFC14D
:103640000E94361683FD92C1F6CF8D3091050CF4A1
:10365000C3C18031910509F4BFC18231910509F4DC
:10366000BBC18431910509F4C0C18631910509F4CB
:10367000BCC1873291050CF4BEC110928301109237
:10368000820110927F0110927E010E941614809197
:103690008801909189010E94050880918201909192
:1036A0008301E0918C01F0918D01E81BF90B892BCE
:1036B000B1F48091900190919101B1010E944F1D50
:1036C000AB01437055275695542F4427579547957E
:1036D0004F585D4FEE24E39400E220E206C0EE2452
:1036E000E39400E220E241E752E0BF0180E090E095
:1036F0000E947C120E94AC098091880190918901FE
:103700004091860150918701481B590B20918401FB
:1037100030918501281B390B80918C0190918D018E
:103720006091820170918301861B970B4132510594
:103730001CF5E0918001F091810157FF03C0405FCB
:103740005F4F05C060E270E0641B750BAB01E817CA
:10375000F90734F4BF01685E7F4F681B790B05C021
:10376000BC01605E7F4F6E1B7F0B4A30510524F019
:103770006D3071050CF055C1213231050CF54091C9
:1037800080015091810137FF03C0205F3F4F05C08A
:10379000E0E2F0E0E21BF30B9F01481759073CF40D
:1037A000485E5F4FBA01681B790BCB0103C080965E
:1037B000841B950B2A3031051CF00D970CF031C19C
:1037C00081E00E944F0AF4CE039709F0C3C08BEE4C
:1037D00091E090939F0180939E019093A10180932B
:1037E000A0010E94820D81E08093A201C9EFDFEF6A
:1037F0008091900190919101019690939101809315
:1038000090010E94161480918801909189010E9474
:103810000508C230D105C0F0CE0109970297A0F08B
:1038200060918C0170918D01809182019091830152
:10383000681B790BEE24E39400E220E241E754E0B8
:1038400080E090E00E947C120E94AC098DED91E036
:103850000E94531681E00E944F0A2196C131D10582
:1038600039F6C0908801D0908901C1E0D0E011E024
:103870008091900190919101019690939101809394
:1038800090010E94361682FF05C00E9436160E94E3
:10389000850964C080918201909183018D3F7FEF03
:1038A00097070CF4C5C00197909383018093820120
:1038B000CD2BB1F00496B9F42CEF3FEF3093830198
:1038C0002093820140EE51E050939F0140939E016E
:1038D0005093A1014093A0010E94820D1093A20178
:1038E000C0E0D0E002C0C1E0D0E0E0908A01F090FA
:1038F0008B011E141F0464F4C7010E94D90751E014
:10390000E51AF108F0928B01E0928A01C80ED91EE7
:10391000C6010E94A6080E941614C6010E9405084E
:1039200060918C0170918D01809182019091830151
:10393000681B790BEE24E39400E220E241EF54E0AF
:1039400080E090E00E947C120E94AC0981E00E941D
:103950004F0A8ECF8DED91E00E94531680E090E0EB
:10396000892B09F4B2CB0E940000ACCB61E070E07F
:1039700070937F0160937E0185E090E090938301D6
:1039800080938201D0939F01C0939E01D093A101A7
:10399000C093A0010E94820D1093A20176CEE11483
:1039A000F10409F472CEC701019690937F018093D0
:1039B0007E018630910534F48091820190918301DB
:1039C00006962AC0893091050CF03FCE8091820185
:1039D00090918301029620C0809182019091830191
:1039E00001961AC04A970CF450CE809182019091B2
:1039F0008301019711C08132910534F080918201D9
:103A000090918301069708C08E3191055CF38091F7
:103A100082019091830102979093830180938201A8
:103A200034CE83E090E090938F0180938E0196CF07
:103A3000CD2B09F041CF54CFE5EEF5E01382128291
:103A400088EE93E0A0E0B0E084839583A683B783FB
:103A50008BE191E0918380838FEF9FEF958784873F
:103A6000E9ECF1E0138212828BE291E09183808392
:103A70008CE3868380E181871086178216861786FD
:103A8000108A118A128A1092DE051092DD051092BA
:103A9000E0051092DF0581E08093E1050895AA1BFF
:103AA000BB1B51E107C0AA1FBB1FA617B70710F029
:103AB000A61BB70B881F991F5A95A9F7809590955B
:103AC000BC01CD01089597FB072E16F4009407D092
:103AD00077FD09D00E944F1D07FC05D03EF490955C
:103AE00081959F4F0895709561957F4F0895EE0FD2
:103AF000FF1F0590F491E02D099481E090E0F89487
:103B00000C942121AEE0B0E0E8E8FDE10C94F8204F
:103B10000D891E8986E08C831A8309838FEF9FE7C6
:103B20009E838D83AE01475E5F4F6F89788DCE0196
:103B300001960E94A51D2F813885F801E20FF31F21
:103B400010822E96E4E00C941421ACE0B0E0EBEA95
:103B5000FDE10C94EA207C016B018A01FC011782D3
:103B60001682838181FFBDC1CE0101964C01F70110
:103B70009381F60193FD859193FF81916F018823D5
:103B800009F4ABC1853239F493FD859193FF81919E
:103B90006F01853229F4B70190E00E948D1FE7CFB5
:103BA000512C312C20E02032A0F48B3269F030F41B
:103BB000803259F0833269F420612CC08D3239F0A3
:103BC000803339F4216026C02260246023C028603D
:103BD00021C027FD27C030ED380F3A3078F426FF9A
:103BE00006C0FAE05F9E300D1124532E13C08AE008
:103BF000389E300D1124332E20620CC08E3221F4F9
:103C000026FD6BC1206406C08C3611F4206802C00A
:103C1000883641F4F60193FD859193FF81916F0100
:103C20008111C1CF982F9F7D9554933028F40C5F5C
:103C30001F4FFFE3F9830DC0833631F0833771F0F6
:103C4000833509F05BC022C0F801808189830E5F53
:103C50001F4F44244394512C540115C03801F2E005
:103C60006F0E711CF801A080B18026FF03C0652D86
:103C700070E002C06FEF7FEFC5012C870E94821FAA
:103C80002C0183012C852F77222E17C03801F2E0FA
:103C90006F0E711CF801A080B18026FF03C0652D56
:103CA00070E002C06FEF7FEFC5012C870E94771F85
:103CB0002C012C852068222E830123FC1BC0832D20
:103CC00090E048165906B0F4B70180E290E00E94F7
:103CD0008D1F3A94F4CFF50127FC859127FE819141
:103CE0005F01B70190E00E948D1F31103A94F1E01E
:103CF0004F1A51084114510471F7E5C0843611F090
:103D0000893639F5F80127FF07C06081718182810A
:103D100093810C5F1F4F08C060817181072E000CDA
:103D2000880B990B0E5F1F4F2F76722E97FF09C0DD
:103D300090958095709561957F4F8F4F9F4F20682C
:103D4000722E2AE030E0A4010E94C51FA82EA818F8
:103D500044C0853729F42F7EB22E2AE030E025C0FA
:103D6000F22FF97FBF2E8F36C1F018F4883579F025
:103D7000B4C0803719F0883721F0AFC02F2F2061F1
:103D8000B22EB4FE0DC08B2D8460B82E09C024FF66
:103D90000AC09F2F9660B92E06C028E030E005C00B
:103DA00020E130E002C020E132E0F801B7FE07C0B8
:103DB00060817181828193810C5F1F4F06C0608199
:103DC000718180E090E00E5F1F4FA4010E94C51F2B
:103DD000A82EA818FB2DFF777F2E76FE0BC0372D5F
:103DE0003E7FA51450F474FE0AC072FC08C0372D43
:103DF0003E7E05C0BA2C372D03C0BA2C01C0B52CAD
:103E000034FF0DC0FE01EA0DF11D8081803311F4F5
:103E1000397E09C032FF06C0B394B39404C0832F27
:103E2000867809F0B39433FD13C030FF06C05A2CD6
:103E3000B31418F4530C5B18B32CB31468F4B70123
:103E400080E290E03C870E948D1FB3943C85F5CFC3
:103E5000B31410F43B1801C0312C34FF12C0B70169
:103E600080E390E03C870E948D1F3C8532FF17C0A5
:103E700031FD03C088E790E002C088E590E0B7011B
:103E80000CC0832F867859F031FF02C08BE201C04D
:103E900080E237FD8DE2B70190E00E948D1FA514EE
:103EA00038F4B70180E390E00E948D1F5A94F7CF59
:103EB000AA94F401EA0DF11D8081B70190E00E94FF
:103EC0008D1FA110F5CF332009F451CEB70180E248
:103ED00090E00E948D1F3A94F6CFF701868197817A
:103EE00002C08FEF9FEF2C96E2E10C940621FC01BB
:103EF0000590615070400110D8F7809590958E0F15
:103F00009F1F0895FC016150704001900110D8F787
:103F1000809590958E0F9F1F08950F931F93CF93B9
:103F2000DF93FB01238121FD03C08FEF9FEF28C0AA
:103F300022FF16C0468157812481358142175307DD
:103F400044F4A081B1819D012F5F3F4F31832083D5
:103F50008C93268137812F5F3F4F3783268310C094
:103F6000EB01092F182F0084F185E02D0995892B8D
:103F7000E1F68E819F8101969F838E83812F902F02
:103F8000DF91CF911F910F910895FA01AA27283050
:103F900051F1203181F1E8946F936E7F6E5F7F4F16
:103FA0008F4F9F4FAF4FB1E03ED0B4E03CD0670F92
:103FB000781F891F9A1FA11D680F791F8A1F911DE5
:103FC000A11D6A0F711D811D911DA11D20D009F435
:103FD00068943F912AE0269F11243019305D319377
:103FE000DEF6CF010895462F4770405D4193B3E060
:103FF0000FD0C9F7F6CF462F4F70405D4A3318F007
:10400000495D31FD4052419302D0A9F7EACFB4E0B7
:10401000A6959795879577956795BA95C9F700976F
:104020006105710508959B01AC010A2E0694579510
:10403000479537952795BA95C9F7620F731F841F67
:10404000951FA01D08958F929F92AF92BF92CF921D
:10405000DF92EF92FF92CF93DF93EC016881798139
:104060008A819B81611571058105910521F464E2C6
:1040700079ED8BE597E02DE133EF41E050E00E94D0
:10408000872049015A019B01AC01A7EAB1E40E94D3
:10409000A6206B017C01ACEEB4EFA50194010E9457
:1040A000B420DC01CB018C0D9D1DAE1DBF1DB7FFE3
:1040B00003C00197A109B04888839983AA83BB8371
:1040C000BC01CD019F77DF91CF91FF90EF90DF9002
:1040D000CF90BF90AF909F908F9008950E94232023
:1040E00008958CE091E00E942320089560930C01D4
:1040F00070930D0180930E0190930F010895F9992B
:10410000FECF92BD81BDF89A992780B50895052EFE
:1041100097FB1EF400940E949E2057FD07D00E943A
:10412000B92007FC03D04EF40C949E205095409586
:10413000309521953F4F4F4F5F4F08959095809553
:10414000709561957F4F8F4F9F4F08950E94DB20A0
:10415000A59F900DB49F900DA49F800D911D1124DB
:104160000895B7FF0C94A6200E94A620821B930BF3
:104170000895A1E21A2EAA1BBB1BFD010DC0AA1FA8
:10418000BB1FEE1FFF1FA217B307E407F50720F0C0
:10419000A21BB30BE40BF50B661F771F881F991F3B
:1041A0001A9469F760957095809590959B01AC0184
:1041B000BD01CF010895A29FB001B39FC001A39F8D
:1041C000700D811D1124911DB29F700D811D112450
:1041D000911D08952F923F924F925F926F927F921E
:1041E0008F929F92AF92BF92CF92DF92EF92FF9207
:1041F0000F931F93CF93DF93CDB7DEB7CA1BDB0BB3
:104200000FB6F894DEBF0FBECDBF09942A88398857
:1042100048885F846E847D848C849B84AA84B9845E
:10422000C884DF80EE80FD800C811B81AA81B9816A
:10423000CE0FD11D0FB6F894DEBF0FBECDBFED017E
:064240000895F894FFCF81
:10424600FFFFFFFF00E1000000000000010000008A
:1042560000C1808100000000000000C40AFF0AE5DA
:104266000ABA0B960BDA0A000000006F0EAE07447E
:104276004953543A20256420205350443A2025645B
:10428600003C003E002F5C005C2F00410042000015
:00000001FF
